DEXENG JSMLICE   WEBLIC              LANSA     JQMOBILE  00000000010000100000010001F8B0800000000000000D5585B4FE346147E47E23F0C165292761D3BC056906ED8AD5890D242B5DAA4A21542D1604FF0EC8E2FF54C7052ED8FEF99B11D3B76ECD8591E5A1EC0D8E7F29DFB9979F77EE932F442424E7D6FA40DFAA6868867F936F59E47DA1FD31BFD5C7B7F79787078F0EE48D7D1FD2F7728FE19A25F2777B7E32BA4CB07044FD7BF4FAED1F47A323D3C5014F7E429F417827A648822F2C4A805B4C9B729750917D80D40CE893978AB9BA7FAE9603A30876717C3B3B31F0783A169225D8F352F391B8A107B7CEE876E11ECD2620B9BE821E10B26F4202473BA247CA4316958646B08FE7A7C28FF1D698E10C1D030A228EA339087002015033101057464311
DEXENG JSMLICE   WEBLIC              LANSA     JQMOBILE  0000000001000020000000000FB96EF1A27A67962FC79776B7C5E780280E91FB1C0295F64D7724D6E0DB09311A17F249C3E7B09DB064F74DAF7C36763707171612C1DE1B25436D8554928254F539BB5CC0FD40DFC502007EC1C695CD8B3AF64C5FBF04543C66515CD0B0E2906943B091D6ADBC4ABA3FAC25D88249931BC82E0EE9247BD204F94900123BC462E118E0FEE5D4A8FF82E153A3CE936B1180EB150215E115ECE47443D0029469AE76F8815C40D181604B95858CE4833B414978519D3D79F3DEC12C80F654002DEC8F3D748945934B4657AA4A27110B0D55A36479C3062893C69FCC428173C7B7CF8A05074EE3FFF763B99761E354855F5210617BF5E2B89A870F400002015033101057464311
DEXENG JSMLICE   WEBLIC              LANSA     JQMOBILE  0000000002000010000001000BCE226E0C1451C3C932AEB7472412813FB90D793489AD094C5A62FD426613B2607F309C1A1E5DC50264898B1CD31E3A4DBABE50575E3792B16EA71225A71F01CBA4F0C5BC4F1999D075A6F5F9E3DF54C0D75C0A8185BBED758BC6468E771DE8A5AA6D71832F5AA4DF2CC95B953B214573E5BB8DBAC31B6D4C15E45D5AC5252A84DEBA1512940F589554054D71A7EF9DB9D0987B864C68B616E5824FB88DB5D3E1B529F7C9F11EC5509ABAAA71632AA0AAC85887615B7ABD8F6F16A451996445145522DE2B5A2BCAD64F791D3A4985BD6B164493785840B804845DAFE632DDB0DE608FA829ADAA27BCC60239CD96A659AB9BE4D7AAAACD5BA8062002015033101057464311
DEXENG JSMLICE   WEBLIC              LANSA     JQMOBILE  00000000020000200000000005FC4AB8886F203B1DFD7D00B660B7861E69B0F9D6FD71257410FF9212A69540A170C495BF4109238F6E90B25116C187669065B8EEF73B2EE930EF1124DDB25AB9E2844489F16EB9523EE52970CC2ACC7F4BA548912CF835DBA3F5FBBFA38696AC665D26153696BB3258854970FA10A239A215C7B2296838E460822BD03DABE48E20018252046D97319AE38BF770053E151F550892EAB937A7805AF64A3A0090445BE03C8C674698766639634C19330EC40541851ED30E5FA5E13448A7C57A8F2AD740F34B2913786A25A7A2D9271D2F4DBE088A762ADFA8444840BD246727101A8D5314F682A94147CB77D0C37896AAC470F72C3BBD2A555C3BE002015033101057464311
DEXENG JSMLICE   WEBLIC              LANSA     JQMOBILE  000000000300001000000084265A04B93BF05CE1DE9B775836FD0D4E247468BD3222D43858D07D843AA558EB4E95F9FAED780E108AF130C76A440E0CCDEED48FECE9B7454F6B221AA3B0483CCF845FCFC3078347E78E81B868001DEED3D787EE86246FF2190EAE0E86EBF7734EA741EE36324B121F93157B32559DBD6504A3E810AB0B0E8F6DF7450A7979FA92968F5429A5634F1667CFBAA269EFC374C3418AD34EA38D9877286100FD286242B90FC679503B2B14BA994588B52F4965AC520B8D51B98F2F256AE93942B039C15D1C67AF85DB3BFB068B6ABE5E2D6D9BC9265165461CA7B412D9C68844AAA1EDB626DBCC671B162F0D5A59E1E515B38C3B766B0FC79B7AA6DB7002015033101057464311
DEXENG JSMLICE   WEBLIC              LANSA     JQMOBILE  000000000300002000000000050EB4BB2EABB1EF93BCB80639946C6076AD71DDA95C70A3CF5D73D300EF1EA4E5A9D9D0BE26BBA1DB70384D957BE2730F5EE431C042DAF7D5CBC64C47B16B903D1A08E3EB45DB694D7B3533823E4A0621638F81BFA36A8BF2E816E5256649462F3BA019315DC366071D5FF3F02766E7E4FC4CECD1621FBC9AC8D59D2BACBBD7DC1B60DF58DABA92677BE48B605354F0474FA7E7242DDBC098EAFC079722FADA41695252FD2CB7D78F32F00                                                                                                                                                              002015033101057464311
DEXENG JSMLICE   WEBLIC              LANSA     XHTML     00000000010000100000010001F8B0800000000000000ED585B6FDB36147E6E80FE0746081A7BAB2CDBC980C58DDD146D8A754B8721F1D00D862130126DB1A34481A4237B45FFFB0E49DD2C5F72C13060D8F21291E6F9782EDF3987E4F9EB65CCD01D1192F264E8F43A5D079124E0214DE643E7D7F17BF77BE7F5E8E0F9C1F9A1EBA24F6F3E22FB37403FDE7CBCFAF016B9FA03C1D7E5CF3797687C79337E7E60567C22B7822F144DC80065E496D100D6E6BF8D694CA4C2710A38FD6EEF3BB77BE29EF4C6BDEEE0F46C707AFA6DAF37E87691EB8E60DFA56403257022675CC44D4D97015B84C415442E98725341667449E4D061DAAA2C7410FC4FE4400F874EA4543AF0BC2CCB002015033101049464771
DEXENG JSMLICE   WEBLIC              LANSA     XHTML     00000000010000200000000003A0CF07027E0B1D7EF76FBDE6F1FAFBCEB45A2402DF71D56B890CBC2BD5237571E58C98872DF1149E7492EB626939D74B8987BBDB3B3336F19A99815D860D7CE851A795CD8EC80179E1937D038E542A108CC1C3A5285FE1F64253BF08BE3ED5E738705C5A0E4BD0B231A8624D9B7EAB38C218CC467780591BD0F8F26E9C62210834914131571F0ED52BB83C754B9F0E5862460586065E2BB227293898826A0A21A3A09AF812A12A70C2B8262AC8268E878C663F6B70033E6960B121C132087513F07F0EA08BB21358306A1A646858DD394AD4A70097C1B302A95DDE4D3F54F5737630749C248A0EA08F64BAF94D5E7E4C2881D5BB1E3A9DDC6EE002015033101049464771
DEXENG JSMLICE   WEBLIC              LANSA     XHTML     0000000002000010000001000935115B9297826CE0D009B787603DEAEE095589056DBDAB457EC2D67D740D63FC9E36405CF7EE0907C97B319C854B233CCE4BDC276B126E135CFE423858196C48F080E89F0E9CC076FABD50EDD6D301B617952941F112383F4B0E86886289AFA14A86F07AB94986419DC72CE084E0A43B662EE0EDDD381EF8BEBD391EF0BFAD3911FC488C7C1174532DF41454407FCE9D99B439B1288ECCEB6BC3AA85E1E3A1D07DD61B680892F018706D42A215DA87382927C133D584D7AD3F6D7023AA47748DB6681FC4CE0D441503FA5B4D5772E6868665322EAC584CE1024059874C4A02BFBA1695C7ECC4392AFCA6B9B82DD6F1765CD34C8CEA8899CCBEB002015033101049464771
DEXENG JSMLICE   WEBLIC              LANSA     XHTML     0000000002000020000000000C699275F21976FE9D93DF391A1434DED0D8DD182BA190DE744AD69532A9D70D53ADA16FF36E202B58EF2C07917C06BD778141D0E51B75DA0810A5AB018C150142A18A7479502AEDDA19434B2C5623070A9D0F8F75F2E51E91209290F4D2FA401565C38C8F74DD6EA69CB4A3DA51D3D746C1BD463DDE0C167862198A511D693D00869ACD344B31EB080C19516D62320E7121C4425434BD32B065903EC84FD060679DF4C3A9EA7D56FB52789DE9D414571658A03D2EAB40F87C7C7D3A9491812425FC6D2D55879DAD6D5281207D8EBF259A947A7A8E6B5456BE14BB9A4BAC5B7DA6888C09BA0477B0DF7D9F9AD58C75823516DAA7042FD079D17CD002015033101049464771
DEXENG JSMLICE   WEBLIC              LANSA     XHTML     000000000300001000000092434080863BE2E9C62D38052B7BC2AB49AA91EF0447B6B7261A93E6D2ABB275B6CCAFBFED6D4D8695B7E70E1710C593FEAD815C5B0EE0230B5464E4F457BA8FAFEC3D5BF8CAAFDFFA9FA5FA02A0C44599CBD7A756EEC77AE6E79B82A595D96696374A2AA0AFF50CE6D36D8CA5DDB0E05BADA572782DCE16C112750556B4CDA26AAB36FBB687F4D14BA91EF933B9288206F48261379189613BCDE90F604B4918441C4B9241BA1CB2292E4A4AA911D321FF59D91DDCF86412FDC90E6E0549151C0B5BADAA5D56C33099A4AEC24DBB90A8B401BAF37AD69DAEC9BBC3109FE80BC3F3298DE867ADB585F4F5253494DBDB1F9E5DA8AB85EF21EB1673329002015033101049464771
DEXENG JSMLICE   WEBLIC              LANSA     XHTML     0000000003000020000000000C2AD0E30DCF99B1D6030FF61076CD973B703D6ABC296020A0B7439284E99E66099DF010BD47319089A16C76FADBAF719DF613B5B3F129B061952A9315CDBEF5C22039C9A9707FD1031F2BC174CBD3A9CBC7DF766FC66525C2797BAC8093207F2C351B4A8E1ADE21AF0F2CBF30364F35C0E50FFA57EFC2A2F8703B4C34FD5F5D11B5522E5DD6FBF5C7545CC85A3EA72B753B27107CC25D7EF6F3B851BD73C1D6084BEB65F152F770FF1ED74FA62AE5EAD795507D246EA69AF34C89E5EF2E6D0C92F5FCDB71BFB6625B7BF04E513C5331CCCFC0500                                                                            002015033101049464771
