DEXJSMLICE   000000000000010000000   000**********0000050**************************************************                                                  
DEXJSMLICE   000000000000020000000   000**********0000000                                                                                                    
DEXJSMLICE   000000000000030000000   000**********0000020 COMPONENT:  STD_WAM                                                                                
DEXJSMLICE   000000000000040000000   000**********0000000                                                                                                    
DEXJSMLICE   000000000000050000000   000**********0000050**************************************************                                                  
DEXJSMLICE   000000000000060000000   000Function  0000016Options(*DIRECT)                                                                                    
DEXJSMLICE   000000000000070000000   000Begin_Com 0000024Role(*EXTENDS #PRIM_WAM)                                                                            
DEXJSMLICE   000000000000080000000   000          0000000                                                                                                    
DEXJSMLICE   000000000000090000000   035**********0000080Define Field(#JSMxSTS) Type(*char) Length(20)00359980120150330S32PGMLIB   DBTASK                    
DEXJSMLICE   000000000000100000000   035**********0000080Define Field(#jsmxmsg) Type(*char) Length(20)00359980120150330S32PGMLIB   DBTASK                    
DEXJSMLICE   000000000000110000000   035**********0000081Define Field(#jsmxcmd) Type(*char) Length(255)00359980120150331S32PGMLIB  JMDTASK                   
DEXJSMLICE   000000000000120000000   035Define    0000070Field(#TYPE1) Type(*CHAR) Length(1)00359980120150522ROBG       PCXTASK                              
DEXJSMLICE   000000000000130000000   035Define    0000070Field(#FILE) Type(*CHAR) Length(80)00359980120150331S32PGMLIB  JMDTASK                              
DEXJSMLICE   000000000000140000000   035          000003500359980120150331S32PGMLIB  JMDTASK                                                                 
DEXJSMLICE   000000000000150000000   035          000003500359980120150331S32PGMLIB  JMDTASK                                                                 
DEXJSMLICE   000000000000160000001   035Def_List  0000100Name(#WRKLST) Fields((#TYPE1 *OUTPUT) (#FILE *OUTPUT)) Type(*WORKING) Entrys(100)00359980120150522RO
DEXJSMLICE   000000000000160000002   000          0000016BG       PCXTASK                                                                                    
DEXJSMLICE   000000000000170000000   035          000003500359980120150330S32PGMLIB   DBTASK                                                                 
DEXJSMLICE   000000000000180000000   035Webroutine0000047Name(weblic)00359980120150330S32PGMLIB   DBTASK                                                     
DEXJSMLICE   000000000000190000000   035Web_Map   0000061For(*BOTH) Fields(#WRKLST)00359980120150331S32PGMLIB  JMDTASK                                       
DEXJSMLICE   000000000000200000000   035Define    0000075Field(#SERVICE1) Type(*CHAR) Length(100)00359980120150330S32PGMLIB   DBTASK                         
DEXJSMLICE   000000000000210000000   035Define    0000074Field(#SERVER1) Type(*CHAR) Length(100)00359980120150522ROBG       PCXTASK                          
DEXJSMLICE   000000000000220000000   035Change    0000073Field(#SERVICE1) To('''SFTPSERVICE''')00359980120200715                                             
DEXJSMLICE   000000000000230000000   035**********0000082Change Field(#SERVER1) To('''localhost:8423''')00359980120150522ROBG       PCXTASK                  
DEXJSMLICE   000000000000240000000   035Message   0000055Msgtxt('ftpservice')00359980120150330S32PGMLIB  JMDTASK                                             
DEXJSMLICE   000000000000250000000   035Execute   0000090Subroutine(Checklicense) With_Parms(#SERVER1 #SERVICE1)00359980120150522ROBG       PCXTASK          
DEXJSMLICE   000000000000260000000   035_ASSIGN   0000049#TYPE1 := AAAA00359980120150522ROBG       PCXTASK                                                   
DEXJSMLICE   000000000000270000000   035_ASSIGN   0000052#FILE := AAAAAAAA00359980120150331S32PGMLIB  JMDTASK                                                
DEXJSMLICE   000000000000280000000   035Add_Entry 0000051To_List(#WRKLST)00359980120150331S32PGMLIB  JMDTASK                                                 
DEXJSMLICE   000000000000290000000   035Add_Entry 0000051To_List(#WRKLST)00359980120150331S32PGMLIB  JMDTASK                                                 
DEXJSMLICE   000000000000300000000   035Add_Entry 0000051To_List(#WRKLST)00359980120150331S32PGMLIB  JMDTASK                                                 
DEXJSMLICE   000000000000310000000   035**********0000090Change Field(#SERVICE1) To('''AS2CertificateService''')00359980120150330S32PGMLIB  JMDTASK          
DEXJSMLICE   000000000000320000000   035**********0000067Message Msgtxt('as2certificate')00359980120150330S32PGMLIB  JMDTASK                                 
DEXJSMLICE   000000000000330000000   035**********0000098Execute Subroutine(Checklicense) With_Parms(#SERVER1 #SERVICE1)00359980120150522ROBG       PCXTASK  
DEXJSMLICE   000000000000340000000   035**********0000078Change Field(#SERVICE1) To('''as2server''')00359980120150330S32PGMLIB  JMDTASK                      
DEXJSMLICE   000000000000350000000   035**********0000062Message Msgtxt('as2server')00359980120150330S32PGMLIB  JMDTASK                                      
DEXJSMLICE   000000000000360000000   035**********0000098Execute Subroutine(Checklicense) With_Parms(#SERVER1 #SERVICE1)00359980120150522ROBG       PCXTASK  
DEXJSMLICE   000000000000370000000   035**********0000078Change Field(#SERVICE1) To('''QAService''')00359980120150330S32PGMLIB  JMDTASK                      
DEXJSMLICE   000000000000380000000   035**********0000062Message Msgtxt('QAService')00359980120150330S32PGMLIB  JMDTASK                                      
DEXJSMLICE   000000000000390000000   035**********0000098Execute Subroutine(Checklicense) With_Parms(#SERVER1 #SERVICE1)00359980120150522ROBG       PCXTASK  
DEXJSMLICE   000000000000400000000   035          000003500359980120150330S32PGMLIB  JMDTASK                                                                 
DEXJSMLICE   000000000000410000000   035**********0000086Change Field(#SERVICE1) To('''BOSBookletService''')00359980120200715                                
DEXJSMLICE   000000000000420000000   035**********0000056Message Msgtxt('Bos')00359980120200715                                                              
DEXJSMLICE   000000000000430000000   035**********0000098Execute Subroutine(Checklicense) With_Parms(#SERVER1 #SERVICE1)00359980120200715                    
DEXJSMLICE   000000000000440000000   035          000003500359980120150525ROBG       PCXTASK                                                                 
DEXJSMLICE   000000000000450000000   035Change    0000077Field(#SERVICE1) To('''SMTPMailService''')00359980120150525ROBG       PCXTASK                       
DEXJSMLICE   000000000000460000000   035Message   0000048Msgtxt('Bos')00359980120150525ROBG       PCXTASK                                                    
DEXJSMLICE   000000000000470000000   035Execute   0000090Subroutine(Checklicense) With_Parms(#SERVER1 #SERVICE1)00359980120150525ROBG       PCXTASK          
DEXJSMLICE   000000000000480000000   035          000003500359980120150525ROBG       PCXTASK                                                                 
DEXJSMLICE   000000000000490000000   035Change    0000073Field(#SERVICE1) To(AS2InboundService)00359980120150522ROBG       PCXTASK                           
DEXJSMLICE   000000000000500000000   035Message   0000073Msgtxt('Testing load of ' + #SERVICE1)00359980120150522ROBG       PCXTASK                           
DEXJSMLICE   000000000000510000000   035Execute   0000090Subroutine(Checklicense) With_Parms(#SERVER1 #SERVICE1)00359980120150522ROBG       PCXTASK          
DEXJSMLICE   000000000000520000000   035          000003500359980120150522ROBG       PCXTASK                                                                 
DEXJSMLICE   000000000000530000000   035Change    0000074Field(#SERVICE1) To(AS2OutboundService)00359980120150522ROBG       PCXTASK                          
DEXJSMLICE   000000000000540000000   035Message   0000073Msgtxt('Testing load of ' + #SERVICE1)00359980120150522ROBG       PCXTASK                           
DEXJSMLICE   000000000000550000000   035Execute   0000090Subroutine(Checklicense) With_Parms(#SERVER1 #SERVICE1)00359980120150522ROBG       PCXTASK          
DEXJSMLICE   000000000000560000000   035          000003500359980120150522ROBG       PCXTASK                                                                 
DEXJSMLICE   000000000000570000000   035Change    0000081Field(#SERVICE1) To(AS2OutboundReceiptService)00359980120150522ROBG       PCXTASK                   
DEXJSMLICE   000000000000580000000   035Message   0000073Msgtxt('Testing load of ' + #SERVICE1)00359980120150522ROBG       PCXTASK                           
DEXJSMLICE   000000000000590000000   035Execute   0000090Subroutine(Checklicense) With_Parms(#SERVER1 #SERVICE1)00359980120150522ROBG       PCXTASK          
DEXJSMLICE   000000000000600000000   035          000003500359980120150522ROBG       PCXTASK                                                                 
DEXJSMLICE   000000000000610000000   035Change    0000070Field(#SERVICE1) To(AS3FileService)00359980120150522ROBG       PCXTASK                              
DEXJSMLICE   000000000000620000000   035Message   0000073Msgtxt('Testing load of ' + #SERVICE1)00359980120150522ROBG       PCXTASK                           
DEXJSMLICE   000000000000630000000   035Execute   0000090Subroutine(Checklicense) With_Parms(#SERVER1 #SERVICE1)00359980120150522ROBG       PCXTASK          
DEXJSMLICE   000000000000640000000   035          000003500359980120150522ROBG       PCXTASK                                                                 
DEXJSMLICE   000000000000650000000   035**********0000080Change Field(#SERVICE1) To(EDICatalogService)00359980120200715                                      
DEXJSMLICE   000000000000660000000   035**********0000081Message Msgtxt('Testing load of ' + #SERVICE1)00359980120200715                                     
DEXJSMLICE   000000000000670000000   035**********0000098Execute Subroutine(Checklicense) With_Parms(#SERVER1 #SERVICE1)00359980120200715                    
DEXJSMLICE   000000000000680000000   035**********000003500359980120200715                                                                                   
DEXJSMLICE   000000000000690000000   035**********0000080Change Field(#SERVICE1) To(EDIDataSetService)00359980120200715                                      
DEXJSMLICE   000000000000700000000   035**********0000081Message Msgtxt('Testing load of ' + #SERVICE1)00359980120200715                                     
DEXJSMLICE   000000000000710000000   035**********0000098Execute Subroutine(Checklicense) With_Parms(#SERVER1 #SERVICE1)00359980120200715                    
DEXJSMLICE   000000000000720000000   035**********000003500359980120200715                                                                                   
DEXJSMLICE   000000000000730000000   035**********0000081Change Field(#SERVICE1) To(EDIDatabaseService)00359980120200715                                     
DEXJSMLICE   000000000000740000000   035**********0000081Message Msgtxt('Testing load of ' + #SERVICE1)00359980120200715                                     
DEXJSMLICE   000000000000750000000   035**********0000098Execute Subroutine(Checklicense) With_Parms(#SERVER1 #SERVICE1)00359980120200715                    
DEXJSMLICE   000000000000760000000   035**********000003500359980120200715                                                                                   
DEXJSMLICE   000000000000770000000   035**********0000084Change Field(#SERVICE1) To(EDIInterchangeService)00359980120200715                                  
DEXJSMLICE   000000000000780000000   035**********0000081Message Msgtxt('Testing load of ' + #SERVICE1)00359980120200715                                     
DEXJSMLICE   000000000000790000000   035**********0000098Execute Subroutine(Checklicense) With_Parms(#SERVER1 #SERVICE1)00359980120200715                    
DEXJSMLICE   000000000000800000000   035          000003500359980120150522ROBG       PCXTASK                                                                 
DEXJSMLICE   000000000000810000000   035Change    0000066Field(#SERVICE1) To(SQLService)00359980120150522ROBG       PCXTASK                                  
DEXJSMLICE   000000000000820000000   035Message   0000073Msgtxt('Testing load of ' + #SERVICE1)00359980120150522ROBG       PCXTASK                           
DEXJSMLICE   000000000000830000000   035Execute   0000090Subroutine(Checklicense) With_Parms(#SERVER1 #SERVICE1)00359980120150522ROBG       PCXTASK          
DEXJSMLICE   000000000000840000000   035          000003500359980120150522ROBG       PCXTASK                                                                 
DEXJSMLICE   000000000000850000000   035Change    0000066Field(#SERVICE1) To(ZipService)00359980120150522ROBG       PCXTASK                                  
DEXJSMLICE   000000000000860000000   035Message   0000073Msgtxt('Testing load of ' + #SERVICE1)00359980120150522ROBG       PCXTASK                           
DEXJSMLICE   000000000000870000000   035Execute   0000090Subroutine(Checklicense) With_Parms(#SERVER1 #SERVICE1)00359980120150522ROBG       PCXTASK          
DEXJSMLICE   000000000000880000000   035          000003500359980120150522ROBG       PCXTASK                                                                 
DEXJSMLICE   000000000000890000000   035Endroutine000003500359980120150522ROBG       PCXTASK                                                                 
DEXJSMLICE   000000000000900000000   035          000003500359980120150330S32PGMLIB   DBTASK                                                                 
DEXJSMLICE   000000000000910000000   035Subroutine0000075Name(checklicense) Parms(#clSRV #clSVCE)00359980120150526ROBG       PCXTASK                         
DEXJSMLICE   000000000000920000000   035          000003500359980120150526ROBG       PCXTASK                                                                 
DEXJSMLICE   000000000000930000000   035          000003500359980120150526ROBG       PCXTASK                                                                 
DEXJSMLICE   000000000000940000000   035Define    0000072Field(#clSRV) Type(*CHAR) Length(100)00359980120150526ROBG       PCXTASK                            
DEXJSMLICE   000000000000950000000   035Define    0000073Field(#clSVCE) Type(*CHAR) Length(100)00359980120150526ROBG       PCXTASK                           
DEXJSMLICE   000000000000960000000   035          000003500359980120150526ROBG       PCXTASK                                                                 
DEXJSMLICE   000000000000970000000   035**********0000062 OPEN JSM AND VERIFY STATUS00359980120150526ROBG       PCXTASK                                      
DEXJSMLICE   000000000000980000000   035Use       0000090Builtin(JSMX_OPEN) To_Get(#JSMXSTS #JSMXMSG #JSMXHDLE1)00359980120150526ROBG       PCXTASK          
DEXJSMLICE   000000000000990000000   035          000003500359980120150526ROBG       PCXTASK                                                                 
DEXJSMLICE   000000000001000000000   035Execute   0000056Subroutine(CHECK_STS)00359980120150526ROBG       PCXTASK                                            
DEXJSMLICE   000000000001010000000   035          000003500359980120150526ROBG       PCXTASK                                                                 
DEXJSMLICE   000000000001020000000   035If        0000058(#JSMXHDLE1 *NE "0000")00359980120150526ROBG       PCXTASK                                          
DEXJSMLICE   000000000001030000000   035**********000003500359980120150526ROBG       PCXTASK                                                                 
DEXJSMLICE   000000000001040000000   035**********0000065BUILD THE SERVICE LOAD COMMAND00359980120150526ROBG       PCXTASK                                   
DEXJSMLICE   000000000001050000000   035Change    0000067Field(#JSMXCMD) To(SERVICE_LOAD)00359980120150526ROBG       PCXTASK                                 
DEXJSMLICE   000000000001060000000   035Execute   0000083Subroutine(KEYWRD) With_Parms('SERVICE' #clSVCE)00359980120150526ROBG       PCXTASK                 
DEXJSMLICE   000000000001070000001   035Use       0000100Builtin(JSMX_COMMAND) With_Args(#JSMXHDLE1 #JSMXCMD) To_Get(#JSMXSTS #JSMXMSG)00359980120150526ROBG 
DEXJSMLICE   000000000001070000002   000          0000013      PCXTASK                                                                                       
DEXJSMLICE   000000000001080000000   035Execute   0000056Subroutine(CHECK_STS)00359980120150526ROBG       PCXTASK                                            
DEXJSMLICE   000000000001090000000   035          000003500359980120150526ROBG       PCXTASK                                                                 
DEXJSMLICE   000000000001100000000   035If        0000058Cond('#JSMXSTS *EQ OK')00359980120150526ROBG       PCXTASK                                          
DEXJSMLICE   000000000001110000000   035Message   0000100Msgid(DCM9899) Msgf(DC@M01) Msgdta('Service loaded successfully')00359980120150526ROBG       PCXTASK
DEXJSMLICE   000000000001120000000   035Endif     000003500359980120150526ROBG       PCXTASK                                                                 
DEXJSMLICE   000000000001130000000   035**********000003500359980120150526ROBG       PCXTASK                                                                 
DEXJSMLICE   000000000001140000000   035**********0000058    YOUR OWN LOGIC HERE00359980120150526ROBG       PCXTASK                                          
DEXJSMLICE   000000000001150000000   035If        0000061(#clSVCE *EQ 'FTPSERVICE')00359980120150526ROBG       PCXTASK                                       
DEXJSMLICE   000000000001160000000   035Execute   0000053Subroutine(RUNFTP)00359980120150526ROBG       PCXTASK                                               
DEXJSMLICE   000000000001170000000   035Endif     000003500359980120150526ROBG       PCXTASK                                                                 
DEXJSMLICE   000000000001180000000   035**********000003500359980120150526ROBG       PCXTASK                                                                 
DEXJSMLICE   000000000001190000000   035**********0000049UNLOAD SERVICE00359980120150526ROBG       PCXTASK                                                   
DEXJSMLICE   000000000001200000000   035Change    0000069Field(#JSMXCMD) To(SERVICE_UNLOAD)00359980120150526ROBG       PCXTASK                               
DEXJSMLICE   000000000001210000001   035Use       0000100Builtin(JSMX_COMMAND) With_Args(#JSMXHDLE1 SERVICE_UNLOAD) To_Get(#JSMXSTS #JSMXMSG)0035998012015052
DEXJSMLICE   000000000001210000002   000          00000196ROBG       PCXTASK                                                                                 
DEXJSMLICE   000000000001220000000   035Execute   0000056Subroutine(CHECK_STS)00359980120150526ROBG       PCXTASK                                            
DEXJSMLICE   000000000001230000000   035**********0000062CLOSE JSM AND VERIFY STATUS00359980120150526ROBG       PCXTASK                                      
DEXJSMLICE   000000000001240000001   035Use       0000100Builtin(JSMX_CLOSE) With_Args(#JSMXHDLE1) To_Get(#JSMXSTS #JSMXMSG)00359980120150526ROBG       PCXTA
DEXJSMLICE   000000000001240000002   000          0000002SK                                                                                                  
DEXJSMLICE   000000000001250000000   035Execute   0000056Subroutine(CHECK_STS)00359980120150526ROBG       PCXTASK                                            
DEXJSMLICE   000000000001260000000   035Endif     000003500359980120150526ROBG       PCXTASK                                                                 
DEXJSMLICE   000000000001270000000   035          000003500359980120150526ROBG       PCXTASK                                                                 
DEXJSMLICE   000000000001280000000   035**********000003500359980120150526ROBG       PCXTASK                                                                 
DEXJSMLICE   000000000001290000000   035Return    000003500359980120150526ROBG       PCXTASK                                                                 
DEXJSMLICE   000000000001300000000   035**********000003500359980120150526ROBG       PCXTASK                                                                 
DEXJSMLICE   000000000001310000000   035**********0000089Subroutine to build JSM commands. existing JSM command00359980120150526ROBG       PCXTASK           
DEXJSMLICE   000000000001320000000   035Endroutine000003500359980120150526ROBG       PCXTASK                                                                 
DEXJSMLICE   000000000001330000000   035          000003500359980120150526ROBG       PCXTASK                                                                 
DEXJSMLICE   000000000001340000000   035**********0000089Subroutine to build JSM commands. existing JSM command00359980120150330S32PGMLIB   DBTASK           
DEXJSMLICE   000000000001350000000   035**********000003500359980120150330S32PGMLIB   DBTASK                                                                 
DEXJSMLICE   000000000001360000000   035Subroutine0000098Name(KEYWRD) Parms((#KEYWORD *RECEIVED) (#KEYW_VAL1 *RECEIVED))00359980120150330S32PGMLIB   DBTASK  
DEXJSMLICE   000000000001370000000   035Define    0000068Field(#KEYWORD) Reffld(#STD_TEXT)00359980120150330S32PGMLIB   DBTASK                                
DEXJSMLICE   000000000001380000000   035Define    0000071Field(#KEYW_VAL1) Reffld(#STD_TEXTL)00359980120150330S32PGMLIB   DBTASK                             
DEXJSMLICE   000000000001390000000   035Use       0000097Builtin(BCONCAT) With_Args(#jsmXcmd #KEYWORD) To_Get(#jsmXcmd)00359980120150330S32PGMLIB   DBTASK   
DEXJSMLICE   000000000001400000001   035Use       0000100Builtin(TCONCAT) With_Args(#jsmXcmd '(' #KEYW_VAL1 ')') To_Get(#jsmXcmd)00359980120150330S32PGMLIB  
DEXJSMLICE   000000000001400000002   000          0000007 DBTASK                                                                                             
DEXJSMLICE   000000000001410000000   035Endroutine000003500359980120150330S32PGMLIB   DBTASK                                                                 
DEXJSMLICE   000000000001420000000   035**********000003500359980120150330S32PGMLIB   DBTASK                                                                 
DEXJSMLICE   000000000001430000000   035**********0000078 Check the status of the JSM command issued00359980120150330S32PGMLIB   DBTASK                      
DEXJSMLICE   000000000001440000000   035**********000003500359980120150330S32PGMLIB   DBTASK                                                                 
DEXJSMLICE   000000000001450000000   035Subroutine0000050Name(CHECK_STS)00359980120150330S32PGMLIB   DBTASK                                                  
DEXJSMLICE   000000000001460000000   035**********000003500359980120150330S32PGMLIB   DBTASK                                                                 
DEXJSMLICE   000000000001470000000   035Define    0000073Field(#MSGDTA) Type(*CHAR) Length(132)00359980120150330S32PGMLIB   DBTASK                           
DEXJSMLICE   000000000001480000000   035**********000003500359980120150330S32PGMLIB   DBTASK                                                                 
DEXJSMLICE   000000000001490000000   035If        0000058Cond('#JSMXSTS *NE OK')00359980120150330S32PGMLIB   DBTASK                                          
DEXJSMLICE   000000000001500000000   035**********000003500359980120150330S32PGMLIB   DBTASK                                                                 
DEXJSMLICE   000000000001510000001   035Use       0000100Builtin(BCONCAT) With_Args('Error Status Code: ' #JSMXSTS) To_Get(#MSGDTA)00359980120150330S32PGMLIB
DEXJSMLICE   000000000001510000002   000          0000009   DBTASK                                                                                           
DEXJSMLICE   000000000001520000000   035Message   0000078Msgid(DCM9899) Msgf(DC@M01) Msgdta(#MSGDTA)00359980120150330S32PGMLIB   DBTASK                      
DEXJSMLICE   000000000001530000001   035Use       0000100Builtin(BCONCAT) With_Args('Error Message: ' #jsmXmsg) To_Get(#MSGDTA)00359980120150330S32PGMLIB   D
DEXJSMLICE   000000000001530000002   000          0000005BTASK                                                                                               
DEXJSMLICE   000000000001540000000   035Message   0000078Msgid(DCM9899) Msgf(DC@M01) Msgdta(#MSGDTA)00359980120150330S32PGMLIB   DBTASK                      
DEXJSMLICE   000000000001550000000   035Abort     000003500359980120200715                                                                                   
DEXJSMLICE   000000000001560000000   035Endif     000003500359980120150330S32PGMLIB   DBTASK                                                                 
DEXJSMLICE   000000000001570000000   035**********000003500359980120150330S32PGMLIB   DBTASK                                                                 
DEXJSMLICE   000000000001580000000   035Endroutine000003500359980120150330S32PGMLIB   DBTASK                                                                 
DEXJSMLICE   000000000001590000000   035          000003500359980120150331S32PGMLIB  JMDTASK                                                                 
DEXJSMLICE   000000000001600000000   035          000003500359980120150331S32PGMLIB  JMDTASK                                                                 
DEXJSMLICE   000000000001610000000   035          000003500359980120150331S32PGMLIB  JMDTASK                                                                 
DEXJSMLICE   000000000001620000000   035          000003500359980120150331S32PGMLIB  JMDTASK                                                                 
DEXJSMLICE   000000000001630000000   035Subroutine0000047Name(RUNFTP)00359980120150331S32PGMLIB  JMDTASK                                                     
DEXJSMLICE   000000000001640000000   035**********0000056BUILD THE JSM COMMAND00359980120150331S32PGMLIB  JMDTASK                                            
DEXJSMLICE   000000000001650000000   035Message   0000053Msgtxt(RUNNINGFTP)00359980120150331S32PGMLIB  JMDTASK                                               
DEXJSMLICE   000000000001660000000   035Change    0000062Field(#JSMXCMD) To(CONNECT)00359980120150331S32PGMLIB  JMDTASK                                      
DEXJSMLICE   000000000001670000000   035Execute   0000087Subroutine(KEYWRD) With_Parms(HOST FTP.LANSA.COM.AU)00359980120150331S32PGMLIB  JMDTASK             
DEXJSMLICE   000000000001680000001   035Use       0000100Builtin(JSMX_COMMAND) With_Args(#JSMXHDLE1 #JSMXCMD) To_Get(#JSMXSTS #JSMXMSG)00359980120150331S32PG
DEXJSMLICE   000000000001680000002   000          0000013MLIB  JMDTASK                                                                                       
DEXJSMLICE   000000000001690000000   035Execute   0000056Subroutine(CHECK_STS)00359980120150331S32PGMLIB  JMDTASK                                            
DEXJSMLICE   000000000001700000000   035**********000003500359980120150331S32PGMLIB  JMDTASK                                                                 
DEXJSMLICE   000000000001710000000   035Change    0000060Field(#JSMXCMD) To(LOGIN)00359980120150331S32PGMLIB  JMDTASK                                        
DEXJSMLICE   000000000001720000000   035Execute   0000080Subroutine(KEYWRD) With_Parms(USER 'support')00359980120150331S32PGMLIB  JMDTASK                    
DEXJSMLICE   000000000001730000000   035Execute   0000085Subroutine(KEYWRD) With_Parms(PASSWORD 'lansasup')00359980120150331S32PGMLIB  JMDTASK               
DEXJSMLICE   000000000001740000001   035Use       0000100Builtin(JSMX_COMMAND) With_Args(#JSMXHDLE1 #JSMXCMD) To_Get(#JSMXSTS #JSMXMSG)00359980120150331S32PG
DEXJSMLICE   000000000001740000002   000          0000013MLIB  JMDTASK                                                                                       
DEXJSMLICE   000000000001750000000   035Execute   0000056Subroutine(CHECK_STS)00359980120150331S32PGMLIB  JMDTASK                                            
DEXJSMLICE   000000000001760000000   035**********000003500359980120150331S32PGMLIB  JMDTASK                                                                 
DEXJSMLICE   000000000001770000000   035Change    0000059Field(#JSMXCMD) To(LIST)00359980120150331S32PGMLIB  JMDTASK                                         
DEXJSMLICE   000000000001780000001   035Use       0000100Builtin(JSMX_COMMAND) With_Args(#JSMXHDLE1 #JSMXCMD) To_Get(#JSMXSTS #JSMXMSG #WRKLST)00359980120150
DEXJSMLICE   000000000001780000002   000          0000021331S32PGMLIB  JMDTASK                                                                               
DEXJSMLICE   000000000001790000000   035Execute   0000056Subroutine(CHECK_STS)00359980120150331S32PGMLIB  JMDTASK                                            
DEXJSMLICE   000000000001800000000   035**********000003500359980120150331S32PGMLIB  JMDTASK                                                                 
DEXJSMLICE   000000000001810000000   035**********000003500359980120150331S32PGMLIB  JMDTASK                                                                 
DEXJSMLICE   000000000001820000000   035Endroutine000003500359980120150331S32PGMLIB  JMDTASK                                                                 
DEXJSMLICE   000000000001830000000   000End_Com   0000000                                                                                                    
DEXJSMLICE   000000000001840000000   035          000003500359980120150330S32PGMLIB   DBTASK                                                                 
