DEMDFDEPTABWA                                00000000000017*BLANK                Y                                                                       
DEMDFDEPTABWA                                00000010000017*BLANKS               Y                                                                       
DEMDFDEPTABWA                                00000020000018*MTXT_XXNOTDELETED    Y                                                                       
DEMDFDEPTABWA                                00000030000018*MTXT_XXNOTEXIST      Y                                                                       
DEMDFDEPTABWA                                00000040000018*MTXT_XXWASCREATED    Y                                                                       
DEMDFDEPTABWA                                00000050000018*MTXT_XXWASDELETED    Y                                                                       
DEMDFDEPTABWA                                00000060000018*MTXT_XXWASSAVED      Y                                                                       
DEMDFDEPTABWA                                00000070000017*ZERO                 Y                                                                       
DEMDFDEPTABWA                                00000080000017*ZEROS                Y                                                                       
DEMDFDEPTABWA                                00000090000014DEPTDESC             YY Y  Y A000002000                                                       
DEMDFDEPTABWA                                00000100000014DEPTMENT             YY Y  Y A000000400                                                       
DEMDFDEPTABWA                                00000110000014IO$MDE                Y      A000000300                                                       
DEMDFDEPTABWA                                00000120000014IO$STS               YY Y    A000000200                                                       
DEMDFDEPTABWA                                00000130000014PRIFILRRN            YY Y    P000001500                                                       
DEMDFDEPTABWA                                00000140000014STDSELECT            YY Y Y  A000000100                                                       
DEMDFDEPTABWA                                00000150000014STD_COUNT             Y      P000000700                                                       
DEMDFDEPTABWA                                00000160000014STD_INT               Y      I000000400                                                       
DEMDFDEPTABWA                                00000170000014XXADDEXIT             Y     YA000000100                                                       
DEMDFDEPTABWA                                00000180000014XXCURROW              Y     YI000000400                                                       
DEMDFDEPTABWA                                00000190000014XXDDENTDS             YY    YA000003000                                                       
DEMDFDEPTABWA                                00000200000014XXDDSEQ               Y     YP000000100                                                       
DEMDFDEPTABWA                                00000210000014XXENTRIES             Y     YP000000700                                                       
DEMDFDEPTABWA                                00000220000014XXFILENAM             YY    YA000001000                                                       
DEMDFDEPTABWA                                00000230000014XXKEY0101            YY    YYA000000400                                                       
DEMDFDEPTABWA                                00000240000014XXLIMIT               Y     YI000000400                                                       
DEMDFDEPTABWA                                00000250000014XXSHOWSCH             Y     YA000000100                                                       
DEMDFDEPTABWA                                00000260000014XXSRCHTYP             Y    YYI000000400                                                       
DEMDFDEPTABWA                                00000270000014XXWAMNAME             Y     YA000003000                                                       
DEMDFDEPTABWA                                00000280000011DC@M01              *LIBL                                                                     
DEMDFDEPTABWA                                00000290000012WCR0001             DC@M01    *LIBL                                                           
DEMDFDEPTABWA                                00000300000012WCR0002             DC@M01    *LIBL                                                           
DEMDFDEPTABWA                                00000310000012WCR0003             DC@M01    *LIBL                                                           
DEMDFDEPTABWA                                00000320000012WCR0004             DC@M01    *LIBL                                                           
DEMDFDEPTABWA                                00000330000012WCR0005             DC@M01    *LIBL                                                           
DEMDFDEPTABWA                                00000340000024M@SYSVAR            *LIBL                                                                     
DEMDFDEPTABWA                                00000350000024M@TXTVAR            *LIBL                                                                     
DEMDFDEPTABWA                                00000360000021DEPTABCLOU          DEVDEXLIB Y Y                                                             
DEMDFDEPTABWA                                00000370000016DEPTMENT            XXKEY0101                                                                 
DEMDFDEPTABWA                                00000380000016STD_COUNT           XXENTRIES                                                                 
DEMDFDEPTABWA                                00000390000016STD_INT             XXCURROW                                                                  
DEMDFDEPTABWA                                00000400000016STD_INT             XXLIMIT                                                                   
DEMDFDEPTABWA                                00000410000016STD_INT             XXSRCHTYP                                                                 
DEMDFDEPTABWA            SHOWADD             00000000000029std_keys                                          ENG LANSA     JQMOBILE                      
DEMDFDEPTABWA            SHOWADD             00000000000029std_keys                                          ENG LANSA     PPC_XHTML                     
DEMDFDEPTABWA            SHOWADD             00000000000029std_keys                                          ENG LANSA     XHTML                         
DEMDFDEPTABWA            SHOWADD             00000010000029std_variables                                     ENG LANSA     JQMOBILE                      
DEMDFDEPTABWA            SHOWADD             00000010000029std_variables                                     ENG LANSA     PPC_XHTML                     
DEMDFDEPTABWA            SHOWADD             00000010000029std_variables                                     ENG LANSA     XHTML                         
DEMDFDEPTABWA            SHOWADD             00000020000029std_hidden                                        ENG LANSA     JQMOBILE                      
DEMDFDEPTABWA            SHOWADD             00000020000029deptabwa_layout                                   ENG LANSA     PPC_XHTML                     
DEMDFDEPTABWA            SHOWADD             00000020000029deptabwa_layout                                   ENG LANSA     XHTML                         
DEMDFDEPTABWA            SHOWADD             00000030000029deptabwa_layout                                   ENG LANSA     JQMOBILE                      
DEMDFDEPTABWA            SHOWADD             00000030000029std_input                                         ENG LANSA     PPC_XHTML                     
DEMDFDEPTABWA            SHOWADD             00000030000029std_integer                                       ENG LANSA     XHTML                         
DEMDFDEPTABWA            SHOWADD             00000040000029std_input                                         ENG LANSA     JQMOBILE                      
DEMDFDEPTABWA            SHOWADD             00000040000029std_integer                                       ENG LANSA     PPC_XHTML                     
DEMDFDEPTABWA            SHOWADD             00000040000029std_button_v2                                     ENG LANSA     XHTML                         
DEMDFDEPTABWA            SHOWADD             00000050000029std_char                                          ENG LANSA     XHTML                         
DEMDFDEPTABWA            SHOWADD             00000060000029std_datepicker                                    ENG LANSA     XHTML                         
DEMDFDEPTABWA            SHOWADD             00000070000029std_datetimepicker                                ENG LANSA     XHTML                         
DEMDFDEPTABWA            SHOWADD             00000080000029std_float                                         ENG LANSA     XHTML                         
DEMDFDEPTABWA            SHOWADD             00000090000029std_timepicker                                    ENG LANSA     XHTML                         
DEMDFDEPTABWA            SHOWADD             00000100000029std_varchar                                       ENG LANSA     XHTML                         
DEMDFDEPTABWA            SHOWADD             00000110000031*MTXT_XXRETURNLIST                                ENG LANSA     XHTML                         
DEMDFDEPTABWA            SHOWADD             00000120000031*MTXT_XXSAVE                                      ENG LANSA     XHTML                         
DEMDFDEPTABWA            SHOWADD             00000130000031*MTXT_XXSAVECOPY                                  ENG LANSA     XHTML                         
DEMDFDEPTABWA            SHOWADD             00000140000031*MTXT_XXSAVEEXIT                                  ENG LANSA     XHTML                         
DEMDFDEPTABWA            SHOWRECORD          00000000000029std_keys                                          ENG LANSA     JQMOBILE                      
DEMDFDEPTABWA            SHOWRECORD          00000000000029std_keys                                          ENG LANSA     PPC_XHTML                     
DEMDFDEPTABWA            SHOWRECORD          00000000000029std_keys                                          ENG LANSA     XHTML                         
DEMDFDEPTABWA            SHOWRECORD          00000010000029std_variables                                     ENG LANSA     JQMOBILE                      
DEMDFDEPTABWA            SHOWRECORD          00000010000029std_variables                                     ENG LANSA     PPC_XHTML                     
DEMDFDEPTABWA            SHOWRECORD          00000010000029std_variables                                     ENG LANSA     XHTML                         
DEMDFDEPTABWA            SHOWRECORD          00000020000029std_hidden                                        ENG LANSA     JQMOBILE                      
DEMDFDEPTABWA            SHOWRECORD          00000020000029deptabwa_layout                                   ENG LANSA     PPC_XHTML                     
DEMDFDEPTABWA            SHOWRECORD          00000020000029deptabwa_layout                                   ENG LANSA     XHTML                         
DEMDFDEPTABWA            SHOWRECORD          00000030000029deptabwa_layout                                   ENG LANSA     JQMOBILE                      
DEMDFDEPTABWA            SHOWRECORD          00000030000029std_input                                         ENG LANSA     PPC_XHTML                     
DEMDFDEPTABWA            SHOWRECORD          00000030000029std_integer                                       ENG LANSA     XHTML                         
DEMDFDEPTABWA            SHOWRECORD          00000040000029std_input                                         ENG LANSA     JQMOBILE                      
DEMDFDEPTABWA            SHOWRECORD          00000040000029std_integer                                       ENG LANSA     PPC_XHTML                     
DEMDFDEPTABWA            SHOWRECORD          00000040000029std_char                                          ENG LANSA     XHTML                         
DEMDFDEPTABWA            SHOWRECORD          00000050000029std_datepicker                                    ENG LANSA     XHTML                         
DEMDFDEPTABWA            SHOWRECORD          00000060000029std_datetimepicker                                ENG LANSA     XHTML                         
DEMDFDEPTABWA            SHOWRECORD          00000070000029std_float                                         ENG LANSA     XHTML                         
DEMDFDEPTABWA            SHOWRECORD          00000080000029std_timepicker                                    ENG LANSA     XHTML                         
DEMDFDEPTABWA            SHOWRECORD          00000090000029std_varchar                                       ENG LANSA     XHTML                         
DEMDFDEPTABWA            SHOWRECORD          00000100000029std_button_v2                                     ENG LANSA     XHTML                         
DEMDFDEPTABWA            SHOWRECORD          00000110000031*MTXT_XXDELETE                                    ENG LANSA     XHTML                         
DEMDFDEPTABWA            SHOWRECORD          00000120000031*MTXT_XXRETURNLIST                                ENG LANSA     XHTML                         
DEMDFDEPTABWA            SHOWRECORD          00000130000031*MTXT_XXSAVE                                      ENG LANSA     XHTML                         
DEMDFDEPTABWA            SHOWSEARCHLIST      00000000000029std_keys                                          ENG LANSA     JQMOBILE                      
DEMDFDEPTABWA            SHOWSEARCHLIST      00000000000029std_keys                                          ENG LANSA     PPC_XHTML                     
DEMDFDEPTABWA            SHOWSEARCHLIST      00000000000029std_keys                                          ENG LANSA     XHTML                         
DEMDFDEPTABWA            SHOWSEARCHLIST      00000010000029std_variables                                     ENG LANSA     JQMOBILE                      
DEMDFDEPTABWA            SHOWSEARCHLIST      00000010000029std_variables                                     ENG LANSA     PPC_XHTML                     
DEMDFDEPTABWA            SHOWSEARCHLIST      00000010000029std_variables                                     ENG LANSA     XHTML                         
DEMDFDEPTABWA            SHOWSEARCHLIST      00000020000029std_hidden                                        ENG LANSA     JQMOBILE                      
DEMDFDEPTABWA            SHOWSEARCHLIST      00000020000029deptabwa_layout                                   ENG LANSA     PPC_XHTML                     
DEMDFDEPTABWA            SHOWSEARCHLIST      00000020000029deptabwa_layout                                   ENG LANSA     XHTML                         
DEMDFDEPTABWA            SHOWSEARCHLIST      00000030000029deptabwa_layout                                   ENG LANSA     JQMOBILE                      
DEMDFDEPTABWA            SHOWSEARCHLIST      00000030000029std_input                                         ENG LANSA     PPC_XHTML                     
DEMDFDEPTABWA            SHOWSEARCHLIST      00000030000029std_integer                                       ENG LANSA     XHTML                         
DEMDFDEPTABWA            SHOWSEARCHLIST      00000040000029std_html_list                                     ENG LANSA     JQMOBILE                      
DEMDFDEPTABWA            SHOWSEARCHLIST      00000040000029std_integer                                       ENG LANSA     PPC_XHTML                     
DEMDFDEPTABWA            SHOWSEARCHLIST      00000040000029std_printpage                                     ENG LANSA     XHTML                         
DEMDFDEPTABWA            SHOWSEARCHLIST      00000050000029std_html_li                                       ENG LANSA     JQMOBILE                      
DEMDFDEPTABWA            SHOWSEARCHLIST      00000050000029std_tab_pages_v2                                  ENG LANSA     XHTML                         
DEMDFDEPTABWA            SHOWSEARCHLIST      00000060000029std_repeater                                      ENG LANSA     JQMOBILE                      
DEMDFDEPTABWA            SHOWSEARCHLIST      00000060000029std_button_v2                                     ENG LANSA     XHTML                         
DEMDFDEPTABWA            SHOWSEARCHLIST      00000070000029std_input                                         ENG LANSA     JQMOBILE                      
DEMDFDEPTABWA            SHOWSEARCHLIST      00000070000029std_click_image                                   ENG LANSA     XHTML                         
DEMDFDEPTABWA            SHOWSEARCHLIST      00000080000029std_toexcel                                       ENG LANSA     XHTML                         
DEMDFDEPTABWA            SHOWSEARCHLIST      00000090000031*MTXT_XXNEW                                       ENG LANSA     XHTML                         
DEMDFDEPTABWA            SHOWSEARCHLIST      00000100000031*MTXT_XXSEARCH                                    ENG LANSA     XHTML                         
DEMDFJSMTEST                                 00000000000017*BLANK                Y                                                                       
DEMDFJSMTEST                                 00000010000017*BLANKS               Y                                                                       
DEMDFJSMTEST                                 00000020000017*COMPONENT_DESC       Y                                                                       
DEMDFJSMTEST                                 00000030000014CLSRV                 Y     YA000010000                                                       
DEMDFJSMTEST                                 00000040000014CLSVCE                Y     YA000010000                                                       
DEMDFJSMTEST                                 00000050000014FILE                  Y Y   YA000008000                                                       
DEMDFJSMTEST                                 00000060000014IO$MDE                Y      A000000300                                                       
DEMDFJSMTEST                                 00000070000014IO$STS               YY      A000000200                                                       
DEMDFJSMTEST                                 00000080000014JSMXCMD               Y      H000035500                                                       
DEMDFJSMTEST                                 00000090000014JSMXHDLE1             Y      H000000400                                                       
DEMDFJSMTEST                                 00000100000014JSMXHDLE2             Y     YH000000400                                                       
DEMDFJSMTEST                                 00000110000014JSMXHDLE3             Y     YH000000400                                                       
DEMDFJSMTEST                                 00000120000014JSMXMSG               Y      H000025500                                                       
DEMDFJSMTEST                                 00000130000014JSMXSTS             Y Y      A000002000                                                       
DEMDFJSMTEST                                 00000140000014KEYWORD             Y Y     YA000005000                                                       
DEMDFJSMTEST                                 00000150000014KEYW_VAL1           Y Y     YA000007500                                                       
DEMDFJSMTEST                                 00000160000014MSGDTA              Y YY    YA000013200                                                       
DEMDFJSMTEST                                 00000170000014SERVER1               Y     YA000010000                                                       
DEMDFJSMTEST                                 00000180000014SERVICE1              Y     YA000010000                                                       
DEMDFJSMTEST                                 00000190000014STD_TEXT              Y      A000005000                                                       
DEMDFJSMTEST                                 00000200000014STD_TEXTL             Y      A000007500                                                       
DEMDFJSMTEST                                 00000210000014TYPE1                 Y Y   YA000000100                                                       
DEMDFJSMTEST                                 00000220000011DC@M01              *LIBL                                                                     
DEMDFJSMTEST                                 00000230000012DCM9899             DC@M01    *LIBL                                                           
DEMDFJSMTEST                                 00000240000024F@SYSVAR            *LIBL                                                                     
DEMDFJSMTEST                                 00000250000024M@SYSVAR            *LIBL                                                                     
DEMDFJSMTEST                                 00000260000019BCONCAT                                                                                       
DEMDFJSMTEST                                 00000270000019JSMX_CLOSE                                                                                    
DEMDFJSMTEST                                 00000280000019JSMX_COMMAND                                                                                  
DEMDFJSMTEST                                 00000290000019JSMX_OPEN                                                                                     
DEMDFJSMTEST                                 00000300000019TCONCAT                                                                                       
DEMDFJSMTEST                                 00000310000016JSMXHDLE1           JSMXHDLE2                                                                 
DEMDFJSMTEST                                 00000320000016JSMXHDLE1           JSMXHDLE3                                                                 
DEMDFJSMTEST                                 00000330000016STD_TEXT            KEYWORD                                                                   
DEMDFJSMTEST                                 00000340000016STD_TEXTL           KEYW_VAL1                                                                 
DEMDFJSMXSTS                                 00000000000017*BLANKS                   Y                                                                   
DEMDFSTD_TEXT                                00000000000017*BLANKS                   Y                                                                   
DEMDFSTD_TEXTL                               00000000000017*BLANK                    Y                                                                   
DEMFDDEPTABCLOU          DEVDEXLIB           00000000000017*BLANKS              Y                                                                        
DEMFDDEPTABCLOU          DEVDEXLIB           00000010000017*ZERO                Y                                                                        
DEMFDDEPTABCLOU          DEVDEXLIB           00000020000011DC@M01              *LIBL                                                                     
DEMFDDEPTABCLOU          DEVDEXLIB           00000030000012DEM0003             DC@M01    *LIBL                                                           
DEMFDDEPTABCLOU          DEVDEXLIB           00000040000012DEM0004             DC@M01    *LIBL                                                           
DEMFDDEPTABCLOU          DEVDEXLIB           00000050000025@@UPID               Y                                                                        
DEMFDDEPTABCLOU          DEVDEXLIB           00000060000025DEPTDESC             Y    Y                                                                   
DEMFDDEPTABCLOU          DEVDEXLIB           00000070000025DEPTMENT            YY    Y                                                                   
DEMFDDEPTABCLOU          DEVDEXLIB           00000080000024M@SYSVAR            *LIBL                                                                     
DEMWLdeptabwa_layout                         00000000000032XMJ001              1Y                            ENG LANSA     JQMOBILE                      
DEMWLdeptabwa_layout                         00000000000029std_layout1_v2                                    ENG LANSA     PPC_XHTML                     
DEMWLdeptabwa_layout                         00000000000032XWT01J              2Y                            ENG LANSA     XHTML                         
DEMWLdeptabwa_layout                         00000010000032XMT01J              2Y                            ENG LANSA     JQMOBILE                      
DEMWLdeptabwa_layout                         00000010000029std_types                                         ENG LANSA     PPC_XHTML                     
DEMWLdeptabwa_layout                         00000010000032XWT01L101           2Y                            ENG LANSA     XHTML                         
DEMWLdeptabwa_layout                         00000020000032XMC001              2Y                            ENG LANSA     JQMOBILE                      
DEMWLdeptabwa_layout                         00000020000029std_themelet1_1col                                ENG LANSA     XHTML                         
DEMWLdeptabwa_layout                         00000030000029std_layout_v2                                     ENG LANSA     JQMOBILE                      
DEMWLdeptabwa_layout                         00000030000029std_types                                         ENG LANSA     XHTML                         
DEMWLdeptabwa_layout                         00000040000029std_types                                         ENG LANSA     JQMOBILE                      
