DEXENG DEPTABWA  SHOWADD             LANSA     JQMOBILE  00000000010000100000010001F8B0800000000000000C556D14EDB30147D47E21F3C6B5287363749E924880813834E48A38068A696A7CA8DDDC69AE344894BD20DFE7D769AA629A5015624FAD0A6F6BDC7E7F8DCF8FAE85B16707047E38485C28156D384800A2F244C4C1CF8CBFD810EE0B7E3DD9DDD9DA30F0881FE4917CC3F3638EB5CBB27DFF508025DCC84A4020B8F82700CC68CD3627E77270FEFD3511C4E2513D4063D3F4C4F085169C5A4CB029A481C440AB5655AFBC8B29069B956DB6EEFDB5F0F3E5B966D9A00A1398F2CE1B68CB148C6611C3CA69E797C4A288A6932E51245311DB38C260EE45A664A2050BF22B1F55F07FA5246B661A469DAE40A0F37BD30305A002013110100343588231
DEXENG DEPTABWA  SHOWADD             LANSA     JQMOBILE  0000000001000020000000000A6D93206DD0BE3662AA42286CEB0C48BBC94D466F52E0C25945389CE68C226A2485BC949F79B613C31ACC3C34323F365C017D84AD7C6408DEC2E34C3E53EB0200A63097CA5D3818924C3DF749634D50C04C6F1A6983B1C33AC583E1BE83342A8A88B2234927894E221C73365EF73804C44D5A0224C25AA611050E9876A7F33BD2561C024524F88508FE318CBDCE3194DD6CB1330A1584A078A700556D220E258521060E9F90E34E08297873947E5B4C0015505920B28C81BD5FC1A445D4636D1F551075D2A2FA352267D1429594111A2BF214828A79E12D2180C7AE757FDDEE979A3B29B6B4977984F2B59CAFA4F8D31A39CA07CA6F1055480F6002013110100343588231
DEXENG DEPTABWA  SHOWADD             LANSA     JQMOBILE  0000000002000010000000582EA90084B14E1593724551639E75A061C8F287F928187236DD9230EC586D1C48B593E5F071EE08C533191FE7201AB2E3E2601CFF4CBEACEA2AA0CCC231FDF837BAB564AC2FED0F5858C354FF5E8285E02BD8DE1FAACEC762EDD6DFD2E71DECFEE25856DDD6E6FE376FB156EB7DFC1EDB34EEFF42DDCCE71DED7ED39856DDD6E99FF6FF7D57DCB7C85DFE552F586BFBE0B80406DB203BD505F866473DE3FCBB2C051C46768DE149345A7CA7D0052A952CD7F1E0F98EA827F3FF2948E86FD9B4B25E0613818FCECDC9A96A90EA6B9A2CA405E0F2AE3E906508435F61E20D024115705AB1FE66B96EF0B54D723BB7076156CE52C2FE1D6FC7E2836F5002013110100343588231
DEXENG DEPTABWA  SHOWADD             LANSA     JQMOBILE  0000000002000020000000000C58A7A37A7E7EEEDF552513950AFA808DBA448DF4427347EB1A2126E93A2274AA11858DCC8D4C83F00                                                                                                                                                                                                                                                                                                                                                                                                                                  002013110100343588231
DEXENG DEPTABWA  SHOWADD             LANSA     XHTML     00000000010000100000010001F8B0800000000000000ED586D6FDA4810FE9E5FB1B7D289F454C72F9857013D82CDA952925681B6545585167B13F6B27E91BD0EE4AAFEF79BF51B988690F4D20F558F0F0866679F9979F699F142EFD5DAE3E89646310BFC3ED64F348CA8EF042EF3AFFBF8DD74ACB4F1ABC151EF3745411FE8029130E4CC2102BC511759F6DBE9F0F4C3F01C6D5E8AB2E51E0589603E4D17BA68B20C5643D7DD761A459408EAA2C51D4A621A81D3E59BD3BF50F5557A4F99476341BC305FE82243D3EB8AAE29750DE966B751EF6AF513D36CEE6E5EC7BC2B22E2C75741E4ED96BB7678E25225A271C2851246F48AAD69DCC75C52B372F1D14E3A60F6E3AE5CED002013103000353034901
DEXENG DEPTABWA  SHOWADD             LANSA     XHTML     0000000001000020000000000E3A51061575557ABD509077872E2049E6A689AA1CECECFD4CBC41790B2621141F6C0ACDC074126672AF0C8A9502C1AB36BFF7E940AC4AA7E1244D7AADEE974D4F552787C4F64E064EF3E19775AF085071220E59079611009B4048EFA3816EEFC86DEC527B08291FA80D72D8918812A0EB8BA341464B122734EEE40388771992FE8358D0E3B2E1221027F7E6B1C767596E411802EA83664CECD63824B5F2983C7FA5FF1803CA2F87B20F7B25F29AA84048EC344208F8A65003204596014784C28F04971A9C34994767A1FDFD1F8DBB98098EF525FF4B11F64D1654B74A15A32C8159759FE8E61583008D0688D34636C9FB61ABA6ED64776BB6DE9002013103000353034901
DEXENG DEPTABWA  SHOWADD             LANSA     XHTML     0000000002000010000001000DA48379BB631323BC6291E7CFA82AF18E52EEEE2D96C6859F6ECF514BFC4B78427146C17F8EBE79E5A82EE0B33D61A9DF6B835B48DA139B69A9D8E6559667DD8D68D71ABA5370F86B11E15A6A3995AC7B2C7F5717B68DA63ADD3ACB75BED76476F98F6E9B875B89A8FBB61F22F1983E52909EA851C24843C229C651FABB84C482E3B8473A5F4F189476172A5FD53CA47DD867908B90CBF09E1B25B044288E58C612E9C371EF45430960E698531154830C121B64505613C463039904F57C8A221898407422941532EA1717DB7809632CD2CDB4EA81787C41F5C54505011A0A7A6AB5B986A06B16D5A443909F97721C7105A04914BA33E86E9EF50002013103000353034901
DEXENG DEPTABWA  SHOWADD             LANSA     XHTML     0000000002000020000000000CE01C749755DC7284E3C8F44777D9C2D85C4CD24AF551293488BC0BDDBB545D2D013790A3D4E169417353A2494CD84253340133C3ACFED8B69F530536928C1158A29A70EB416CCD7E35A4AB192EFAFBD44B56273ED457E6434762296C3E7F5021B327A9A909A65B4498CF9B2F1A58ACB3C8A341341D7021E19810F43C3BF86138DA84822D07CFC9E70E64E61F91889258B2191DA0BF0F4C89A53FF5A80824C2090FD43D30F991437F84728ADAE8FBF6C15959AAA257DCD4BC8B2867720F5A9CC5AF664F4DDCCCACDCFC46C9A4791E67F21D6D00A66E5A70DB55980C3D46635DD476D45C0EAAEAAC1223BA6A4522DDABDB454D61F6E0C54B5B9DF002013103000353034901
DEXENG DEPTABWA  SHOWADD             LANSA     XHTML     0000000003000010000000558D88AC3BA6FA6551EE3F8BEADC5EE15134B05C605F1F2AD2BE68AE5DCCD2E50A5006ABAA6FD5EC395F970182B4E16F084B4D7709B1CA7546C00DDC049E4843A86D353FFD80CD3CD88FFF42708A376E83158FBFCD4A4801307AEE537F355240D5B35C275FB923A30EEAA851E1D842C7BAAD22FC5454ECAEA7C3A9BCE67B3C9F0BD0D6A7D62C6D5341DE80902BC05801B063193918F5F408CF9D9F062329C1BEDB669EC0D923DDF2A9AF9566DEA3D72FB852578E08AF4F34970F4E6EDC71F2EC396D1D0FF97E1F3C9F0D015FAE793A1BCE2FF6819EA46BDD9F83564F88CA773694FDF5D5E9CBD9E7CC7F9EC5795FC4B6B42E50FEC33168B27F7D053002013103000353034901
DEXENG DEPTABWA  SHOWADD             LANSA     XHTML     00000000030000200000000001F83CD66EB990F7EE712B87303DCBEFEEDFE8CCCBF17FF120D8EFE0500                                                                                                                                                                                                                                                                                                                                                                                                                                                          002013103000353034901
DEXENG DEPTABWA  SHOWRECORD          LANSA     JQMOBILE  00000000010000100000010001F8B0800000000000000C5565D4FDB30147D47E23F78D6A40E6D6E920212447413E343A051406951CB137293DBC6C271A2C425ED56FEFBEC364903A50156A4F5A14DAECF3DB9C7E7FAA6073FC601470F10272C144D6CD54D8C40B8A1C7C4B0896F3AA7640FFFF8BEB9B1B971F08910D43D6CA1F9C746C727D79DC39F3A42508B32214150E1020A0768C03864EB9B1B337817FA7138924C808DDA7E983AE086B1A732B3F50E0B209134881471C3B4B6896511D3EA583BF6CEB6BDBBF7D5B26CD34484CC4B1927DC963115C9208C83E7D58F5D3EF280C4908CB824510C033686A489B9569A7A18A95F91D8FAB6897D2923DB30D234AD73C547EB6E002013110100343585731
DEXENG DEPTABWA  SHOWRECORD          LANSA     JQMOBILE  000000000100002000000000018180DD36C18BDD685E18C84548591632A699E977A9559ED0B4369E520C931246C28B2B42739E9763D8C8786B5BFBF6F8C7D19F09C5BE95A09D4CC9D5C335EEC030BA23096C8573A9B3891DEDD3D4C92BA5AC1C8F8BE0AF34063465595AF027DE67920AA501E4492F6537AC7E94439FC1A2113511994C154A20AA300A41FAAFD1DEB2D09032689BA221EB89CC654CE3C9E40B2DCA1880955A56C62113EA19510449C4A400195AEDFC406CEEB7229E7A458163400D520330159F14639BF8251B791EDE9FEA8A22E9417A894499F444A569041F4374609707095905AAFD73EBBEAB68FCE6AA5DD5C4A7AA07C54CA52D67FA90D18708FCC566ADF50002013110100343585731
DEXENG DEPTABWA  SHOWRECORD          LANSA     JQMOBILE  00000000020000100000006928968AB8AC963892A78D20ABD7215B39A2B2BE0B40FFCC50A5C1A69CB9ED5906D18246ECC66EB55E4011D731043E92F1E6055E1632FE0637D583B93A82C83F2C8A75334B52AA524EC372C3FC858F25447FBF182E8630CD7E3F2F8A47DB4AEDF05CFFFB37B51C2BA6E37CC7FB7FB6ADA30DFE177F1A86AC3DF3F1750A036B989DD50BF21657D3E518BB6A051C427643E26937C76CD7C4052A952AF83391E313517FF7CE629F4EFBACEA512F078D7EBFD3AB9352D53B5EA5C512930EB0795F1F248C860B5AD478C749184AB86D517F367E6E76507AB17A69D39FB94ECC9E92EE896FC7ECC36F5CD8ADACED159E7F67AA1A808542BCA60AB14E9BF27002013110100343585731
DEXENG DEPTABWA  SHOWRECORD          LANSA     JQMOBILE  00000000020000200000000004388DFACA8A05B57D1B5737E7A7EE13897B9A252A04A51015BA528A2EE3D78536B776A4EEB6F5255A25CDFA7A31BC7B9EA2E6CCAEFAB5D9AA33ECAA49C6D5D357A5EB54E2E3BB99AC57D959A1CF5318768C1B64ACD0BC3270BE4FF0A55E42F00                                                                                                                                                                                                                                                                                                                    002013110100343585731
DEXENG DEPTABWA  SHOWRECORD          LANSA     XHTML     00000000010000100000010001F8B0800000000000000ED576B6FE23814FDCEAFF066B54B2B4D48803E5968C5146655897646219D22AD56C8C406AC3A0F390E815DED7FDFEBBC9A404B1F9A9146DAE5439B5C5F9F7BEEF5B9B6D3BD5CBB1CADA80899EFF5B466C3D410F51C9F306FD1D3EEEC4FFA99767951EBFEA4EBE89ECE100E02CE1C2CC11B75D060F8C5EE7FBCEFDFA0C79FAE97DC851F49E6D164A083C64B3FB6A8E30B52F6BB12144B4AD06C83A2900AF0B33E7FFC1D557F85B7CD5C1A4AEC06D94007B5CC665B6F9A7ADB44CDA3CE71BB63B61BC72767DB93D721EF4881BD70EE0B773BE3B5C323427541C3884B3D1074CED634EC695C5527265A6D8B0E98BDB0A346002013103000353035991
DEXENG DEPTABWA  SHOWRECORD          LANSA     XHTML     00000000010000200000000007BDA52CAA06318711C3738C0E386E3BB46CB345BC6E4666458912781B23EC0123F031393BD20E39101A5E454EA031AB285F7344A05226E377CB1309AE7E7E7C67A295DFE4C64A8C9B3F3545C3BAF9776A100921A3237F085444BA8514F0B25993ED04DD880110D197BBC5658300C59BCE04A6820F12CC6538E37A09D97719927E9828A971D9D257E8517012906CC79780DA2F2556BFB5AFF39F7F12B327A0B2454F57579CD22297D6FBA6AEDB8429583482297CAA50F42046168C87799D4E14927D4E15824EDDED33634DCDD1CB685C53C423DD9D33C3F89528491D40D38140CB9583ACB9E66A492CA871DCCB95EF878D8A5D07C89040AB24619002013103000353035991
DEXENG DEPTABWA  SHOWRECORD          LANSA     XHTML     0000000002000010000001000661FB26ACB0E51FD5684206C85209350B50923C01086BACC538967662F72675468486E025A3801E49A536F2101B6D5D650C8FEA2C9539E754AF48B75FDE97A6459B71A5A611E81E56F688A83FA9C514EF4C454FF80EA855BFDF09F3CAB8C5F4A8541FD2793AB3BCBFA7C5F89DD3CCA63ABA70AC5EDFA67941E61F631CABD9E23542D468AACF6FC9BE1ADBD1F39F7AA22770D5888E22599125208C32407208BAE188D3FA0BB407516F2051A50D8F628FC0BB0902EE80A1E25663C6C6865B21C76008FE42BA9E49E5ACA4EE01606D8BBD8C542B0C1A13F522D25FC757F8E4288EC808C77732BA5A632437FA25F7F6E9E98BFD5BA4612A0C4CB4869002013103000353035991
DEXENG DEPTABWA  SHOWRECORD          LANSA     XHTML     0000000002000020000000000944D3351ADB3547B229AC19148454F83A3C8A19C038E93B498925CE4BA586C7A5A3A146092769F594D0E90663ED96CDB8432746546A1CBF18CF2BC4E0E0E545F6B2AFF745907C3F155B52DF7D5239B9FAFB69A5C3FCC9A8F868E60197C962F5443454F081929A347628FFA2F78E434255D4B50B9EFC146E72D402682CA487888855F3167C486E10324972C041EB024B54ACF9A45CF9A65FDA6016A2F2A38CD2957704A1BFE8AAD321BDBB5078B5AD747D9E7522F2C651D742BCEFBD712556D64C786F66CA89583407B6A6A3E3B6672A943A360379B1A33229753925E400A35D49BA6F94BBDBA75BC8C05E11DB8443E4C63A10CBB5BD893BF2266002013103000353035991
DEXENG DEPTABWA  SHOWRECORD          LANSA     XHTML     0000000003000000000000430BA3DA4F7C86AEC4AB73F19BAD07C45CFF9DD442DFB8D3DB1A793C9B8FF759836F85B327B473A0E081BCB83BA0FC1033F648ADEC12110998EFAB7E3FEB4797E7C7AF22C93F450ACACF5AE4A8C2764F2DF944E7A9E7C67E90C86A3A1FD8388E7F4F4ACF57626003B6770E92FE24811D183F7C2D8E906FE9EBCFA8222B803C221983DC418CE6DE923925E0CE4B27C39E8C0290E85D87F1DA9C11B9CD997FFB7D4B76929F54D3FA6EA3364C442F9DD9ACA1ADA77D6EDE87A6CFF108DD56EB58ECEBFB184B62E165BB78AF29562FB53287BCF3FD62F6AFF0200                                                                      002013103000353035991
DEXENG DEPTABWA  SHOWSEARCHLIST      LANSA     JQMOBILE  00000000010000100000010001F8B08000000000000009D555D4FDB30147D47E23F78D6A40E6D6E123EA41151D0064C48830DD122CA53E526B78D35C7896C97B41BFCF7DDA449081452B63EB4A97DEEF139F7C339389AC792DC813622513DEA755D4A40054928D4B447AF07DFD8677A74B8B9B1B971F08E3172F3E5822C3F3E3939BD1C7CF99AAF3072C185B2A0B80A802413321112CAFDCD8D027E03639DCCAC50E0937E94647DE03A88CE85B1185D6206220663799C22F9B6EBED30CF63AE37F076FDDD1D7F6FEFA3E7F9AE4B185BCA991BE95BCD9599243A7EEE601EC859084C839949CB520D133107D3A332779B8594E0AF327EFEB747236B53DF71B22CEB4AE4E3DD2089002013110100343559011
DEXENG DEPTABWA  SHOWSEARCHLIST      LANSA     JQMOBILE  00000000010000200000000009D6DD7DD768617E7CED54C5914C64EB8E5555C16B646F5CF1DF42BC1B2133062AACAB02731D94E37D153C7DBDFDF77E6918D65C58DBE5E05E6CC83CA337DCC8388D3445B12A1CF1E35361CFD8285E9E20E25CEE16B983BAE0547956B81910843506DA81052CBC7191F49BEC02AAF2544BB2389B57F23701D4C430ADC825E87132A6D8A2B61281897490C364AB0AEF3BC14492C2CC327164220B9E6B6E8AD0598D5E9204261766C8FAAA4A6CDFBCA0FB1610EAB3FF97868C5E548844484CFD2301A0E8FAFAE4FCEFB8352FDBA9051F4F6902A39FF7EC8F300A769AB9A40885389F424E636887AD4A155F6032E25ABB7158F01C7AF688F8AAE19DF002013110100343559011
DEXENG DEPTABWA  SHOWSEARCHLIST      LANSA     JQMOBILE  0000000002000010000000572C2589FDA4A5DD7B74665C2462CC5E2C52524FFA6C4808400CBD5190EFB673F6FFAC7679D46CFAC04DD71396B44E1607DE84C04C890153B9D4FA441B4D5C6140A8382171749D85451686E5520F918E48B0A029EE68DF94C439930308116C57E1B79CCE712D4D4468F07786D781DC6729E5F858345DAB4C1651AF17B72EFB55A31E237AC1EE4ACD4345F1DEBFF6D1312638A7B3448F25792ED2EAFAFBA2D789ACA055BDE0DA61AD8A20AC4A227BC7B97F8621CFEBC97198C4737573F50FF034EC4F7D35BD77351F9D25063A168078C78B9434A5867EB81925C2493D8B0F9C3F2CC2A7DBB14DF4E7E59D7A7644F8A5DD3AD14FBA14CEA9B1DF5AF8E002013110100343559011
DEXENG DEPTABWA  SHOWSEARCHLIST      LANSA     JQMOBILE  0000000002000020000000000CF06B7978F8EEA85764725EC3547F9C53205FD664735DD6B8E5E688572A17A21E2CA5F00                                                                                                                                                                                                                                                                                                                                                                                                                                            002013110100343559011
DEXENG DEPTABWA  SHOWSEARCHLIST      LANSA     XHTML     00000000010000100000010001F8B0800000000000000ED5A7B6FDB3812FFFB0AF43BB0BADCDA5E54969567E3C4D9A679B4C5A54961BBDB2C82429025DAD25596048A8A935BF4BBDF9022254AB66C27CDF58AC316686B5133C3E13C7E9C2175F8DBDD3440B798247E14F634B3DDD1100E9DC8F5C3494FFB343CD75F69BF1D3D7BFEECF085AEA3CF7884EC380E7CC7A6408FBAE8F4ECE3F0F8CDE7E30FA8F8A3EB470A3D8952EA8798BFE9A28117CD06D8268E77E127B4447C42B04DB18B46F7284D3001E2FED59BB7A8FCA7201FFA539C507B1A8B375DB4D931B774B3A36F7590B9DDDDD9EA76B6DABBBB9B73DC7749D0A5C40E937144A6D5B5DF3941EA629DE0240DA81E133C002015110900049475791
DEXENG DEPTABWA  SHOWSEARCHLIST      LANSA     XHTML     0000000001000020000000000F6EF70D2D30266A799AB21F83F4CBAECB1A77994C65DC398CD66ED00E4D96D279A1A9B9DCEA671FDE1C2E8A7210525F5539BDA926FE62EE51A5C1860B30053FD1427FE24146C259ED9563B2213C3DCDFDF37EE3C3A0DA46C58572D21933C946BD6C00A7FE366F0A7714428F260993D2DA1AEF515DF276D78A319F534B736F16D507229A18B636A8F66B615D8F71001AB64FA21C5134C5691C50408637B825711C2DC16A34BACDBCD55B4A394D2285C83D081C0FF6AF9D375E68F20927050210343C42945534CBD0802E18EF92E9AFA54875FBA8B9DC0263CB17ADA3D4EE61311F9A18B43DAD3C248086561D87521BED8937884A5231FA4EFEE6D002015110900049475791
DEXENG DEPTABWA  SHOWSEARCHLIST      LANSA     XHTML     00000000020000100000010009F6F9A3B9BE6FEF9FEF6DEB6B9BF7376BA63EEEE1E1F6F9D9F9FEFEDF128904C3EC5D3EC590CC4248A31A13E4EC4B0189FF92EF510CB0B4C08069B787EC0964B6D083E5343E2F93EC63DCD89426A43EE130D4D6121631F13A0E974FE91695F08F5B03FF1E893493D34162F219BCCB16366E323C099531CDB844EC1A6E82472B1E093042A1377BA511A4A70602D18BEB583141F25E4167785BC6C2433B651B6B678069771771A257F664085A77100B888A63675BC9E66646EE3EF1C3B08F49C20B4A7609D2CDD447818AA847A91F9AC42B6EBDF2288C584E18EEF42C8694787060C166FED00C0A9A711E6361947751A95F256F84811C7D3678C28002015110900049475791
DEXENG DEPTABWA  SHOWSEARCHLIST      LANSA     XHTML     000000000200002000000000080794F03F86936C0A381AB73AB355E36AEAF07EFAE3E0F4EDE355AA8871A7F345044D04630C323CBE51869411460A904E74D3045D4A7014C7E06B842543F277CF3410E011F008C69B9EF007E42572E9BE99C8D6879A426B11D1E2992B26D0C27E824885217FD6E6EB73B8706A7CAC3908B908FCB0CA4E2553125E398F9D4D361527B2AC819298F3B0D16136007CCD6682819B59029A3C4D9440C46EE0A6E731533CB3858B195A5A9322DCBBA95534B6E8E1C0F659ED7DBE22E56E44080F44FDE0DFFF8B852180433B6FCB145498AAB62E6230F5543EF72E504ECDF42242C1CEAA4662302597194F80C549A2D906B5D1C5F0E8E2DF3D5CEAB466B002015110900049475791
DEXENG DEPTABWA  SHOWSEARCHLIST      LANSA     XHTML     0000000003000010000001000954C587852C874232765D1D76C345AC6AF45E6E63872F31AB0BFB10AFB1B5F14B09C8B4B8955329944CA66999A3D8C8851A42F2B09EF73EE2457B6AA5E00255F52FCBC79CD5708663EE97F3ABD180C412B28B1F8BB6CEDF91B1563E62C04AA435109FB6F6126E6E1666EDA256C2751D00714F9377E18AF1741D978361E03C3C318335A563DF5A359F2C04959F87AD8763161510CE6A6F73512326755FC92BDE1938B69E82872EF651C509207229598B502B5F2CA2987AC3ADD79F20BC0AEC7803A6E9823ABBD66A49C628D01A6697CECBA6B0811DB7A25E56531CBF2FDC3F07A685D5F5F9E7D56D3F289927D776FDF2C89AD4D3CF6AAF0C0DACE002015110900049475791
DEXENG DEPTABWA  SHOWSEARCHLIST      LANSA     XHTML     00000000030000200000000001025E77FD91532394B002CF37735BB80E055B87B7639ECBF3F1B70DCED3CB52B36B73B9D57EB7818DA4B281FC30980443A0DDFD7EE9AB56AA5D3112657E38C5FC9F6CD078701FC2412968BAC85DF329B1F5CEBAD0DC905CEAF07BA0CC2B34A1DA2B23B8AA200DB6136EAC716EB4C346389CC7A447EBCE085703DB683E4FBC4D681F9F74B5E0BEAD7170F437E1840CFE4EACCCB68C9EE2AF150561F1E661CDAF7ECE972534BA0E88EA132E72A537C478D7FD9B776369AD7E159D0DE51E4FA09D343CF7A661D2780DFBC1766ADF19161FC12D083173727A7C7C3E31B19FC77F4084CF196F8AEF50E2C08A194341B6D068E1318FB7BAE140264B869002015110900049475791
DEXENG DEPTABWA  SHOWSEARCHLIST      LANSA     XHTML     000000000400001000000100050B7FDB1FFFEFCFD45BF7FC960877AA5E7300D822FAD83F535FAF2E597093D507411F99AAD503CF9213B01C86C209AABAA3BDA6D0D712CEC697F82E73C3BD1A1E223809385555BDF72B3B27E8C393B7F09BBA41D6B6A2BC356CF47A11F2E593A6FBCEA1A2A59E1514A7CD8ED655870D9DA5155B610C04EBD440522F94AC5A62822653152D67E4E7194FA3AEC59134CCB3AE5BA87116D6E2CCA98166B159B1B22868DD7249AE94E9442EFF602B69556B1531E52C6A9C03925520BC6A97B850E7A3687B2CB326E499DF240190C4F076717672743941B2801A464FD0B3B398D88862C3095035D1C0005CB7B18836C8551763C0746E3E16107B167B3002015110900049475791
DEXENG DEPTABWA  SHOWSEARCHLIST      LANSA     XHTML     000000000400002000000000041E60F288278D8B1678E934C620605AA2E3CD71DBEDF704D213E85CB72A5A099079A7C5E955929ECF301A38E98BF294F557AAD9C22E46680FA24B018B8970C5875A880B266156B78277907189385D9979656517E49A866B966598BE352DD8AF3E854843AD194755D476DB15B8BC79235E489867CA6DEB2186107E71FA0CCF9994244EAF45784FC2C11727A3638F9D92284E9F45784FCF808295A00F14AD9B2AAB3669D7D1E4FF9E625CEE2949D0FEC0FE1A263DBF174D81F2B2D4DA51A54F61045CBC285BC6A99A355FB244395BA7CB2028D56CE95937EC7545958AF3515277DE4547985B9C65C05ED3A9341CD028D2F3B26E96990064DEAF949002015110900049475791
DEXENG DEPTABWA  SHOWSEARCHLIST      LANSA     XHTML     00000000050000100000010001B9C7E2CE3B4D9B04409EBB2C6BA871ACA23C1342521E2ADCB817880943B0E1D2F22274C2A769BF81682E7256292A15E66C529548DCA8570B3F58D15D26F31ED6327222E7BE03D37FB21FF42A5F7A9DFBFFADC10225855C64F761977EB20AFFFE43BFED86CF0428CB5F4D92FCC4A6080B1C8758923CAB4880D301DF3115CAED3F2F3FD22388183018A526FAB8E6836724A365F1D3671C0AEA091D273CDF895AE7254A35E246644FC2E4B6785F066C7DCE998E6AED9E9EC6C6D753A9D2A4031AB574F1A08E61D02D7B9E8D5E61653B437A5D38F5562AB27EE8598B5A43829214C4E34F3E6CFEE452CAC25A8FE18B088B8B504D51D60B5ABF1D82E002015110900049475791
DEXENG DEPTABWA  SHOWSEARCHLIST      LANSA     XHTML     0000000005000020000000000DCBF96E0550E50A269913C01CFE517D9CDD31C9657C202C8ECFF93FC2FB5834B5CA2299794781C3969A2A1FC674FD34D7004BD67B780B0CE38B0EFBB284B367D1444CED783390B721F54F77E76A75F78B438B1E8DE46BEDBEC80C2C6BC1CD563B26A989FAE4C5749B6B2E66114625038CFBCD245E30A893228174A9C93B07A333A52AB36E572BB2464B17E75C3FE7402C13B8DD204B3A33A8E92EF193C7E60435730C4C3994587244B69952AA5399158EB086210139D3F8905A3846D0E2CA838FC2690BED483B0327C48BEC40859E91C18E6AE318202D91AC1E22C73B71D8793AC86E64C50652F58F182D8C9EAC63C782AD0BF28700CB0C45C62002015110900049475791
DEXENG DEPTABWA  SHOWSEARCHLIST      LANSA     XHTML     00000000060000100000010001B761511169971ADF3B582FA51076DCF9F21F5AC0DD381F0C0478283C8769BAD0346F29D4766EA3A95B3B362B4062AF98BF2A6BBA2BC76179707793DB9AA3A90848F280E9695B1CB33EC61EBE0C5EA3AEB60844FB70ED1253E7E1D9576A7A64F516F434AF72125F13FE6E8F9F933822750756262C966553DB27DF927A446668BA48BF65EC213CA6F51BA48340B60233D1AE790B151DCB31847054B7E49B29CAFB84B11CCCA45482DA77A5922D8CA171DB59C95FB10066F087D6390F0A487E8A5346765FE03EEBF7EE585360481B5EA1309CB6C3343801371CD1598384AA8BBC3C9BEB2597A75845DAB44F5D0BBF9C01EE140E6677EBF3D66E740002015110900049475791
DEXENG DEPTABWA  SHOWSEARCHLIST      LANSA     XHTML     0000000006000020000000000D7D7FF3CFBA36376CCEA7DF09CDB941B582122ABD2047FA3258E5070E60236857A7BC97550D271F1C57576ED01F5A9678713DE59F00AD34F7EB703DF1D82199BB2AC84D2589480720565040257DE05389C5070E7366CAE10DEFC87BC45C9B924DA2DBE62CE97F7AD58CEA3EEDDFFF71F41BC49FDC03DF74942D7F90C22EFC6C2740AF650157910FB82666EFE43AC5A31EB7E8C31383BEEB30FB09EEE2380379F86C3AB4B0B3AEBC77C8FF15417F1F977A037EDB6B1EE375B02BBD82761962880DA31F16F41EE8F072B6E2D2F8A128958DC2B1E0EE59522A7EE99A5FDB5EE53B10DA9DFA3E1B93ED4A46439577BD5277795EF2337D465D732558C002015110900049475791
DEXENG DEPTABWA  SHOWSEARCHLIST      LANSA     XHTML     000000000700000000000006054DD152BD693E1B6E8132DF18A99520457D9D473112606E4E7FD30F21F00                                                                                                                                                                                                                                                                                                                                                                                                                                                        002015110900049475791
