DEMENG DEPTABWA  SHOWADD             LANSA     JQMOBILE  00000000010000100000010001F8B0800000000000000C556D14EDB30147D47E21F3C6B5287363749E924880813834E48A38068A696A7CA8DDDC69AE344894BD20DFE7D769AA629A5015624FAD0A6F6BDC7E7F8DCF8FAE85B16707047E38485C28156D384800A2F244C4C1CF8CBFD810EE0B7E3DD9DDD9DA30F0881FE4917CC3F3638EB5CBB27DFF508025DCC84A4020B8F82700CC68CD3627E77270FEFD3511C4E2513D4063D3F4C4F085169C5A4CB029A481C440AB5655AFBC8B29069B956DB6EEFDB5F0F3E5B966D9A00A1398F2CE1B68CB148C6611C3CA69E797C4A288A6932E51245311DB38C260EE45A664A2050BF22B1F55F07FA5246B661A469DAE40A0F37BD30305A002013110100343588231
DEMENG DEPTABWA  SHOWADD             LANSA     JQMOBILE  0000000001000020000000000A6D93206DD0BE3662AA42286CEB0C48BBC94D466F52E0C25945389CE68C226A2485BC949F79B613C31ACC3C34323F365C017D84AD7C6408DEC2E34C3E53EB0200A63097CA5D3818924C3DF749634D50C04C6F1A6983B1C33AC583E1BE83342A8A88B2234927894E221C73365EF73804C44D5A0224C25AA611050E9876A7F33BD2561C024524F88508FE318CBDCE3194DD6CB1330A1584A078A700556D220E258521060E9F90E34E08297873947E5B4C0015505920B28C81BD5FC1A445D4636D1F551075D2A2FA352267D1429594111A2BF214828A79E12D2180C7AE757FDDEE979A3B29B6B4977984F2B59CAFA4F8D31A39CA07CA6F1055480F6002013110100343588231
DEMENG DEPTABWA  SHOWADD             LANSA     JQMOBILE  0000000002000010000000582EA90084B14E1593724551639E75A061C8F287F928187236DD9230EC586D1C48B593E5F071EE08C533191FE7201AB2E3E2601CFF4CBEACEA2AA0CCC231FDF837BAB564AC2FED0F5858C354FF5E8285E02BD8DE1FAACEC762EDD6DFD2E71DECFEE25856DDD6E6FE376FB156EB7DFC1EDB34EEFF42DDCCE71DED7ED39856DDD6E99FF6FF7D57DCB7C85DFE552F586BFBE0B80406DB203BD505F866473DE3FCBB2C051C46768DE149345A7CA7D0052A952CD7F1E0F98EA827F3FF2948E86FD9B4B25E0613818FCECDC9A96A90EA6B9A2CA405E0F2AE3E906508435F61E20D024115705AB1FE66B96EF0B54D723BB7076156CE52C2FE1D6FC7E2836F5002013110100343588231
DEMENG DEPTABWA  SHOWADD             LANSA     JQMOBILE  0000000002000020000000000C58A7A37A7E7EEEDF552513950AFA808DBA448DF4427347EB1A2126E93A2274AA11858DCC8D4C83F00                                                                                                                                                                                                                                                                                                                                                                                                                                  002013110100343588231
DEMENG DEPTABWA  SHOWADD             LANSA     PPC_XHTML 00000000010000100000010001F8B0800000000000000CD95DF4FDB3010C7DF91F81FBCBC14B4B94928932022204699904607A2DD8027E4C6D7C69AE344B643DB4DFBDF77F9D552B6B668E3617D6873F6DDF973DF3BA74727D3449247D046A42A74FCB6E7105051CA851A87CE97C1477AE09C1C6F6F6D6F1DBDA194DC9EF648F50948F7FC7A70FAA158A1A4C784B2A0988A80A423321212EAFDEDADD2FD16863ACDAD5010907E9C4E4E39C7B07A7320123096251966DDF3FC0EF57DEAF9037F3FD8EF04EF0FDEFA7EE07984D28A636A646035536694EAE439FA34923907AAC1E4D2D24CC3484CC1848E2CCA9C7087E0AF324161864E6C6D16B8EE6432694BCCC7DA519AB87B9E002013110100343591351
DEMENG DEPTABWA  SHOWADD             LANSA     PPC_XHTML 0000000001000020000000000B7E7DEF52EDD9B5C5904A35D66591337E16BA3FA972E162AC1D22E18315675D852CCA4D34EF5D8F50F0F0FDD696C13D9E4C6BA563A1699074DCDCE42079164A9B624C63A43C758FEF00D66A68D3B0E718F57F93C322D1852AE75E49059369CB007C966D8B84D3985CA5EE264610C7AE1563B627E8C2609D8384581A7852669222CC527CA21924C335B367906E6F7F924427150367454BA94D6429249668124CC4671E8B84E43163129E97C5BB1047042CA3A6B7CF769FC9A8CC51C05BC1890228A8B4782B0A668B8E0C854AE96D2103BCB60BEDC78E516A67864057077F7E9FCDEF33D1F0BE24BA611DF717FDFC163A712D4D8C6A5F5C8648EEB002013110100343591351
DEMENG DEPTABWA  SHOWADD             LANSA     PPC_XHTML 00000000020000100000005443FB0E73BAD9100C969B9D47A475AF3E8D6EECFBAA6351C2A4F86A01720FD9BB38BC1FD750332372B107F99C4DF8852C72F505C54AAF8B5C5189261AA39E8D0C1FB1B819419E355776BDB642C2AED0E02E449C2F42C744A65ED30E5B3F24197DFBCA9276259312FF37E972C145F4C06244438294F386BDF9AF4E2EAB67F76D1DAAD3B0B26D2A2CA55935B5E1DF55CD1AA937FEE6B9D752E6763D6722EABB951CC0611C54C5514333546670D36D78A08F39549C10778FC8E8D85C108D2DA5D66776BB55E47B3E22DDF3BFF3C7855C99AA495620BEB2F2EC282EFFFD1AB7BDE3FFB57BD9ECB55E45CC85559955C7BDE925E85B949B00AF085825DAD002013110100343591351
DEMENG DEPTABWA  SHOWADD             LANSA     PPC_XHTML 000000000200002000000000010CC9D5F4FB7BCE7C5D350AF7CBFBA4BFFEBB8F60B00                                                                                                                                                                                                                                                                                                                                                                                                                                                                        002013110100343591351
DEMENG DEPTABWA  SHOWADD             LANSA     XHTML     00000000010000100000010001F8B0800000000000000ED586D6FDA4810FE9E5FB1B7D289F454C72F9857013D82CDA952925681B6545585167B13F6B27E91BD0EE4AAFEF79BF51B988690F4D20F558F0F0866679F9979F699F142EFD5DAE3E89646310BFC3ED64F348CA8EF042EF3AFFBF8DD74ACB4F1ABC151EF3745411FE8029130E4CC2102BC511759F6DBE9F0F4C3F01C6D5E8AB2E51E0589603E4D17BA68B20C5643D7DD761A459408EAA2C51D4A621A81D3E59BD3BF50F5557A4F99476341BC305FE82243D3EB8AAE29750DE966B751EF6AF513D36CEE6E5EC7BC2B22E2C75741E4ED96BB7678E25225A271C2851246F48AAD69DCC75C52B372F1D14E3A60F6E3AE5CED002013103000353034901
DEMENG DEPTABWA  SHOWADD             LANSA     XHTML     0000000001000020000000000E3A51061575557ABD509077872E2049E6A689AA1CECECFD4CBC41790B2621141F6C0ACDC074126672AF0C8A9502C1AB36BFF7E940AC4AA7E1244D7AADEE974D4F552787C4F64E064EF3E19775AF085071220E59079611009B4048EFA3816EEFC86DEC527B08291FA80D72D8918812A0EB8BA341464B122734EEE40388771992FE8358D0E3B2E1221027F7E6B1C767596E411802EA83664CECD63824B5F2983C7FA5FF1803CA2F87B20F7B25F29AA84048EC344208F8A65003204596014784C28F04971A9C34994767A1FDFD1F8DBB98098EF525FF4B11F64D1654B74A15A32C8159759FE8E61583008D0688D34636C9FB61ABA6ED64776BB6DE9002013103000353034901
DEMENG DEPTABWA  SHOWADD             LANSA     XHTML     0000000002000010000001000DA48379BB631323BC6291E7CFA82AF18E52EEEE2D96C6859F6ECF514BFC4B78427146C17F8EBE79E5A82EE0B33D61A9DF6B835B48DA139B69A9D8E6559667DD8D68D71ABA5370F86B11E15A6A3995AC7B2C7F5717B68DA63ADD3ACB75BED76476F98F6E9B875B89A8FBB61F22F1983E52909EA851C24843C229C651FABB84C482E3B8473A5F4F189476172A5FD53CA47DD867908B90CBF09E1B25B044288E58C612E9C371EF45430960E698531154830C121B64505613C463039904F57C8A221898407422941532EA1717DB7809632CD2CDB4EA81787C41F5C54505011A0A7A6AB5B986A06B16D5A443909F97721C7105A04914BA33E86E9EF50002013103000353034901
DEMENG DEPTABWA  SHOWADD             LANSA     XHTML     0000000002000020000000000CE01C749755DC7284E3C8F44777D9C2D85C4CD24AF551293488BC0BDDBB545D2D013790A3D4E169417353A2494CD84253340133C3ACFED8B69F530536928C1158A29A70EB416CCD7E35A4AB192EFAFBD44B56273ED457E6434762296C3E7F5021B327A9A909A65B4498CF9B2F1A58ACB3C8A341341D7021E19810F43C3BF86138DA84822D07CFC9E70E64E61F91889258B2191DA0BF0F4C89A53FF5A80824C2090FD43D30F991437F84728ADAE8FBF6C15959AAA257DCD4BC8B2867720F5A9CC5AF664F4DDCCCACDCFC46C9A4791E67F21D6D00A66E5A70DB55980C3D46635DD476D45C0EAAEAAC1223BA6A4522DDABDB454D61F6E0C54B5B9DF002013103000353034901
DEMENG DEPTABWA  SHOWADD             LANSA     XHTML     0000000003000010000000558D88AC3BA6FA6551EE3F8BEADC5EE15134B05C605F1F2AD2BE68AE5DCCD2E50A5006ABAA6FD5EC395F970182B4E16F084B4D7709B1CA7546C00DDC049E4843A86D353FFD80CD3CD88FFF42708A376E83158FBFCD4A4801307AEE537F355240D5B35C275FB923A30EEAA851E1D842C7BAAD22FC5454ECAEA7C3A9BCE67B3C9F0BD0D6A7D62C6D5341DE80902BC05801B063193918F5F408CF9D9F062329C1BEDB669EC0D923DDF2A9AF9566DEA3D72FB852578E08AF4F34970F4E6EDC71F2EC396D1D0FF97E1F3C9F0D015FAE793A1BCE2FF6819EA46BDD9F83564F88CA773694FDF5D5E9CBD9E7CC7F9EC5795FC4B6B42E50FEC33168B27F7D053002013103000353034901
DEMENG DEPTABWA  SHOWADD             LANSA     XHTML     00000000030000200000000001F83CD66EB990F7EE712B87303DCBEFEEDFE8CCCBF17FF120D8EFE0500                                                                                                                                                                                                                                                                                                                                                                                                                                                          002013103000353034901
DEMENG DEPTABWA  SHOWRECORD          LANSA     JQMOBILE  00000000010000100000010001F8B0800000000000000C5565D4FDB30147D47E23F78D6A40E6D6E920212447413E343A051406951CB137293DBC6C271A2C425ED56FEFBEC364903A50156A4F5A14DAECF3DB9C7E7FAA6073FC601470F10272C144D6CD54D8C40B8A1C7C4B0896F3AA7640FFFF8BEB9B1B971F08910D43D6CA1F9C746C727D79DC39F3A42508B32214150E1020A0768C03864EB9B1B337817FA7138924C808DDA7E983AE086B1A732B3F50E0B209134881471C3B4B6896511D3EA583BF6CEB6BDBBF7D5B26CD34484CC4B1927DC963115C9208C83E7D58F5D3EF280C4908CB824510C033686A489B9569A7A18A95F91D8FAB6897D2923DB30D234AD73C547EB6E002013110100343585731
DEMENG DEPTABWA  SHOWRECORD          LANSA     JQMOBILE  000000000100002000000000018180DD36C18BDD685E18C84548591632A699E977A9559ED0B4369E520C931246C28B2B42739E9763D8C8786B5BFBF6F8C7D19F09C5BE95A09D4CC9D5C335EEC030BA23096C8573A9B3891DEDD3D4C92BA5AC1C8F8BE0AF34063465595AF027DE67920AA501E4492F6537AC7E94439FC1A2113511994C154A20AA300A41FAAFD1DEB2D09032689BA221EB89CC654CE3C9E40B2DCA1880955A56C62113EA19510449C4A400195AEDFC406CEEB7229E7A458163400D520330159F14639BF8251B791EDE9FEA8A22E9417A894499F444A569041F4374609707095905AAFD73EBBEAB68FCE6AA5DD5C4A7AA07C54CA52D67FA90D18708FCC566ADF50002013110100343585731
DEMENG DEPTABWA  SHOWRECORD          LANSA     JQMOBILE  00000000020000100000006928968AB8AC963892A78D20ABD7215B39A2B2BE0B40FFCC50A5C1A69CB9ED5906D18246ECC66EB55E4011D731043E92F1E6055E1632FE0637D583B93A82C83F2C8A75334B52AA524EC372C3FC858F25447FBF182E8630CD7E3F2F8A47DB4AEDF05CFFFB37B51C2BA6E37CC7FB7FB6ADA30DFE177F1A86AC3DF3F1750A036B989DD50BF21657D3E518BB6A051C427643E26937C76CD7C4052A952AF83391E313517FF7CE629F4EFBACEA512F078D7EBFD3AB9352D53B5EA5C512930EB0795F1F248C860B5AD478C749184AB86D517F367E6E76507AB17A69D39FB94ECC9E92EE896FC7ECC36F5CD8ADACED159E7F67AA1A808542BCA60AB14E9BF27002013110100343585731
DEMENG DEPTABWA  SHOWRECORD          LANSA     JQMOBILE  00000000020000200000000004388DFACA8A05B57D1B5737E7A7EE13897B9A252A04A51015BA528A2EE3D78536B776A4EEB6F5255A25CDFA7A31BC7B9EA2E6CCAEFAB5D9AA33ECAA49C6D5D357A5EB54E2E3BB99AC57D959A1CF5318768C1B64ACD0BC3270BE4FF0A55E42F00                                                                                                                                                                                                                                                                                                                    002013110100343585731
DEMENG DEPTABWA  SHOWRECORD          LANSA     PPC_XHTML 00000000010000100000010001F8B0800000000000000AD56DF4FDB30107E47E27FF0F252D0E62601268D68D9C48089693050DB0D78426E7C6DAC394E643BB4DDB4FF7DE7FC68091B05B1F5A1C9D977E7EFBEFBCEEDDBF7F34C925BD046E42AF6C27EE0115049CE859AC6DED7D147FAC67BFF6E736373E3ED0B4AC9E5C119A93F11393ABE181D7C702B949C31A12C28A61220F9844C8484667F73A372BF84B1CE4B2B14446498E6B30124B9E618D9EC8F4406C6B2ACC0C43B41B84BC39006E128DC8BF676A3D76F5E8661140484D21ACADCC8C86AA6CC24D7D97DF4F344961CA806534A4B0B0D133107137BD2553AE31EC1A7329133632FB5B6887C7F369BF525E663FD24CFFC002013110100343587761
DEMENG DEPTABWA  SHOWRECORD          LANSA     PPC_XHTML 00000000010000200000000009D20D8F1AFCE4EFD41A92C02A347CCB2366EC6D7460D4F7DAC5582A54760C45435619D98D96E3FD7533FDCDFDFF7E7A9CD649B1BEB7AD0D1651EB5357B2B1E4456E4DA9214EB8C3D63F9CD7758983EEE78C47FF790CF2DD38221CAB58E1C0ACBC6337623D9027BF7584EA18AA7385998825EB9358E981FA3490636CD91E0B9E324CF84A5F8463924926966AB262FC0FC295122140765634FE59DB416B242320B2463364963CFF75A640993922EB715CB001552D5D9C0F7EFC6AFC9E8741471271017C5C52D41B0C6355C70C454AD56D410BB2860B9DC7A9516E678640DE0EAEAF3F17510062116C43BA6113F707FCFC363E712D4D4A69575CB64002013110100343587761
DEMENG DEPTABWA  SHOWRECORD          LANSA     PPC_XHTML 000000000200001000000063489EB3FB1E75BBD8900C969B5D47B457ACBE8DEF6AFA6A6353854998D41AF800C078727A3EB8B16C8D2AC81845D24E1A3509AF86740B9187CFAF8E97430F85243B963D65076763B509CB90ECA32FE59AC1C7E1D0CCE2F5B525AEB999CD4E14FC2D15189BB58CF8EBF8C6A182BEB191A698357207C54B07B5A773D90315ED2A0630FEFD504A42C18AFA7AEB14DC192CA46D24D99654C2F62AF52BC1DE77C51BDE8EA9BB79524AC7073BC9CC30A0AC5DF0C0312129CE03B301BDF464127E797C3C393DE76337160122DEA5C0D72CBEBA3EE735973F7F7796BB22E65DE9A4D4BBB1D7D54E42D4424335749CAD4149D35D8522B22CC3726051FE1F15B002013110100343587761
DEMENG DEPTABWA  SHOWRECORD          LANSA     PPC_XHTML 000000000200002000000000036150623486FBB8BDD6FD8FA3F9CB9E61E1D0F0FFF95B2FBDA733957DAABAD661683EE2C068FABAF06F844C2CE1F20CC5FCACDAF74EBDEC6FAC17BDCEFFC7FC0B5DF00                                                                                                                                                                                                                                                                                                                                                                              002013110100343587761
DEMENG DEPTABWA  SHOWRECORD          LANSA     XHTML     00000000010000100000010001F8B0800000000000000ED576B6FE23814FDCEAFF066B54B2B4D48803E5968C5146655897646219D22AD56C8C406AC3A0F390E815DED7FDFEBBC9A404B1F9A9146DAE5439B5C5F9F7BEEF5B9B6D3BD5CBB1CADA80899EFF5B466C3D410F51C9F306FD1D3EEEC4FFA99767951EBFEA4EBE89ECE100E02CE1C2CC11B75D060F8C5EE7FBCEFDFA0C79FAE97DC851F49E6D164A083C64B3FB6A8E30B52F6BB12144B4AD06C83A2900AF0B33E7FFC1D557F85B7CD5C1A4AEC06D94007B5CC665B6F9A7ADB44CDA3CE71BB63B61BC72767DB93D721EF4881BD70EE0B773BE3B5C323427541C3884B3D1074CED634EC695C5527265A6D8B0E98BDB0A346002013103000353035991
DEMENG DEPTABWA  SHOWRECORD          LANSA     XHTML     00000000010000200000000007BDA52CAA06318711C3738C0E386E3BB46CB345BC6E4666458912781B23EC0123F031393BD20E39101A5E454EA031AB285F7344A05226E377CB1309AE7E7E7C67A295DFE4C64A8C9B3F3545C3BAF9776A100921A3237F085444BA8514F0B25993ED04DD880110D197BBC5658300C59BCE04A6820F12CC6538E37A09D97719927E9828A971D9D257E8517012906CC79780DA2F2556BFB5AFF39F7F12B327A0B2454F57579CD22297D6FBA6AEDB8429583482297CAA50F42046168C87799D4E14927D4E15824EDDED33634DCDD1CB685C53C423DD9D33C3F89528491D40D38140CB9583ACB9E66A492CA871DCCB95EF878D8A5D07C89040AB24619002013103000353035991
DEMENG DEPTABWA  SHOWRECORD          LANSA     XHTML     0000000002000010000001000661FB26ACB0E51FD5684206C85209350B50923C01086BACC538967662F72675468486E025A3801E49A536F2101B6D5D650C8FEA2C9539E754AF48B75FDE97A6459B71A5A611E81E56F688A83FA9C514EF4C454FF80EA855BFDF09F3CAB8C5F4A8541FD2793AB3BCBFA7C5F89DD3CCA63ABA70AC5EDFA67941E61F631CABD9E23542D468AACF6FC9BE1ADBD1F39F7AA22770D5888E22599125208C32407208BAE188D3FA0BB407516F2051A50D8F628FC0BB0902EE80A1E25663C6C6865B21C76008FE42BA9E49E5ACA4EE01606D8BBD8C542B0C1A13F522D25FC757F8E4288EC808C77732BA5A632437FA25F7F6E9E98BFD5BA4612A0C4CB4869002013103000353035991
DEMENG DEPTABWA  SHOWRECORD          LANSA     XHTML     0000000002000020000000000944D3351ADB3547B229AC19148454F83A3C8A19C038E93B498925CE4BA586C7A5A3A146092769F594D0E90663ED96CDB8432746546A1CBF18CF2BC4E0E0E545F6B2AFF745907C3F155B52DF7D5239B9FAFB69A5C3FCC9A8F868E60197C962F5443454F081929A347628FFA2F78E434255D4B50B9EFC146E72D402682CA487888855F3167C486E10324972C041EB024B54ACF9A45CF9A65FDA6016A2F2A38CD2957704A1BFE8AAD321BDBB5078B5AD747D9E7522F2C651D742BCEFBD712556D64C786F66CA89583407B6A6A3E3B6672A943A360379B1A33229753925E400A35D49BA6F94BBDBA75BC8C05E11DB8443E4C63A10CBB5BD893BF2266002013103000353035991
DEMENG DEPTABWA  SHOWRECORD          LANSA     XHTML     0000000003000000000000430BA3DA4F7C86AEC4AB73F19BAD07C45CFF9DD442DFB8D3DB1A793C9B8FF759836F85B327B473A0E081BCB83BA0FC1033F648ADEC12110998EFAB7E3FEB4797E7C7AF22C93F450ACACF5AE4A8C2764F2DF944E7A9E7C67E90C86A3A1FD8388E7F4F4ACF57626003B6770E92FE24811D183F7C2D8E906FE9EBCFA8222B803C221983DC418CE6DE923925E0CE4B27C39E8C0290E85D87F1DA9C11B9CD997FFB7D4B76929F54D3FA6EA3364C442F9DD9ACA1ADA77D6EDE87A6CFF108DD56EB58ECEBFB184B62E165BB78AF29562FB53287BCF3FD62F6AFF0200                                                                      002013103000353035991
DEMENG DEPTABWA  SHOWSEARCHLIST      LANSA     JQMOBILE  00000000010000100000010001F8B08000000000000009D555D4FDB30147D47E23F78D6A40E6D6E123EA41151D0064C48830DD122CA53E526B78D35C7896C97B41BFCF7DDA449081452B63EB4A97DEEF139F7C339389AC792DC813622513DEA755D4A40054928D4B447AF07DFD8677A74B8B9B1B971F08E3172F3E5822C3F3E3939BD1C7CF99AAF3072C185B2A0B80A802413321112CAFDCD8D027E03639DCCAC50E0937E94647DE03A88CE85B1185D6206220663799C22F9B6EBED30CF63AE37F076FDDD1D7F6FEFA3E7F9AE4B185BCA991BE95BCD9599243A7EEE601EC859084C839949CB520D133107D3A332779B8594E0AF327EFEB747236B53DF71B22CEB4AE4E3DD2089002013110100343559011
DEMENG DEPTABWA  SHOWSEARCHLIST      LANSA     JQMOBILE  00000000010000200000000009D6DD7DD768617E7CED54C5914C64EB8E5555C16B646F5CF1DF42BC1B2133062AACAB02731D94E37D153C7DBDFDF77E6918D65C58DBE5E05E6CC83CA337DCC8388D3445B12A1CF1E35361CFD8285E9E20E25CEE16B983BAE0547956B81910843506DA81052CBC7191F49BEC02AAF2544BB2389B57F23701D4C430ADC825E87132A6D8A2B61281897490C364AB0AEF3BC14492C2CC327164220B9E6B6E8AD0598D5E9204261766C8FAAA4A6CDFBCA0FB1610EAB3FF97868C5E548844484CFD2301A0E8FAFAE4FCEFB8352FDBA9051F4F6902A39FF7EC8F300A769AB9A40885389F424E636887AD4A155F6032E25ABB7158F01C7AF688F8AAE19DF002013110100343559011
DEMENG DEPTABWA  SHOWSEARCHLIST      LANSA     JQMOBILE  0000000002000010000000572C2589FDA4A5DD7B74665C2462CC5E2C52524FFA6C4808400CBD5190EFB673F6FFAC7679D46CFAC04DD71396B44E1607DE84C04C890153B9D4FA441B4D5C6140A8382171749D85451686E5520F918E48B0A029EE68DF94C439930308116C57E1B79CCE712D4D4468F07786D781DC6729E5F858345DAB4C1651AF17B72EFB55A31E237AC1EE4ACD4345F1DEBFF6D1312638A7B3448F25792ED2EAFAFBA2D789ACA055BDE0DA61AD8A20AC4A227BC7B97F8621CFEBC97198C4737573F50FF034EC4F7D35BD77351F9D25063A168078C78B9434A5867EB81925C2493D8B0F9C3F2CC2A7DBB14DF4E7E59D7A7644F8A5DD3AD14FBA14CEA9B1DF5AF8E002013110100343559011
DEMENG DEPTABWA  SHOWSEARCHLIST      LANSA     JQMOBILE  0000000002000020000000000CF06B7978F8EEA85764725EC3547F9C53205FD664735DD6B8E5E688572A17A21E2CA5F00                                                                                                                                                                                                                                                                                                                                                                                                                                            002013110100343559011
DEMENG DEPTABWA  SHOWSEARCHLIST      LANSA     PPC_XHTML 00000000010000100000010001F8B0800000000000000C5575B6F2237147E5F29FFC11D5582A835C32459A9A121DB6D609555C93602B6C9AAAA2233368CB51ECFC836015AED7FEFF15C3C0CC9906CB35279005FCEE53B571FCEDEAC6381EE99D23C917D2FE8743DC46498502E177DEFE3F41DFEC97B737EF0EAE0D5D97718A39BB75728FFF4D060783D7DFBAB3DC1E88A7069982432642899A33917ACB83F789591DFB0994A96864BD6439328594D18516134E2DA00774133E531D386C429083FEA06C738087037980627BD93E3DEEBD73F0441AFDB4518E770D65AF48C2252CF1315EF5AB00EC59232AC985E0A8353C5E67CCD74DF13D6DA15F510FC4ADDB3DBBE171993F67C002013110100343572601
DEMENG DEPTABWA  SHOWSEARCHLIST      LANSA     PPC_XHTML 00000000010000200000000007FB55A7504C8239D3089FDA36EF7C8BFBD1AF9E3A534000C0F882125DF8AEEE59A8C7CB0573083074CF3852CD86A3CABE34EA2167E707A7AEAAF23138B5236D8D54868254F4B9BBDCA0F3C4E1365500476F63D6DE8DD67B6D11DB8F1907FDE44734F142780722F2165A921B315B9136403F17B4A2697E973880C5B3055911584201FB851CC4C948083D7D62749CC0D8615A62C144411930579C3F4C334455C52264DDF93494DAC61712A88612826268CFA9EEF95C842220476D792C40C3224B3B380EF6FF3EF9168F3A8476D82582ECAEF1180D536E09C02A6EC34730D329B94B9E3926A69D81A54E6006E6F7F1B7EEA06DD000CA2B5ADE67FC3002013110100343572601
DEMENG DEPTABWA  SHOWSEARCHLIST      LANSA     PPC_XHTML 0000000002000010000001000FD89076AD782C98589B2DD3D114B38FF0762DE6ECD3913146747AD1F51CB71B70EBF1436EDC12197F18CA90AC8647C7139FD745D0271DB1C485047123C09A5E0AFA0F8E029FB6B6C1AA259A228537D0FEA376442A484E6D12DF63A2561B63F0600CB38266AD3F732CF9A594237D94265DFB4B42724A9CD1717EF0C0B86FEA499602164CA16CE82B6407AF9FBCDE4E2B275584496E950F15C5681DCD05CD5AE47F3483E1ED742AA7367B92DDC59F7E693CE2C218233131946442E805831B3541271FD07119C4E417DDB445C03076A1DD6B1FBB9B77CE73D3F0B835DCD5455BD244DC5C6158976AEAB723E5F0968E5BA5AFEF94B663500BD187F1C002013110100343572601
DEMENG DEPTABWA  SHOWSEARCHLIST      LANSA     PPC_XHTML 00000000020000200000000008C26D3D65F1E34DEECAEF44771F35F6BEDD97AAD7450CDA580E787624B86763154299237C582C044CC927B2F32BBB1EC7640743A55D0016F4434867EA620FA9538573B5B4DC6F6D485E2F46EA5205AB680F3042B78B26367209F23082358F2BD58B1D91DCD1EA8BB38A1CC911063149F2D5D4BCCD478E7BB6A0A5EFB38E6C1737C2E9C7C5E95F70ED81D907921478CE475A54A72EB541C15B7B5BA4293E960321C0D2FA66580C3442C6389AD10681405F82D2A4BA3596A5F91449DE7597EE6D70FFD0772F2D2881E4360279CABE187FD002AA26FA8DFA91F0C27174FAACF89BEA1FAFCA140D7E3F7EFDE8FC6E30F0FB34B26A6FD20C30E1B534C002013110100343572601
DEMENG DEPTABWA  SHOWSEARCHLIST      LANSA     PPC_XHTML 00000000030000000000004469B8D8004A45C43B16F7A3291ECE7FD49D564EF16A6171BEC5AA4CBCBB25702178C60989130C22A5935748FA60CCD8AFC01CD561B2CE534C86DC8BB6DB18EE4EBA43E924EBB523392E74BADE7C8E3622B9A06B9553FB08D111C8EB36DBB95B587C4BE88D98AD9FE589F01EA31B05D1324E43989ED144D2059771EEC6706CB8D2F6E1828C5D4E2F34295DB81DCAFD1C5EE098DCF5058C6B859E1FF59FA5F31C1962F6B9936F62FC2BA7DF8A5B39572B577682F653EA81D1DD72635BBDD7AB5B73DDA6E39E6ADA1B73E7E3DD2491E1BC95C2076069986C9C9AFFD3B86B37F0100                                                      002013110100343572601
DEMENG DEPTABWA  SHOWSEARCHLIST      LANSA     XHTML     00000000010000100000010001F8B0800000000000000ED5A6D6FDB3812FE7C05FA1F585D6E6D2F2ACBCE6BE3C4D9A689D316972685ED5EB3080A4196684B5B5912282A766ED1FF7E438A9428D9B29D34D72B0E5BA0AD45CD0C87F3F27086D4F16FF3A98FEE3089BD30E86AED664B4338B043C70B265DEDD3F0427FA5FD76F2ECF9B3E317BA8E3EE311B2A2C8F76C8B023DEAA0F3DEC7E1E99BCFA71F50FE47D74F147A1226D40B307FD34103379C0DB0456CF7D28B6981F88C608B62078DEE51126302C4FDEB376F51F14F4E3EF4A638A6D634126F3A68BBD5DED1DB2D7DA785DABB9DBD9D4E6BA7B9BFBFBDC03D8FFD0E2556108F43322DAF7D6EFB89837582E3C4A77A44F0002015081900654371431
DEMENG DEPTABWA  SHOWSEARCHLIST      LANSA     XHTML     0000000001000020000000000D89BE3B8ABF9CC4E334743F07F1077D8635773298D3A86319BCD9A3EC8B39A763835B65BAD6DE3E6C3A5D14F020A4AEAE716B524DFCC59C935B834C0663EA6FA398EBD4920D80A3CB39D66482646FBF0F0D098BB74EA4BD9B0AE4A42267928D7AC8115FEC6CDE04DA39050E4C232BB5A4C1DF32BBE8F9BF04633AA69EE2CE259A0E44A420747D41ACD2CD3B7EE2102D6C9F4028A2798AC238B081046D604AF2384B94D46179B77DBEB684709A561B001A10D81FFD5F4A69BCC1F422461BF44068688128AA698BA2104C29CF92E9C7A54875FBA836DDF223CB1BADA3D8E17131179818303DAD58250086561D87120BED8937884A5230FA4EF1FEC002015081900654371431
DEMENG DEPTABWA  SHOWSEARCHLIST      LANSA     XHTML     00000000020000100000010005E6CB7F7B6DB871787BB07BBEDC3BDDEF95E7B7FFFF474E7E2E2E2E080478164F2289EA6CF622022618409F5702C86C5F8CC73A88B585E604230D8C4F57CB65C6A41F0B535249EEF23DCD5EC30A016E43ED1D0141632F630019A56EB1FA9F6B950177B13973E99D46363F912D2C96C2B62363E019C39C79145E8146C8ACE42070B3E49A03271A71B85A118FBE692E13BCB4FF0494CEE7047C84B4752631B456B8B67701977A751F0670A54781AF9808B686A51DBED6A46EA36FECEB67C5FCF08026B0AD649D34D8487A14AA81699CD2A643BDE1D82588C19EE780E849C76726CC060FED6F2019CBA1A616E937154A551216F858F14713C7DC688002015081900654371431
DEMENG DEPTABWA  SHOWSEARCHLIST      LANSA     XHTML     000000000200002000000000002987735809F7A0D3CEA3B3AB75AED65EDE666F0EEFAF3E0EC5DAD81BAA8F67B0D85046DF9333C321D8E91264401964A70DE1853443DEAC3E43DC015A2FA39E69B0FB209F800604CCB7C07F0133872D94CE77444CB22358EACE04491946E633846677E98381040D3C8F3316AEF34B78F0D4E9C452397241F57D94985AD7C66C631F3A8ABC3DCD6549033521E7E1AACC9C73658AF5653126B29534A89D389189ACC73EEF63A669678B07033CD56655A967C6BA796DC1C401ECABCA8B7C93DADC88138E99FBD1BFEFE71AD3088696C7A6393920497C52C06202A47E0D5DA09D8BFB9485838944BF55A08B2A230F618B6D41B20D7BC3CBD1A9C9AED002015081900654371431
DEMENG DEPTABWA  SHOWSEARCHLIST      LANSA     XHTML     0000000003000010000001000577BAF6A8D753261E1712ED309ED840561BD566B18BFE6099CC1C9ED6BD8026AEBB680DA17053317E2524296CC2991B969C2A60F2362E459CC2AC3FB8C3BCE942DABE743E517E73F6F5FF3158299CFFA9FCE2F0743D00A2A2DFE2E5D7BF646859A050B81EA505BC2369C9B8979B89E997605DB59E8F7014CFE8D1FC6EB86503DF6C663607818634ACB8AA87E388B1F38290B5F175B0E262C8AC1DCF4BE4242EAAC925FD2377C72310D1D85CEBD8C034AB240A412B3D6A0565640659055A53B4F7E81DBD51850C50D73A425D88C1453AC36C034894E1D67032162772FA5BCAC6959BE7F18DE0CCD9B9BABDE67352D9F28D9F70F0EDB05B19589C7002015081900654371431
DEMENG DEPTABWA  SHOWSEARCHLIST      LANSA     XHTML     00000000030000200000000005EE51ED8D819A2F2FC2FBB422667018065FEAE671710BC0E777B57C3FEFBDE80E36EEBA95DB1BDDB6ABDDAC4C3D0654215194C00249269F0BE72D7AC542B998E30B91EA7FC4AB66F3F380CE02791B09C672DFC96D9FCE0926F6348CE717E33D065104EBDC864AD48FAC0AB7708D1CE280C7D6C059AB1426635223F5EF052B81E5B7EFC7D62ABC0FCFB256F04F59B8B87775EE043EBE4E8CCCB68C5EE2AF150561F2E661CDAF7ECE972538BA1F68EA040E75A523CA7C61FD69D958E66E5781AB4738A1C2F667AE869EBACE318F09BB7C4AC433E318C5F7C7AF4E2F6ECFC74787A2B837F4E4F60F56F89E798EFC082104A71BDD664E03881B1BF67002015081900654371431
DEMENG DEPTABWA  SHOWSEARCHLIST      LANSA     XHTML     00000000040000100000010004A214086DB1A759A1FFBEF2FDE5FF6FB570C76A85B780E12DFFFD238DA5CA32F5F7E99D023451791AFE90AC59317B08380D406A2C72ABBA3D9D410C7C2AEF62778CEB5621D2A3E0238995BB5F12D332B6BCB5808642F6197B4224DED68D8EAF928B4C5054B67FD57555F252B3C4A8907BBBD0C0B2E5B3B29CB1602D8E197A840245FA1D81445A42C468ADA2F288E124F873D6B826951A74CF720A4F5AD6519D3601D637D4BC4B0F19A8433DD0E1368E15EC0B6D2C877CA63CA381538A7446AC1387537D7414FE7507659C62DA9131E2883E1F9A077D93B1BA2CC40312025EB5FD8016A4834649A1CECD8709ACF6C88D91D8A1D1E5EEC991DD981002015081900654371431
DEMENG DEPTABWA  SHOWSEARCHLIST      LANSA     XHTML     00000000040000200000000000579AC587EE45A6CD0C136747F00300C2F4016E4BEA20BCF759BEF375C53884FE1B24C29E8E98126E3579995C23E1B30AA88F99BE25485D7CA61426606A84F7C93817BC18065870AF4AA97B186779273C09834CCBE34B492F22B4235CD35D35C1E97EA569C45A722D40EA7ACEB3A698ADD5A3C16AC210F36E4337557C5083B3FFF0065CECF142252A7BF22E4678990F3DEE0EC678B10A6D35F11F2E323246F01C42B65CB2ACF9A76F6593C659B97388B53763EB03F44888E2DDBD5617F2CB534A56A50D943142D7317F2AA658156ED930C55EAEAC972345A3B5746FA1D53A561BDD1549CF491536515E60673E5B49B4C06350B34BEEC98A4AB41002015081900654371431
DEMENG DEPTABWA  SHOWSEARCHLIST      LANSA     XHTML     00000000050000100000010001AD4A9EBC54D70FAA98CD37ACD1425ACC31AEB2EAA298F04D3840488B72E47E20152EE34B0DD909C31A9D8A9E33B089E978849867A9915A750352AF7C2F5C6375648BFC5B48FED9038EC81F7DCEC87FC0B95DEA77EFFFA734D886055193FD965DC8DA3ACFE93EFF863BDC60B31D6D2A7BF302B8101C9984AC416751A07C0D071B281B058A765C7FC797002030314A5DE561D51AF65946CBE2A6CE2805D4223A5E79AF19B5DE5A846BD4F4C89F89596CE0AE1ED567BB7B507FFB6F7765BED56AB55062866F5F24903C1BC43E03AE7BDDAC262F2F6A670FAB14E6CF9C43D17B391143B2184C90967EEE2D9BD88858D04551F03E611B791A0AA03AC002015081900654371431
DEMENG DEPTABWA  SHOWSEARCHLIST      LANSA     XHTML     000000000500002000000000066391E9BB9FB3712BCCE014A342D9327E0B9F822BD805AC0F252580099F57F92FF857670854B34E5AE128F433B893594FDEC6A7A1B1C41EFD96520AC33F2ADFB0E4A934D1FF9A1FDF568C182DC07E5BD9F5DEDE71ECD4F2C3A77A1E7D45BA0B0B12847F598AC1A16A72BD29592ADA87910061814CE32AF70D1B846A20CCAA5121724ACDF8C4ED4AA4DB9E32E0859AE5FD5B0379D40F04EC324C6ECA88EA3E47B068F1FD8D0350CF17066D121C9125AA64A684624D63A8218C444E74F62C128669B030B2A0EBF31A42F7521AC0C0F922F3602562DFB467BDF18416D6D8E6071667BBF190593B4B6E64CA56AB93A76D2BA310B9E12F42F0B1C032C002015081900654371431
DEMENG DEPTABWA  SHOWSEARCHLIST      LANSA     XHTML     0000000006000010000001000B190D8865546846566DCE87C2DA77ED441DBF367483D6BC374203CF091603FB49C7AE388917CE79199BA4EE5EC2C1FAD804AFEA2B8E9AE29AF9DE5E541564FAEAB0E24E1238A835565ECEA0C7BD83A78B1BAC93A18E1D3AD4374898F5F47A9DDA9E853D4DB90C27D4841FC8F397A7EFE8CE009549D9898B259558F6C5FFE09A991DA22EEA08397F084B25B940E12CD02D8480FC719646CE5F72CC649CE925D92ACE6CBEF5204B3721152C9A95E9608B6E245472567E93E84C11B42DF18243CE9217A21CD5999FF80FBAF5F79A10D4160AEFB44C26C379921C089B8E20A4C1C2554DDE1A45FD9ACBC3AC28E59A07AE8DDBC6F8DB02FF333BBDF1E002015081900654371431
DEMENG DEPTABWA  SHOWSEARCHLIST      LANSA     XHTML     0000000006000020000000000B3F39C9B9B7FF67E87FEA15DBE0F5E709B72032B44A4559AE0AF35C4110A4E5DC0A6506F2FB90E4A3A2EBFB84EAF3DA03E75AD60C23B0B5E617AF1BF2CDF738660C6BA2C2BA1341625A05C411181C095731F07130AEEDC85CD15C29BFF90B728199744BBE557CCD9F2BEE5CB79D4BDFBFFFE23883789E73B171E89E9269F4164DD58904CC11EAA220F625FD2CC2D7E88552966D38F3106BDD33EFB00EBE93E0278F36938BCBE32A1B37ECCF7184F75119F7D0E7ADB6C1A9B7EB325B08B7D12668A02A81911EF0EE4FE78B0E2D672C3309688C5BDE2E2405E2972EA6EBBB0BF567D2AB625F57B343C57879A942CE76AAEFBE4AEF47DE496BAEC4A002015081900654371431
DEMENG DEPTABWA  SHOWSEARCHLIST      LANSA     XHTML     0000000007000000000000066A69291CABB62C97A32DC967DA2255E31538AE02A9A7A21C2C480FCCA1F46FE0300                                                                                                                                                                                                                                                                                                                                                                                                                                                  002015081900654371431
