DEXDEPTABWA  0000000DEPTABWA            DEPTABWA            0PRIM_WAM  000044184400040                                                                                                                                                                                                                                                          00003860000000000000000000000000000                                   
DEXJSMTEST   0000000JSMTEST             JSMTEST             0PRIM_FORM 000000006500010                                                                                                                                                                                                                                                          00003940000000000000000000000000000                                   
DEXJSMXCMD   0000000JSMXCMD             JSMXCMD             0PRIM_OBJT 000000000000000                                                                                                                                                                                                                                                          00002580000000000000000000000000000                                   
DEXJSMXHDLE1 0000000JSMXHDLE1           JSMXHDLE1           0PRIM_OBJT 000000000000000                                                                                                                                                                                                                                                          00002580000000000000000000000000000                                   
DEXJSMXMSG   0000000JSMXMSG             JSMXMSG             0PRIM_OBJT 000000000000000                                                                                                                                                                                                                                                          00002580000000000000000000000000000                                   
DEXJSMXSTS   0000000JSMXSTS             JSMXSTS             0PRIM_OBJT 000000000000000                                                                                                                                                                                                                                                          00002580000000000000000000000000000                                   
