DEXDFDEPTABWA                                00000000000001PRIFILRRN              Y                                                                      
DEXDFDEPTABWA                                00000010000001STDSELECT              Y                                                                      
DEXDFDEPTABWA                                00000020000001STD_COUNT              Y                                                                      
DEXDFDEPTABWA                                00000030000001DEPTDESC               Y                                                                      
DEXDFDEPTABWA                                00000040000001STD_INT                Y                                                                      
DEXDFDEPTABWA                                00000050000001DEPTMENT               Y                                                                      
DEXDFDEPTABWA                                00000060000017*BLANK                Y                                                                       
DEXDFDEPTABWA                                00000070000017*BLANKS               Y                                                                       
DEXDFDEPTABWA                                00000080000018*MTXTSCTMLO402        Y                                                                       
DEXDFDEPTABWA                                00000090000018*MTXT_XXNOTDELETED    Y                                                                       
DEXDFDEPTABWA                                00000100000018*MTXT_XXNOTEXIST      Y                                                                       
DEXDFDEPTABWA                                00000110000018*MTXT_XXWASCREATED    Y                                                                       
DEXDFDEPTABWA                                00000120000018*MTXT_XXWASDELETED    Y                                                                       
DEXDFDEPTABWA                                00000130000018*MTXT_XXWASSAVED      Y                                                                       
DEXDFDEPTABWA                                00000140000017*ZERO                 Y                                                                       
DEXDFDEPTABWA                                00000150000017*ZEROS                Y                                                                       
DEXDFDEPTABWA                                00000160000014DEPTDESC             YY Y  Y A000002000                                                       
DEXDFDEPTABWA                                00000170000014DEPTMENT             YY Y  Y A000000400                                                       
DEXDFDEPTABWA                                00000180000014IO$MDE                Y      A000000300                                                       
DEXDFDEPTABWA                                00000190000014IO$STS               YY Y    A000000200                                                       
DEXDFDEPTABWA                                00000200000014PRIFILRRN            YY Y    P000001500                                                       
DEXDFDEPTABWA                                00000210000014STDSELECT            YY Y Y  A000000100                                                       
DEXDFDEPTABWA                                00000220000014STD_COUNT             Y      P000000700                                                       
DEXDFDEPTABWA                                00000230000014STD_INT               Y      I000000400                                                       
DEXDFDEPTABWA                                00000240000014XXADDEXIT             Y     YA000000100                                                       
DEXDFDEPTABWA                                00000250000014XXCURROW              Y     YI000000400                                                       
DEXDFDEPTABWA                                00000260000014XXDDENTDS             YY    YA000003000                                                       
DEXDFDEPTABWA                                00000270000014XXDDSEQ               Y     YP000000100                                                       
DEXDFDEPTABWA                                00000280000014XXENTRIES             Y     YP000000700                                                       
DEXDFDEPTABWA                                00000290000014XXFILENAM             YY    YA000001000                                                       
DEXDFDEPTABWA                                00000300000014XXKEY0101            YY    YYA000000400                                                       
DEXDFDEPTABWA                                00000310000014XXLIMIT               Y     YI000000400                                                       
DEXDFDEPTABWA                                00000320000014XXSHOWSCH             Y     YA000000100                                                       
DEXDFDEPTABWA                                00000330000014XXSRCHTYP             Y    YYI000000400                                                       
DEXDFDEPTABWA                                00000340000014XXWAMNAME             Y     YA000003000                                                       
DEXDFDEPTABWA                                00000350000011DC@M01              *LIBL                                                                     
DEXDFDEPTABWA                                00000360000012WCR0001             DC@M01    *LIBL                                                           
DEXDFDEPTABWA                                00000370000012WCR0002             DC@M01    *LIBL                                                           
DEXDFDEPTABWA                                00000380000012WCR0003             DC@M01    *LIBL                                                           
DEXDFDEPTABWA                                00000390000012WCR0004             DC@M01    *LIBL                                                           
DEXDFDEPTABWA                                00000400000012WCR0005             DC@M01    *LIBL                                                           
DEXDFDEPTABWA                                00000410000024M@SYSVAR            *LIBL                                                                     
DEXDFDEPTABWA                                00000420000024M@TXTVAR            *LIBL                                                                     
DEXDFDEPTABWA                                00000430000021DEPTABCLOU          DEVDEXLIB Y Y                                                             
DEXDFDEPTABWA                                00000440000016DEPTMENT            XXKEY0101                                                                 
DEXDFDEPTABWA                                00000450000016STD_COUNT           XXENTRIES                                                                 
DEXDFDEPTABWA                                00000460000016STD_INT             XXCURROW                                                                  
DEXDFDEPTABWA                                00000470000016STD_INT             XXLIMIT                                                                   
DEXDFDEPTABWA                                00000480000016STD_INT             XXSRCHTYP                                                                 
DEXDFDEPTABWA            SHOWADD             00000000000029std_keys                                          ENG LANSA     JQMOBILE                      
DEXDFDEPTABWA            SHOWADD             00000000000029std_keys                                          ENG LANSA     XHTML                         
DEXDFDEPTABWA            SHOWADD             00000010000029std_variables                                     ENG LANSA     JQMOBILE                      
DEXDFDEPTABWA            SHOWADD             00000010000029std_variables                                     ENG LANSA     XHTML                         
DEXDFDEPTABWA            SHOWADD             00000020000029std_hidden                                        ENG LANSA     JQMOBILE                      
DEXDFDEPTABWA            SHOWADD             00000020000029deptabwa_layout                                   ENG LANSA     XHTML                         
DEXDFDEPTABWA            SHOWADD             00000030000029deptabwa_layout                                   ENG LANSA     JQMOBILE                      
DEXDFDEPTABWA            SHOWADD             00000030000029std_integer                                       ENG LANSA     XHTML                         
DEXDFDEPTABWA            SHOWADD             00000040000029std_input                                         ENG LANSA     JQMOBILE                      
DEXDFDEPTABWA            SHOWADD             00000040000029std_button_v2                                     ENG LANSA     XHTML                         
DEXDFDEPTABWA            SHOWADD             00000050000029std_char                                          ENG LANSA     XHTML                         
DEXDFDEPTABWA            SHOWADD             00000060000029std_datepicker                                    ENG LANSA     XHTML                         
DEXDFDEPTABWA            SHOWADD             00000070000029std_datetimepicker                                ENG LANSA     XHTML                         
DEXDFDEPTABWA            SHOWADD             00000080000029std_float                                         ENG LANSA     XHTML                         
DEXDFDEPTABWA            SHOWADD             00000090000029std_timepicker                                    ENG LANSA     XHTML                         
DEXDFDEPTABWA            SHOWADD             00000100000029std_varchar                                       ENG LANSA     XHTML                         
DEXDFDEPTABWA            SHOWADD             00000110000031*MTXT_XXRETURNLIST                                ENG LANSA     XHTML                         
DEXDFDEPTABWA            SHOWADD             00000120000031*MTXT_XXSAVE                                      ENG LANSA     XHTML                         
DEXDFDEPTABWA            SHOWADD             00000130000031*MTXT_XXSAVECOPY                                  ENG LANSA     XHTML                         
DEXDFDEPTABWA            SHOWADD             00000140000031*MTXT_XXSAVEEXIT                                  ENG LANSA     XHTML                         
DEXDFDEPTABWA            SHOWRECORD          00000000000029std_keys                                          ENG LANSA     JQMOBILE                      
DEXDFDEPTABWA            SHOWRECORD          00000000000029std_keys                                          ENG LANSA     XHTML                         
DEXDFDEPTABWA            SHOWRECORD          00000010000029std_variables                                     ENG LANSA     JQMOBILE                      
DEXDFDEPTABWA            SHOWRECORD          00000010000029std_variables                                     ENG LANSA     XHTML                         
DEXDFDEPTABWA            SHOWRECORD          00000020000029std_hidden                                        ENG LANSA     JQMOBILE                      
DEXDFDEPTABWA            SHOWRECORD          00000020000029deptabwa_layout                                   ENG LANSA     XHTML                         
DEXDFDEPTABWA            SHOWRECORD          00000030000029deptabwa_layout                                   ENG LANSA     JQMOBILE                      
DEXDFDEPTABWA            SHOWRECORD          00000030000029std_integer                                       ENG LANSA     XHTML                         
DEXDFDEPTABWA            SHOWRECORD          00000040000029std_input                                         ENG LANSA     JQMOBILE                      
DEXDFDEPTABWA            SHOWRECORD          00000040000029std_char                                          ENG LANSA     XHTML                         
DEXDFDEPTABWA            SHOWRECORD          00000050000029std_datepicker                                    ENG LANSA     XHTML                         
DEXDFDEPTABWA            SHOWRECORD          00000060000029std_datetimepicker                                ENG LANSA     XHTML                         
DEXDFDEPTABWA            SHOWRECORD          00000070000029std_float                                         ENG LANSA     XHTML                         
DEXDFDEPTABWA            SHOWRECORD          00000080000029std_timepicker                                    ENG LANSA     XHTML                         
DEXDFDEPTABWA            SHOWRECORD          00000090000029std_varchar                                       ENG LANSA     XHTML                         
DEXDFDEPTABWA            SHOWRECORD          00000100000029std_button_v2                                     ENG LANSA     XHTML                         
DEXDFDEPTABWA            SHOWRECORD          00000110000031*MTXT_XXDELETE                                    ENG LANSA     XHTML                         
DEXDFDEPTABWA            SHOWRECORD          00000120000031*MTXT_XXRETURNLIST                                ENG LANSA     XHTML                         
DEXDFDEPTABWA            SHOWRECORD          00000130000031*MTXT_XXSAVE                                      ENG LANSA     XHTML                         
DEXDFDEPTABWA            SHOWSEARCHLIST      00000000000029std_keys                                          ENG LANSA     JQMOBILE                      
DEXDFDEPTABWA            SHOWSEARCHLIST      00000000000029std_keys                                          ENG LANSA     XHTML                         
DEXDFDEPTABWA            SHOWSEARCHLIST      00000010000029std_variables                                     ENG LANSA     JQMOBILE                      
DEXDFDEPTABWA            SHOWSEARCHLIST      00000010000029std_variables                                     ENG LANSA     XHTML                         
DEXDFDEPTABWA            SHOWSEARCHLIST      00000020000029std_hidden                                        ENG LANSA     JQMOBILE                      
DEXDFDEPTABWA            SHOWSEARCHLIST      00000020000029deptabwa_layout                                   ENG LANSA     XHTML                         
DEXDFDEPTABWA            SHOWSEARCHLIST      00000030000029deptabwa_layout                                   ENG LANSA     JQMOBILE                      
DEXDFDEPTABWA            SHOWSEARCHLIST      00000030000029std_integer                                       ENG LANSA     XHTML                         
DEXDFDEPTABWA            SHOWSEARCHLIST      00000040000029std_html_list                                     ENG LANSA     JQMOBILE                      
DEXDFDEPTABWA            SHOWSEARCHLIST      00000040000029std_printpage                                     ENG LANSA     XHTML                         
DEXDFDEPTABWA            SHOWSEARCHLIST      00000050000029std_html_li                                       ENG LANSA     JQMOBILE                      
DEXDFDEPTABWA            SHOWSEARCHLIST      00000050000029std_tab_pages_v2                                  ENG LANSA     XHTML                         
DEXDFDEPTABWA            SHOWSEARCHLIST      00000060000029std_repeater                                      ENG LANSA     JQMOBILE                      
DEXDFDEPTABWA            SHOWSEARCHLIST      00000060000029std_button_v2                                     ENG LANSA     XHTML                         
DEXDFDEPTABWA            SHOWSEARCHLIST      00000070000029std_input                                         ENG LANSA     JQMOBILE                      
DEXDFDEPTABWA            SHOWSEARCHLIST      00000070000029std_click_image                                   ENG LANSA     XHTML                         
DEXDFDEPTABWA            SHOWSEARCHLIST      00000080000029std_toexcel                                       ENG LANSA     XHTML                         
DEXDFDEPTABWA            SHOWSEARCHLIST      00000090000031*MTXT_XXNEW                                       ENG LANSA     XHTML                         
DEXDFDEPTABWA            SHOWSEARCHLIST      00000100000031*MTXT_XXSEARCH                                    ENG LANSA     XHTML                         
DEXDFJSMTEST                                 00000000000001JSMXHDLE1              Y                                                                      
DEXDFJSMTEST                                 00000010000001JSMXSTS                Y                                                                      
DEXDFJSMTEST                                 00000020000001JSMXMSG                Y                                                                      
DEXDFJSMTEST                                 00000030000001JSMXCMD                Y                                                                      
DEXDFJSMTEST                                 00000040000001STD_TEXTL              Y                                                                      
DEXDFJSMTEST                                 00000050000001STD_TEXT               Y                                                                      
DEXDFJSMTEST                                 00000060000017*BLANK                Y                                                                       
DEXDFJSMTEST                                 00000070000017*BLANKS               Y                                                                       
DEXDFJSMTEST                                 00000080000017*COMPONENT_DESC       Y                                                                       
DEXDFJSMTEST                                 00000090000014CLSRV                 Y     YA000010000                                                       
DEXDFJSMTEST                                 00000100000014CLSVCE                Y     YA000010000                                                       
DEXDFJSMTEST                                 00000110000014FILE                  Y Y   YA000008000                                                       
DEXDFJSMTEST                                 00000120000014IO$MDE                Y      A000000300                                                       
DEXDFJSMTEST                                 00000130000014IO$STS               YY      A000000200                                                       
DEXDFJSMTEST                                 00000140000014JSMXCMD               Y      H000035500                                                       
DEXDFJSMTEST                                 00000150000014JSMXHDLE1             Y      H000000400                                                       
DEXDFJSMTEST                                 00000160000014JSMXHDLE2             Y     YH000000400                                                       
DEXDFJSMTEST                                 00000170000014JSMXHDLE3             Y     YH000000400                                                       
DEXDFJSMTEST                                 00000180000014JSMXMSG               Y      H000025500                                                       
DEXDFJSMTEST                                 00000190000014JSMXSTS             Y Y      A000002000                                                       
DEXDFJSMTEST                                 00000200000014KEYWORD             Y Y     YA000005000                                                       
DEXDFJSMTEST                                 00000210000014KEYW_VAL1           Y Y     YA000007500                                                       
DEXDFJSMTEST                                 00000220000014MSGDTA              Y YY    YA000013200                                                       
DEXDFJSMTEST                                 00000230000014SERVER1               Y     YA000010000                                                       
DEXDFJSMTEST                                 00000240000014SERVICE1              Y     YA000010000                                                       
DEXDFJSMTEST                                 00000250000014STD_TEXT              Y      A000005000                                                       
DEXDFJSMTEST                                 00000260000014STD_TEXTL             Y      A000007500                                                       
DEXDFJSMTEST                                 00000270000014TYPE1                 Y Y   YA000000100                                                       
DEXDFJSMTEST                                 00000280000011DC@M01              *LIBL                                                                     
DEXDFJSMTEST                                 00000290000012DCM9899             DC@M01    *LIBL                                                           
DEXDFJSMTEST                                 00000300000024F@SYSVAR            *LIBL                                                                     
DEXDFJSMTEST                                 00000310000024M@SYSVAR            *LIBL                                                                     
DEXDFJSMTEST                                 00000320000019BCONCAT                                                                                       
DEXDFJSMTEST                                 00000330000019JSMX_CLOSE                                                                                    
DEXDFJSMTEST                                 00000340000019JSMX_COMMAND                                                                                  
DEXDFJSMTEST                                 00000350000019JSMX_OPEN                                                                                     
DEXDFJSMTEST                                 00000360000019TCONCAT                                                                                       
DEXDFJSMTEST                                 00000370000016JSMXHDLE1           JSMXHDLE2                                                                 
DEXDFJSMTEST                                 00000380000016JSMXHDLE1           JSMXHDLE3                                                                 
DEXDFJSMTEST                                 00000390000016STD_TEXT            KEYWORD                                                                   
DEXDFJSMTEST                                 00000400000016STD_TEXTL           KEYW_VAL1                                                                 
DEXFDDEPTABCLOU          DEVDEXLIB           00000000000017*BLANKS              Y                                                                        
DEXFDDEPTABCLOU          DEVDEXLIB           00000010000017*ZERO                Y                                                                        
DEXFDDEPTABCLOU          DEVDEXLIB           00000020000011DC@M01              *LIBL                                                                     
DEXFDDEPTABCLOU          DEVDEXLIB           00000030000012DEM0003             DC@M01    *LIBL                                                           
DEXFDDEPTABCLOU          DEVDEXLIB           00000040000012DEM0004             DC@M01    *LIBL                                                           
DEXFDDEPTABCLOU          DEVDEXLIB           00000050000025@@UPID               Y                                                                        
DEXFDDEPTABCLOU          DEVDEXLIB           00000060000025DEPTDESC             Y    Y                                                                   
DEXFDDEPTABCLOU          DEVDEXLIB           00000070000025DEPTMENT            YY    Y                                                                   
DEXFDDEPTABCLOU          DEVDEXLIB           00000080000024M@SYSVAR            *LIBL                                                                     
   SV*LANGUAGE                               00000000000027M@SYSVAR                      NNNY                                                            
   SV*PARTITION                              00000000000027M@SYSVAR                      NNNY                                                            
DEXWLdeptabwa_layout                         00000000000032XMJ001              1Y                            ENG LANSA     JQMOBILE                      
DEXWLdeptabwa_layout                         00000000000032XWT01J              2Y                            ENG LANSA     XHTML                         
DEXWLdeptabwa_layout                         00000010000032XMT01J              2Y                            ENG LANSA     JQMOBILE                      
DEXWLdeptabwa_layout                         00000010000032XWT01L101           2Y                            ENG LANSA     XHTML                         
DEXWLdeptabwa_layout                         00000020000032XMC001              2Y                            ENG LANSA     JQMOBILE                      
DEXWLdeptabwa_layout                         00000020000029std_themelet1_1col                                ENG LANSA     XHTML                         
DEXWLdeptabwa_layout                         00000030000029std_layout_v2                                     ENG LANSA     JQMOBILE                      
DEXWLdeptabwa_layout                         00000030000029std_types                                         ENG LANSA     XHTML                         
DEXWLdeptabwa_layout                         00000040000029std_types                                         ENG LANSA     JQMOBILE                      
