ACCESS_FILE         A001001AAction (OPEN, CLOSE, READ)              RA         4         50000000000         500000          
ACCESS_FILE         A002002BFile name                               RA         1        100000000000        1000000          
ACCESS_FILE         A003003CLibrary                                 OA         1        100000000000        1000000'*LIBL'   
ACCESS_FILE         A004004DMember                                  OA         1        100000000000        1000000*BLANKS   
ACCESS_FILE         R001005EReturn Code (OK, ER, EF)                OA         2         20000000000         200000          
ACCESS_FILE         R002006FData block 1                            OA         1       2560000000000       25600000          
ACCESS_FILE         R003007GData Block 2                            OA         1       2560000000000       25600000          
ACCESS_FILE         R004008HData Block 3                            OA         1       2560000000000       25600000          
ACCESS_FILE         R005009IData Block 4                            OA         1       2560000000000       25600000          
ACCESS_FILE         R006010JData Block 5                            OA         1       2560000000000       25600000          
ACCESS_FILE         R007011KData Block 6                            OA         1       2560000000000       25600000          
ACCESS_FILE         R008012LData Block 7                            OA         1       2560000000000       25600000          
ACCESS_FILE         R009013MData Block 9                            OA         1       2560000000000       25600000          
ACCESS_RTE          A001001AName of access route                    RA         1        100000000000        1000000          
ACCESS_RTE          A002002BDescription of access route             RA         1        400000000000        4000000          
ACCESS_RTE          A003003CFile to be accessed via this route      RA         1        100000000000        1000000          
ACCESS_RTE          A004004DLibrary in which file resides           RA         1        100000000000        1000000          
ACCESS_RTE          A005005EMaximum records expected                RN         1         40000000000         400000          
ACCESS_RTE          A006006FAction to take if no records found      OA         1        100000000000        1000000'IGNORE'  
ACCESS_RTE          R001007GReturn code (OK/ER)                     RA         2         20000000000         200000          
ACCESS_RTE_KEY      A001001AAccess route name                       RA         1        100000000000        1000000          
ACCESS_RTE_KEY      A002002BField or literal to be used as key      RA         1        200000000000        2000000          
ACCESS_RTE_KEY      A003003COptional sequencing number              ON         1         50000000000         5000000         
ACCESS_RTE_KEY      R001004DReturn code (OK/ER)                     RA         2         20000000000         200000          
ADD_DD_VALUES       A001001ADropdown list name                      RA         4         40000000000         400000          
ADD_DD_VALUES       A002003CSeparator character                     RA         1         10000000000         100000*BLANK    
ADD_DD_VALUES       A003004DDropdown value text                     RA         1       2560000000000       25600000          
ADD_DD_VALUES       R001002BReturn code                             RA         2         20000000000         200000          
AJBF1               A001001ATest11                                  RA         1        100000000000        1000000          
AJBF1               R001002BTESTRTN                                 RA         1         10000000000         100000          
AJBIF2              A001001ATest11                                  RA         1        100000000000        1000000          
AJBIF2              R001002BTESTRTN                                 RA         1         10000000000         100000          
ALLOW_EXTRA_USER_KEYA001001ANumber of key to be enabled             RN         1         20000000000         200000          
ALLOW_EXTRA_USER_KEYA002002BDescription of extra key                OA         1        100000000000        1000000*BLANKS   
APPLY_SAI_YIA       A001001A                                        RN         1        190000000000        1900000          
APPLY_SAI_YIA       A002002B                                        RA         1         70000000000         700000          
APPLY_SAI_YIA       A003003C                                        RN         1         80000000000         800000          
APPLY_SAI_YIA       R001004D                                        RA         1         20000000000         200000          
BCONCAT             A001001AFirst string to concatenate             Ru         121474836470000000000       25600000          
BCONCAT             A002002BSecond string to concatenate            Ru         121474836470000000000       25600000          
BCONCAT             A003003CThird string to concatenate             Ou         121474836470000000000       25600000*BLANKS   
BCONCAT             A004004DFourth string to concatenate            Ou         121474836470000000000       25600000*BLANKS   
BCONCAT             A005005EFifth string to concatenate             Ou         121474836470000000000       25600000*BLANKS   
BCONCAT             R001006FReturned concatenation of strings 1 - 5 Ru         121474836470000000000       25600000          
BCONCAT             R002007GComputed length of returned string      ON         1        150000000000        1500000          
BIF001              A001001AInput01                                 RA         1        200000000000        2000000          
BIF001              R001002BBIFRTN01                                RA         1         10000000000         100000          
BIFBUG              A001001AArgument                                RN         1         10000000000         100000          
BIFBUG              R001002BReturn                                  RN         1         10000000000         100000          
BIFCH               A001001AL/H/N BIF                               OA         1         10000000000         100000H         
BIFCH               A002002BSet L/H/N                               OA         1         10000000000         100000N         
BIFCH               A003003CSet L/H/N (Callee)                      OA         1         10000000000         100000N         
BIFCH               A004004DLog Type                                OA         1         10000000000         100000D         
BIFCH               A005005ERDMLX Call Y/N                          OA         1         10000000000         100000N         
BIFCH               R001006FReturn                                  RN         1         10000000000         100000          
BIFCHX              A001001AL/H/N BIF                               OA         1         10000000000         100000'H'       
BIFCHX              A002002BSet L/H/N                               OA         1         10000000000         100000'N'       
BIFCHX              A003003CSet L/H/N (Callee)                      OA         1         10000000000         100000'N'       
BIFCHX              A004004DLog Type                                OA         1         10000000000         100000'D'       
BIFCHX              A005005ERDMLX Call Y/N                          OA         1         10000000000         100000'N'       
BIFCHX              R001006FReturn                                  RN         1         10000000000         1000000         
BIFCL               A001001AL/H/N BIF                               OA         1         10000000000         100000H         
BIFCL               A002002BSet L/H/N                               OA         1         10000000000         100000N         
BIFCL               A003003CSet L/H/N (Callee)                      OA         1         10000000000         100000N         
BIFCL               A004004DLog Type                                OA         1         10000000000         100000D         
BIFCL               A005005ERDMLX Call Y/N                          OA         1         10000000000         100000N         
BIFCL               R001006FReturn                                  RN         1         10000000000         100000          
BIFCLX              A001001AL/H/N BIF                               OA         1         10000000000         100000'H'       
BIFCLX              A002002BSet L/H/N                               OA         1         10000000000         100000'N'       
BIFCLX              A003003CSet L/H/N (Callee)                      OA         1         10000000000         100000'N'       
BIFCLX              A004004DLog Type                                OA         1         10000000000         100000'D'       
BIFCLX              A005005ERDMLX Call Y/N                          OA         1         10000000000         100000'N'       
BIFCLX              R001006FReturn                                  RN         1         10000000000         1000000         
BIFCN               A001001AL/H/N BIF                               OA         1         10000000000         100000H         
BIFCN               A002002BSet L/H/N                               OA         1         10000000000         100000N         
BIFCN               A003003CSet L/H/N (Callee)                      OA         1         10000000000         100000N         
BIFCN               A004004DLog Type                                OA         1         10000000000         100000D         
BIFCN               A005005ERDMLX Call Y/N                          OA         1         10000000000         100000N         
BIFCN               R001006FReturn                                  RN         1         10000000000         100000          
BIFCNX              A001001AL/H/N BIF                               OA         1         10000000000         100000'H'       
BIFCNX              A002002BSet L/H/N                               OA         1         10000000000         100000'N'       
BIFCNX              A003003CSet L/H/N (Callee)                      OA         1         10000000000         100000'N'       
BIFCNX              A004004DLog Type                                OA         1         10000000000         100000'D'       
BIFCNX              A005005ERDMLX Call Y/N                          OA         1         10000000000         100000'N'       
BIFCNX              R001006FReturn                                  RN         1         10000000000         1000000         
BIFH                R001001AReturn                                  RN         1         10000000000         100000          
BIFHX               R001001AReturn                                  RN         1         10000000000         1000000         
BIFL                R001001AReturn                                  RN         1         10000000000         100000          
BIFLX               R001001AReturn                                  RN         1         10000000000         1000000         
BIFN                R001001AReturn                                  RN         1         10000000000         100000          
BIFNX               R001001AReturn                                  RN         1         10000000000         1000000         
BINTOHEX            A001001ASOURCE - Binary value                   Rw         121474836400000000000214748364000000          
BINTOHEX            A002004DNumber of bytes to be converted         ON         1        110000000000        11000000         
BINTOHEX            R001002BReturned Hex value                      RA         221474836400000000000214748364000000          
BINTOHEX            R002003CReturn code OK/ER                       OA         2         20000000000         200000*BLANKS   
BUGCH               A001001AL/H/N BIF                               OA         1         10000000000         100000H         
BUGCH               A002002BSet L/H/N                               OA         1         10000000000         100000N         
BUGCH               A003003CSet L/H/N (Callee)                      OA         1         10000000000         100000N         
BUGCH               A004004DLog Type                                OA         1         10000000000         100000D         
BUGCH               A005005ERDMLX Call Y/N                          OA         1         10000000000         100000N         
BUGCH               R001006FReturn                                  RN         1         10000000000         100000          
BUILD_WORK_OPTIONS  A001001AList of all functions to be enabled     RL        50        500000000000        5000000          
BUILD_WORK_OPTIONS  A002002BLength of Option Lines for Output       RN         1        150000000000        1500000          
BUILD_WORK_OPTIONS  R001003CComposed Option Lines for Display       RL         1        800000000000        8000000          
BUILD_WORK_OPTIONS  R002004DReturned Valid Options                  RL         2         20000000000         200000          
C43179A             A001001AArgument 1                              RA         1        100000000000        1000000*BLANKS   
C43179A             A002002BArgument 2                              OA         1        100000000000        1000000'X'       
C43179A             R001003CReturn 1                                RA         1         50000000000         500000*BLANKS   
CALL_C_FUNCTION     A001001ADLL/Service Program/Shared Object Name  RA         1       2560000000000       25600000          
CALL_C_FUNCTION     A002002BC Entry Point Name                      RA         1       2560000000000       25600000          
CALL_C_FUNCTION     A003003CC Prototype Name                        RA         1       2560000000000       25600000          
CALL_C_FUNCTION     A004004DC Prototype                             RX         1      10240000000000      102400000          
CALL_C_FUNCTION     A005005EEntry Point Parameter 1                 OX         121474836470000000000        3000000*LOVAL    
CALL_C_FUNCTION     A006006FEntry Point Parameter 2                 OX         121474836470000000000        3000000*LOVAL    
CALL_C_FUNCTION     A007007GEntry Point Parameter 3                 OX         121474836470000000000        3000000*LOVAL    
CALL_C_FUNCTION     A008008HEntry Point Parameter 4                 OX         121474836470000000000        3000000*LOVAL    
CALL_C_FUNCTION     A009009IEntry Point Parameter 5                 OX         121474836470000000000        3000000*LOVAL    
CALL_C_FUNCTION     A010010JEntry Point Parameter 6                 OX         121474836470000000000        3000000*LOVAL    
CALL_C_FUNCTION     A011011KEntry Point Parameter 7                 OX         121474836470000000000        3000000*LOVAL    
CALL_C_FUNCTION     A012012LEntry Point Parameter 8                 OX         121474836470000000000        3000000*LOVAL    
CALL_C_FUNCTION     A013013MEntry Point Parameter 9                 OX         121474836470000000000        3000000*LOVAL    
CALL_C_FUNCTION     A014014NEntry Point Parameter 10                OX         121474836470000000000        3000000*LOVAL    
CALL_C_FUNCTION     A015015OEntry Point Parameter 11                OX         121474836470000000000        3000000*LOVAL    
CALL_C_FUNCTION     A016016PEntry Point Parameter 12                OX         121474836470000000000        3000000*LOVAL    
CALL_C_FUNCTION     A017017QEntry Point Parameter 12A               OX         121474836470000000000        3000000*LOVAL    
CALL_C_FUNCTION     A018018REntry Point Parameter 14                OX         121474836470000000000        3000000*LOVAL    
CALL_C_FUNCTION     A019019SEntry Point Parameter 15                OX         121474836470000000000        3000000*LOVAL    
CALL_C_FUNCTION     A020020TEntry Point Parameter 16                OX         121474836470000000000        3000000*LOVAL    
CALL_C_FUNCTION     R001021UReturn Code (OK=Okay, ER=Error)         RA         2         20000000000         200000*BLANKS   
CALL_C_FUNCTION     R002022VOperating System Error Code             OX         121474836470000000000        3000000*LOVAL    
CALL_C_FUNCTION     R003023@Operating System Error Message Text     OX         121474836470000000000        3000000*LOVAL    
CALL_C_FUNCTION     R004024!Return Code from C Function call        OX         121474836470000000000        3000000*LOVAL    
CALL_C_FUNCTION     R005025WEntry Point Return Value 1              OX         121474836470000000000        3000000*LOVAL    
CALL_C_FUNCTION     R006026XEntry Point Return Value 2              OX         121474836470000000000        3000000*LOVAL    
CALL_C_FUNCTION     R007027YEntry Point Return Value 3              OX         121474836470000000000        3000000*LOVAL    
CALL_C_FUNCTION     R008028ZEntry Point Return Value 4              OX         121474836470000000000        3000000*LOVAL    
CALL_C_FUNCTION     R0090290Entry Point Return Value 5              OX         121474836470000000000        3000000*LOVAL    
CALL_C_FUNCTION     R0100301Entry Point Return Value 6              OX         121474836470000000000        3000000*LOVAL    
CALL_C_FUNCTION     R0110312Entry Point Return Value 7              OX         121474836470000000000        3000000*LOVAL    
CALL_C_FUNCTION     R0120323Entry Point Return Value 8              OX         121474836470000000000        3000000*LOVAL    
CALL_C_FUNCTION     R0130334Entry Point Return Value 9              OX         121474836470000000000        3000000*LOVAL    
CALL_C_FUNCTION     R0140345Entry Point Return Value 10             OX         121474836470000000000        3000000*LOVAL    
CALL_C_FUNCTION     R0150356Entry Point Return Value 11             OX         121474836470000000000        3000000*LOVAL    
CALL_C_FUNCTION     R0160367Entry Point Return Value 12             OX         121474836470000000000        3000000*LOVAL    
CALL_C_FUNCTION     R0170378Entry Point Return Value 12A            OX         121474836470000000000        3000000*LOVAL    
CALL_C_FUNCTION     R0180389Entry Point Return Value 14             OX         121474836470000000000        3000000*LOVAL    
CALL_C_FUNCTION     R019039$Entry Point Return Value 15             OX         121474836470000000000        3000000*LOVAL    
CALL_C_FUNCTION     R020040#Entry Point Return Value 16             OX         121474836470000000000        3000000*LOVAL    
CALL_SERVER_FUNCTIONA001001AServer Symbolic Name (SSN)              RA         1        100000000000        1000000          
CALL_SERVER_FUNCTIONA002002BName of RDML function to be called      RA         1         70000000000         700000          
CALL_SERVER_FUNCTIONA003003CPass Current Exchange List to Server    OA         1         10000000000         100000'N'       
CALL_SERVER_FUNCTIONA004004DReceive Exchange List back from Server  OA         1         10000000000         100000'N'       
CALL_SERVER_FUNCTIONA005005EWorking List 1                          OL         1         10000000000         100000          
CALL_SERVER_FUNCTIONA006006FWorking List 2                          OL         1         10000000000         100000          
CALL_SERVER_FUNCTIONA007007GWorking List 3                          OL         1         10000000000         100000          
CALL_SERVER_FUNCTIONA008008HWorking List 4                          OL         1         10000000000         100000          
CALL_SERVER_FUNCTIONA009009IWorking List 5                          OL         1         10000000000         100000          
CALL_SERVER_FUNCTIONA010010JWorking List 6                          OL         1         10000000000         100000          
CALL_SERVER_FUNCTIONA011011KWorking List 7                          OL         1         10000000000         100000          
CALL_SERVER_FUNCTIONA012012LWorking List 8                          OL         1         10000000000         100000          
CALL_SERVER_FUNCTIONA013013MWorking List 9                          OL         1         10000000000         100000          
CALL_SERVER_FUNCTIONA014014NWorking List 10                         OL         1         10000000000         100000          
CALL_SERVER_FUNCTIONR001015OReturn Code ("OK" or "ER")              RA         2         20000000000         200000          
CBIF001  ABC        A001001AA01                                     RA         1        100000000000        1000000          
CBIF001  ABC        R001002BRTN01                                   RA         1         10000000000         100000          
CENTRE              A001001AString to be centred                    RA         1       2560000000000       25600000          
CENTRE              A002002BRemove imbedded blanks (Y/N)            OA         1         10000000000         100000'N'       
CENTRE              R001003CReturn string                           RA         1       2560000000000       25600000          
CHANGE_IBMI_SIGNON  A001001AIBM i Server Name                       RA         1       2560000000000       25600000          
CHANGE_IBMI_SIGNON  A002002BSSL REquired (Y/N)                      RA         1         10000000000         100000          
CHANGE_IBMI_SIGNON  A003003CUser name (signon) to be changed        RA         1        100000000000        1000000          
CHANGE_IBMI_SIGNON  A004004DPassword for the user to be changed     RA         1       1280000000000       12800000          
CHANGE_IBMI_SIGNON  A005005ENew password for the User Name          RA         1       1280000000000       12800000          
CHANGE_IBMI_SIGNON  A006006FEncrypt Password (Y/N)                  RA         1         10000000000         100000          
CHANGE_IBMI_SIGNON  A007007GServer Mapper Port                      ON         1         50000000000         500000449       
CHANGE_IBMI_SIGNON  R001008HReturn Code                             RA         2         20000000000         200000          
CHECK_AUTHORITY     A001001AObject name                             RA         1        100000000000        1000000*BLANKS   
CHECK_AUTHORITY     A002002BObject name extension                   RA         1        100000000000        1000000*BLANKS   
CHECK_AUTHORITY     A003003CObject type                             RA         2         20000000000         200000'FD'      
CHECK_AUTHORITY     A004004DAccess required to object               RA         2         20000000000         200000'UD'      
CHECK_AUTHORITY     R001005EAccess granted                          RA         1         10000000000         100000'N'       
CHECK_IBMI_SIGNON   A001001AIBM i Server Name                       RA         1       2560000000000       25600000          
CHECK_IBMI_SIGNON   A002002BSSL Required (Y/N)                      RA         1         10000000000         100000          
CHECK_IBMI_SIGNON   A003003CUser name (signon) to be checked        RA         1        100000000000        1000000          
CHECK_IBMI_SIGNON   A004004DPassword for the user to be checked     RA         1       1280000000000       12800000          
CHECK_IBMI_SIGNON   A005005EEncrypt Password (Y/N)                  RA         1         10000000000         100000          
CHECK_IBMI_SIGNON   A006006FServer Mapper Port                      ON         1         50000000000         500000449       
CHECK_IBMI_SIGNON   R001006FReturn Code                             RA         2         20000000000         200000          
CHECK_IBMI_SIGNON   R002007GDate Password Expires (CCYYMMDD)        RA         8         80000000000         800000          
CHECK_OUT           A001001AObject Type (PD, PF, DF, FD, SV, MT)    RA         2         20000000000         200000          
CHECK_OUT           A002002BUpdate (Y/N)                            RA         1         10000000000         100000          
CHECK_OUT           A003003CObject Name                             RA        10        100000000000        1000000          
CHECK_OUT           A004004DObject Name Extension                   RA        10        100000000000        1000000          
CHECK_OUT           A005005EInput or Output visual, I, O, or N      OA         1         10000000000         100000*BLANK    
CHECK_OUT           A006006FSecondary extension name                OA         1         50000000000         500000*BLANKS   
CHECK_OUT           R001007GReturn Code (OK, ER)                    RA         2         20000000000         200000          
CHECKNUMERIC        A001001AAlpha string to be converted to numeric RA         1       2560000000000       25600000          
CHECKNUMERIC        A002002BMaximum number of integers allowed      ON         121474836470000000000         30000015        
CHECKNUMERIC        A003003CMaximum number of decimals allowed      ON         1         30000000000         3000009         
CHECKNUMERIC        A004004DList of characters to be ignored        OA         1        500000000000        5000000*BLANKS   
CHECKNUMERIC        R001005EReturn integer portion of number        RN         121474836470000000000        3000000          
CHECKNUMERIC        R002006FReturn decimal portion of number        ON         121474836470000132767         900009          
CHECKNUMERIC        R003007GReturn code (Y/N)                       OA         1         10000000000         100000          
CHECKNUMERIC        R004008HReturn sign of number (+/-)             OA         1         10000000000         100000          
CHECKNUMERIC        R005009IReturn number of integers               ON         1         30000000000         300000          
CHECKNUMERIC        R006010JReturn number of decimals               ON         1         30000000000         300000          
CHECKSTRING         A001001AString to be checked                    RA         121474836470000000000       25600000          
CHECKSTRING         A002002BList of allowable characters in string  RA         1       2560000000000       25600000          
CHECKSTRING         R001003CReturn code (Y/N)                       RA         1         10000000000         100000          
CLR_MESSAGES        A001001AClear event log messages Y/N            OA         1         10000000000         100000'Y'       
COMPARE_FILE_DEF    A001001ALANSA file name                         RA         1        100000000000         000000          
COMPARE_FILE_DEF    A002002BPath for current CTD                    RA         1       2560000000000         000000          
COMPARE_FILE_DEF    A003003CPath for new CTD                        RA         1       2560000000000         000000          
COMPARE_FILE_DEF    A004005ELibrary Name                            OA         1       1280000000000         000000          
COMPARE_FILE_DEF    R001004DReturn code                             RA         2         20000000000         000000          
COMPILE_COMPONENT   A001001AList of components to be compiled       RL         1         90000000000         900000          
COMPILE_COMPONENT   A002002BForce compile                           OA         2         30000000000         300000'*N'      
COMPILE_COMPONENT   A003003CKeep generated source code              OA         2         30000000000         300000'*N'      
COMPILE_COMPONENT   A004004DCompile for debug                       OA         2         30000000000         300000'*N'      
COMPILE_COMPONENT   A005006FWeb services to compile                 OA         1         10000000000         100000'N'       
COMPILE_COMPONENT   A006007GList of technology services             OL         1        200000000000        2000000          
COMPILE_COMPONENT   R001005EReturn code OK/ER                       OA         2         20000000000         200000          
COMPILE_OBJECT      A001001AObject Type                             RA         2         20000000000         200000          
COMPILE_OBJECT      A002002BObject Name (LANSA internal name)       RA         1        100000000000        1000000          
COMPILE_OBJECT      A003004DDebug enabled Y/N                       OA         1         10000000000         100000'N'       
COMPILE_OBJECT      A004005ERequesting Workstation                  OA         1        100000000000        1000000*BLANKS   
COMPILE_OBJECT      A005006FCompile Actions                         OA         1         50000000000         100005*BLANKS   
COMPILE_OBJECT      A006007GTarget Library                          OA         1        100000000000        1000000*BLANK    
COMPILE_OBJECT      R001003CReturn Code                             RA         2         20000000000         200000          
COMPILE_PROCESS     A001001AName of process to be compiled          RA         1        100000000000        1000000          
COMPILE_PROCESS     A002002BList of functions to be compiled        RL         1         70000000000         700000          
COMPILE_PROCESS     A003003CName of batch job                       OA         1        100000000000        1000000'*PROCESS'
COMPILE_PROCESS     A004004DName of job description                 OA         1        210000000000        2100000'*N'      
COMPILE_PROCESS     A005005EName of job queue                       OA         1        210000000000        2100000'*N'      
COMPILE_PROCESS     A006006FName of output queue                    OA         1        210000000000        2100000'*N'      
COMPILE_PROCESS     A007007GCompile process as well as functions    OA         2         30000000000         300000'*N'      
COMPILE_PROCESS     A008008HProduce RDML source listings            OA         2         30000000000         300000'*N'      
COMPILE_PROCESS     A009009IProduce RPG and DDS source listings     OA         2         30000000000         300000'*N'      
COMPILE_PROCESS     A010010JOptimise compiled program(s)            OA         2         30000000000         300000'*N'      
COMPILE_PROCESS     A011011KIgnore decimal data errors in program(s)OA         2         30000000000         300000'*N'      
COMPILE_PROCESS     A012012LAllow debug / Program Observability     OA         6         60000000000         600000'*N'      
COMPILE_PROCESS     A013013MDump code generator work areas          OA         2         30000000000         300000'*N'      
COMPILE_PROCESS     A014015OProduce Documentor Details              OA         2         30000000000         300000'*N'      
COMPILE_PROCESS     A015016PGenerate HTML Pages                     OA         2         30000000000         300000'*N'      
COMPILE_PROCESS     A016017QGenerate HTML editor extension details  OA         2         30000000000         300000'*N'      
COMPILE_PROCESS     A017018RGenerate XML                            OA         2         30000000000         300000'*N'      
COMPILE_PROCESS     R001014NSuccessfull submit return code "OK"/"ER"RA         2         20000000000         200000          
COMPOSER_CALLF      A001001ALANSA Composer server symbolic name     RA         1        100000000000        1000000          
COMPOSER_CALLF      A002002BLANSA process name                      RA         1        100000000000        1000000          
COMPOSER_CALLF      A003003CLANSA function name                     RA         1         70000000000         700000          
COMPOSER_CALLF      A004004DNumber of exchange variables            ON         1         50000000000         5000000         
COMPOSER_CALLF      A005005EValue of exchange variable EXCH01       OA         1       2560000000000       25600000*BLANK    
COMPOSER_CALLF      A006006FValue of exchange variable EXCH02       OA         1       2560000000000       25600000*BLANK    
COMPOSER_CALLF      A007007GValue of exchange variable EXCH03       OA         1       2560000000000       25600000*BLANK    
COMPOSER_CALLF      A008008HValue of exchange variable EXCH04       OA         1       2560000000000       25600000*BLANK    
COMPOSER_CALLF      A009009IValue of exchange variable EXCH05       OA         1       2560000000000       25600000*BLANK    
COMPOSER_CALLF      A010010JValue of exchange variable EXCH06       OA         1       2560000000000       25600000*BLANK    
COMPOSER_CALLF      A011011KValue of exchange variable EXCH07       OA         1       2560000000000       25600000*BLANK    
COMPOSER_CALLF      A012012LSynchronous call?                       OA         1         10000000000         100000'Y'       
COMPOSER_CALLF      A013013MSynchronous time out (seconds)          ON         1         50000000000         50000030        
COMPOSER_CALLF      A014014NRequest expires (seconds)               ON         1         50000000000         5000000         
COMPOSER_CALLF      R001015OReturn code                             OA         2         20000000000         200000          
COMPOSER_CALLF      R002016PValue of exchange variable EXCH01       OA         1       2560000000000       25600000          
COMPOSER_CALLF      R003017QValue of exchange variable EXCH02       OA         1       2560000000000       25600000          
COMPOSER_CALLF      R004018RValue of exchange variable EXCH03       OA         1       2560000000000       25600000          
COMPOSER_CALLF      R005019SValue of exchange variable EXCH04       OA         1       2560000000000       25600000          
COMPOSER_CALLF      R006020TValue of exchange variable EXCH05       OA         1       2560000000000       25600000          
COMPOSER_CALLF      R007021UValue of exchange variable EXCH06       OA         1       2560000000000       25600000          
COMPOSER_CALLF      R008022VValue of exchange variable EXCH07       OA         1       2560000000000       25600000          
COMPOSER_RUN        A001001ALANSA Composer server symbolic name     RA         1        100000000000        1000000          
COMPOSER_RUN        A002002BProcessing sequence identifier          RA         1        320000000000        3200000          
COMPOSER_RUN        A003003CParameter name 01                       OA         1        200000000000        2000000'*NONE'   
COMPOSER_RUN        A004004DParameter value 01                      OA         1       2000000000000       20000000'*NONE'   
COMPOSER_RUN        A005005EParameter name 02                       OA         1        200000000000        2000000'*NONE'   
COMPOSER_RUN        A006006FParameter value 02                      OA         1       2000000000000       20000000'*NONE'   
COMPOSER_RUN        A007007GParameter name 03                       OA         1        200000000000        2000000'*NONE'   
COMPOSER_RUN        A008008HParameter value 03                      OA         1       2000000000000       20000000'*NONE'   
COMPOSER_RUN        A009009IParameter name 04                       OA         1        200000000000        2000000'*NONE'   
COMPOSER_RUN        A010010JParameter value 04                      OA         1       2000000000000       20000000'*NONE'   
COMPOSER_RUN        A011011KParameter name 05                       OA         1        200000000000        2000000'*NONE'   
COMPOSER_RUN        A012012LParameter value 05                      OA         1       2000000000000       20000000'*NONE'   
COMPOSER_RUN        A013013MSynchronous call?                       OA         1         10000000000         100000'Y'       
COMPOSER_RUN        A014014NTimeout (secs) for synchronous request  ON         1         50000000000         50000030        
COMPOSER_RUN        A015015ORequest expires (secs)                  ON         1         50000000000         5000000         
COMPOSER_RUN        R001016PReturn code                             OA         2         20000000000         200000          
COMPOSER_USE        A001001ALANSA Composer server symbolic name     RA         1        100000000000        1000000          
COMPOSER_USE        A002002BPartition name                          OA         3         30000000000         300000'LIC'     
COMPOSER_USE        A003003CLANSA program library name (IBM i only) OA         1        100000000000        1000000*BLANK    
COMPOSER_USE        A004004DReserved for future use. Must be blank  OA         1       2560000000000       25600000*BLANK    
COMPOSER_USE        A005005EReserved for future use. Must be blank. OA         1       2560000000000       25600000*BLANK    
COMPOSER_USE        A006006FLANSA system path (Windows only)        OA         1       2560000000000       25600000*BLANK    
COMPOSER_USE        A007007GUser name (Windows only)                OA         1       2560000000000       25600000*BLANK    
COMPOSER_USE        A008008HPassword (Windows only)                 OA         1       2560000000000       25600000*BLANK    
COMPOSER_USE        A009009IDatabase name (Windows only)            OA         1        320000000000        3200000*BLANK    
COMPOSER_USE        A010010JDatabase type (Windows only)            OA         1        200000000000        2000000*BLANK    
COMPOSER_USE        A011011KDatabase user (Windows only)            OA         1       2560000000000       25600000*BLANK    
COMPOSER_USE        A012012LDatabase password (Windows only)        OA         1       2560000000000       25600000*BLANK    
COMPOSER_USE        A013013MLANSA system overrides (Windows only)   OA         1       1280000000000       12800000*BLANK    
COMPOSER_USE        A014014NLANSA Composer Request Server Log? (W o)OA         1         10000000000         100000'N'       
COMPOSER_USE        R001015OReturn code                             OA         2         20000000000         200000          
CONCAT              A001001AFirst string to concatenate             Ru         121474836470000000000       25600000          
CONCAT              A002002BSecond string to concatenate            Ru         121474836470000000000       25600000          
CONCAT              A003003CThird string to concatenate             Ou         121474836470000000000       25600000*BLANKS   
CONCAT              A004004DFourth string to concatenate            Ou         121474836470000000000       25600000*BLANKS   
CONCAT              A005005EFifth string to concatenate             Ou         121474836470000000000       25600000*BLANKS   
CONCAT              R001006FReturned concatenation of strings 1 - 5 Ru         121474836470000000000       25600000          
CONCAT              R002007GComputed length of returned string      ON         1        150000000000        1500000          
CONNECT_FILE        A001001APhysical File or SQL Table Name         RA         1        100000000000        1000000          
CONNECT_FILE        A002002BSSN (Server Symbolic Name) of Server    RA         1        100000000000        1000000          
CONNECT_FILE        A003003CSelect Blocking Size                    ON         1        100000000000        100000050        
CONNECT_FILE        A004004DSelection Limit                         ON         1        100000000000        100000010000     
CONNECT_SERVER      A001001AServer Symbolic Name (SSN)              RA         1        100000000000        1000000          
CONNECT_SERVER      A002002BPassword to be Used for Connect         OA         1       2560000000000       25600000' '       
CONNECT_SERVER      A003003FUse Kerberose authentication            OA         1         10000000000         100000'N'       
CONNECT_SERVER      A004007GUser Name                               OA         1       2560000000000       25600000*BLANKS   
CONNECT_SERVER      A005008HHandle Server Error                     OA         1         10000000000         100000'N'       
CONNECT_SERVER      R001004CReturn Code ("OK" or "ER")              RA         2         20000000000         200000          
CONNECT_SERVER      R002005DServer Type                             OA         3        150000000000        1500000'UNKNOWN' 
CONNECT_SERVER      R003006EError code                              ON        10        100000000000        1000000*ZERO     
CONVERT_STRING      A001001AData string to be converted             RA         121474836470000000000       25600000          
CONVERT_STRING      A002002Bcodepage to be converted to             RN         1         50000000000         500000          
CONVERT_STRING      A003003Ccodepage to be converted from           ON         1         50000000000         5000000         
CONVERT_STRING      R001004DConverted data string                   RA         121474836470000000000       25600000          
CONVERT_STRING      R002005Ereturn code                             OA         2         20000000000         200000          
CONVERT_TEXT        A001001ALanguage                                RA         1         40000000000         400000          
CONVERT_TEXT        A002002BString                                  RA         121474836470000000000       25600000          
CONVERT_TEXT        R001003CReturn code                             RA         1         20000000000         200000          
CONVERT_TEXT        R002004DConverted string returned               RA         121474836470000000000       25600000          
CONVERT_TEXT        R003005EReturned length in bytes                ON         1        100000000000        1000000          
CONVERTDATE         A001001ADate that is to be converted            RA         1        200000000000        2000000          
CONVERTDATE         A002002BFormat of date that is to be converted  RA         1         10000000000         100000          
CONVERTDATE         A003003CFormat required for returned date       RA         1         10000000000         100000          
CONVERTDATE         R001004DReturned converted date                 RA         1        200000000000        2000000          
CONVERTDATE         R002005EReturn code (Y/N)                       OA         1         10000000000         100000          
CONVERTDATE_NUMERIC A001001ADate that is to be converted            RN         1         80000000000         800000          
CONVERTDATE_NUMERIC A002002BFormat of date that is to be converted  RA         1         10000000000         100000          
CONVERTDATE_NUMERIC A003003CFormat required for returned date       RA         1         10000000000         100000          
CONVERTDATE_NUMERIC R001004DReturned converted date                 RN         4         80000000000         800000          
CONVERTDATE_NUMERIC R002005EReturn code (Y/N)                       OA         1         10000000000         100000          
COPY_OBJECT         A001001ACopy FROM system SSN, special val *LOCALRA         1        100000000000        1000000          
COPY_OBJECT         A002002BFrom object/path                        RA         1       2560000000000       25600000          
COPY_OBJECT         A003003Ccopy TO system SSN, special value *LOCALRA         1        100000000000        1000000          
COPY_OBJECT         A004004DTO object/path                          RA         1       2560000000000       25600000          
COPY_OBJECT         A005005EObject type, B - binary, T - text       OA         1         10000000000         100000          
COPY_OBJECT         R001006FReturn code, OK copy ok, ER not copied  RA         2         20000000000         200000          
COPY_PACKAGE        A001001ASSN of defined Server                   RA         1        100000000000        1000000          
COPY_PACKAGE        A002002BApplication name                        RA         8         80000000000         800000          
COPY_PACKAGE        A003003CPackage name                            RA         8         80000000000         800000          
COPY_PACKAGE        A004004DCopy direction                          OA         1         10000000000         100000'S'       
COPY_PACKAGE        A005005ESource package directory                OA         1       2560000000000       25600000          
COPY_PACKAGE        A006006FTarget package directory                OA         1       2560000000000       25600000          
COPY_PACKAGE        A007007GAction if package exists in target      OA         1         10000000000         100000'R'       
COPY_PACKAGE        A008008HOther object file type                  OL       101       1010000000000       10100000          
COPY_PACKAGE        A009009JExtended Attributes                     OA         8         80000000000         800000          
COPY_PACKAGE        R001010IReturn Value                            RA         2         20000000000         200000          
CRAIGB2             R001001AReturn                                  RN         1         10000000000         100000          
CRAIGB3             R001001AReturn                                  RN         1         10000000000         100000          
CRAIGII             R001001AReturn                                  RN         1         10000000000         100000          
CREATE_PROMPT_FILE  A001001AImporting Package Folder                RA         1       2560000000000         000000          
CREATE_PROMPT_FILE  A002002BRequested File Type                     RA         1        200000000000         000000          
CREATE_PROMPT_FILE  R001003CReturn code                             RA         2         20000000000         000000          
CREATE_PROMPT_FILE  R002004Dthe newly created file                  OA         1       2560000000000         000000          
CREATE_SPACE        A001001ASpace Object Name                       RA         1       2560000000000       25600000          
CREATE_SPACE        R001002BReturn Code (OK or ER)                  OA         2         20000000000         200000          
DATEDIFFERENCE      A001001AStart/First date                        RN         1         80000000000         800000          
DATEDIFFERENCE      A002002BFormat of start/first date              RA         1         10000000000         100000          
DATEDIFFERENCE      A003003CEnd/second date                         RN         1         80000000000         800000          
DATEDIFFERENCE      A004004DFormat of End/Second date               RA         1         10000000000         100000          
DATEDIFFERENCE      R001005EDifference (start-end date) in days     RN         3         80000000000         800000          
DATEDIFFERENCE      R002006FSign of difference (+ or - )            OA         1         10000000000         100000          
DATEDIFFERENCE      R003007GReturn code (Y/N)                       OA         1         10000000000         100000          
DATEDIFFERENCE_ALPHAA001001AStart/First date                        RA         1        100000000000        1000000          
DATEDIFFERENCE_ALPHAA002002BFormat of start/first date              RA         1         10000000000         100000          
DATEDIFFERENCE_ALPHAA003003CEnd/second date                         RA         1        100000000000        1000000          
DATEDIFFERENCE_ALPHAA004004DFormat of End/Second date               RA         1         10000000000         100000          
DATEDIFFERENCE_ALPHAR001005EDifference (start-end date) in days     RN         3         80000000000         800000          
DATEDIFFERENCE_ALPHAR002006FSign of difference (+ or - )            OA         1         10000000000         100000          
DATEDIFFERENCE_ALPHAR003007GReturn code (Y/N)                       OA         1         10000000000         100000          
DBIF002             A001001Aaa                                      RA         1         10000000000         100000          
DBIF003             A001001Aaa                                      RA         1         10000000000         100000          
DBIF004             A001001Aaa                                      RA         1         10000000000         100000          
DECODE_LICENSE      A001001ALicense Code                            RA        65        650000000000        6500000          
DECODE_LICENSE      R001002BCPU Identifier                          RA         8         80000000000         800000          
DECODE_LICENSE      R002003CModel                                   RA         4         40000000000         400000          
DECODE_LICENSE      R003004DProcessor Feature                       RA         4         40000000000         400000          
DECODE_LICENSE      R004005ELPAR Number                             RA         5         50000000000         500000          
DECODE_LICENSE      R005006FProduct Code                            RA        24        240000000000        2400000          
DECODE_LICENSE      R006007GNumber of Seats                         RA         3         30000000000         300000          
DECODE_LICENSE      R007008HStart Date                              RA         8         80000000000         800000          
DECODE_LICENSE      R008009IEnd Date                                RA         8         80000000000         800000          
DECODE_LICENSE      R009010JReturn Code                             OA         2         20000000000         200000'OK'      
DECRYPT             A001001AText to be decrypted                    RA         821474836470000000000       25600000          
DECRYPT             A002002BLength of text to be decrypted          RN         1        110000000000        1100000          
DECRYPT             A003003CKey to be used to decrypt               Ru        16        320000000000        3200000          
DECRYPT             A004006FEncrypted data is in HEX format         OA         2         30000000000         000000'NO'      
DECRYPT             R001004DReturned decrypted text                 Ru         121474836400000000000       25600000          
DECRYPT             R002005EReturn code (OK,ER)                     OA         2         20000000000         200000*BLANKS   
DEFINE_ANY_SERVER   A001001AServer symbolic name ( SSN )            RA         1        100000000000        1000000          
DEFINE_ANY_SERVER   A002002BLU partner name                         RA         1        200000000000        2000000          
DEFINE_ANY_SERVER   A003003CStart commitment control                RA         1         10000000000         100000          
DEFINE_ANY_SERVER   A004004DX_RUN arguments                         OA         1       2560000000000       25600000*BLANKS   
DEFINE_ANY_SERVER   A005005EDivert LOCK_OBJECT requests             OA         1         10000000000         100000'Z'       
DEFINE_ANY_SERVER   A006006FShow "Please Wait" message              OA         1         10000000000         100000'Y'       
DEFINE_ANY_SERVER   A007007GExecution priority                      OA         1         20000000000         200000'20'      
DEFINE_ANY_SERVER   A008008HClient to server conversion table       OA         1        100000000000        1000000'*JOB'    
DEFINE_ANY_SERVER   A009009IServer to client conversion table       OA         1        100000000000        1000000'*JOB'    
DEFINE_ANY_SERVER   R001010JReturn code                             RA         2         20000000000         200000          
DEFINE_DB_SERVER    A001001ASSN (Server Symbolic Name)              RA         1        100000000000        1000000          
DEFINE_DB_SERVER    A002002BDatabase identifier                     RA         1        320000000000        3200000          
DEFINE_DB_SERVER    A003003CConnection parameter overrides          OA         1       2560000000000       25600000*BLANKS   
DEFINE_DB_SERVER    A004004DRRN path override                       OA         1       2560000000000       25600000*BLANKS   
DEFINE_DB_SERVER    A005005EDatabase type override                  OA         1        320000000000        3200000*BLANKS   
DEFINE_DB_SERVER    A006006FODBI= Override trans isolation level    OA         1         10000000000         100000*BLANK    
DEFINE_DB_SERVER    A007007GODBA= Override connection method        OA         1         10000000000         100000*BLANK    
DEFINE_DB_SERVER    R001008HReturn code, OK Server defined, ER errorRA         2         20000000000         200000          
DEFINE_OS_400_SERVERA001001AServer Symbolic Name (SSN)              RA         1        100000000000        1000000          
DEFINE_OS_400_SERVERA002002BNetwork Name of Server                  RA         1        200000000000        2000000          
DEFINE_OS_400_SERVERA003003CCommitment Control Enabled              RA         1         10000000000         100000          
DEFINE_OS_400_SERVERA004004DDBCS Capable Server                     OA         1         10000000000         100000'N'       
DEFINE_OS_400_SERVERA005005EDivert LOCK_OBJECTs to Server           OA         1         10000000000         100000'N'       
DEFINE_OS_400_SERVERA006006FShow Startup / Connection Wait Message  OA         1         10000000000         100000'Y'       
DEFINE_OS_400_SERVERA007007GOS/400 Execution Priority               OA         2         20000000000         200000'20'      
DEFINE_OS_400_SERVERA008008HClient to Server Conversion Table Name  OA         1        100000000000        1000000'QEBCDIC' 
DEFINE_OS_400_SERVERA009009IServer to Client Conversion Table Name  OA         1        100000000000        1000000'QASCII'  
DEFINE_OS_400_SERVERR001010JReturn Code ("OK" or "ER")              RA         2         20000000000         200000          
DEFINE_OTHER_SERVER A001001AServer Symbolic Name (SSN)              RA         1        100000000000        1000000          
DEFINE_OTHER_SERVER A002002BNetwork Name of Server                  RA         1        200000000000        2000000          
DEFINE_OTHER_SERVER A003003CDivert LOCK_OBJECTs to Server           OA         1         10000000000         100000'N'       
DEFINE_OTHER_SERVER A004004DShow Startup / Connection Wait Message  OA         1         10000000000         100000'Y'       
DEFINE_OTHER_SERVER A005005EServer X_RUN Exceptional Arguments      OA         1       2560000000000       25600000'*N'      
DEFINE_OTHER_SERVER A006006FServer Dependent Exceptional Argumemts  OA         1       2560000000000       25600000'*N'      
DEFINE_OTHER_SERVER A007007GFuture Expansion 1 (not implemented)    OA         1       2560000000000       25600000'*N'      
DEFINE_OTHER_SERVER A008008HFuture Expansion 2 (not implemented)    OA         1       2560000000000       25600000'*N'      
DEFINE_OTHER_SERVER R001010IReturn Code ("OK" or "ER")              RA         2         20000000000         200000          
DEFINE_OVERRIDE_FILEA001001AFile Library Name                       OA         1        100000000000         000000*BLANKS   
DEFINE_OVERRIDE_FILEA002002BFile Name                               OA         1        100000000000         000000*BLANKS   
DEFINE_OVERRIDE_FILEA003003COverride Database Table Owner           OA         1       1280000000000         000000*BLANKS   
DEFINE_OVERRIDE_FILEA004004DOverride Database Table Name            OA         1       1280000000000         000000*BLANKS   
DEFINE_OVERRIDE_FILER001005EReturn code                             RA         2         20000000000         000000          
DEFINE_SPACE_CELL   A001001ASpace Object Name                       RA         1       2560000000000       25600000          
DEFINE_SPACE_CELL   A002002BName of prototype field (without # sign)RA         1        100000000000        1000000          
DEFINE_SPACE_CELL   A003003CCell attributes (eg KEY DESCEND NOCASE) OA         1       2560000000000       25600000*BLANKS   
DEFINE_SPACE_CELL   R001004DReturn Code (OK or ER)                  OA         2         20000000000         200000          
DEFINE_VL_400_SERVERA001001AServer Symbolic Name (SSN)              RA         1        100000000000        1000000          
DEFINE_VL_400_SERVERA002002BNetwork Name of Server                  RA         1        200000000000        2000000          
DEFINE_VL_400_SERVERA003003CDivert LOCK_OBJECTs to Server           OA         1         10000000000         100000'N'       
DEFINE_VL_400_SERVERA004004DShow Startup / Connection Wait Message  OA         1         10000000000         100000'Y'       
DEFINE_VL_400_SERVERA005005EServer X_RUN Exceptional Arguments      OA         1       2560000000000       25600000'*N'      
DEFINE_VL_400_SERVERA006006FOS/400 Execution Priority               OA         2         20000000000         200000'20'      
DEFINE_VL_400_SERVERA007007GClient to Server Conversion Table Name  OA         1        100000000000        1000000'QEBCDIC' 
DEFINE_VL_400_SERVERA008008HServer to Client Conversion Table Name  OA         1        100000000000        1000000'QASCII'  
DEFINE_VL_400_SERVERA009009IServer Dependent Exceptional Arguments  OA         1       2560000000000       25600000'*N'      
DEFINE_VL_400_SERVERA010010JFuture Expansion 1 (not implemented)    OA         1       2560000000000       25600000'*N'      
DEFINE_VL_400_SERVERA011011KFuture Explansion 2 (not implemented)   OA         1       2560000000000       25600000'*N'      
DEFINE_VL_400_SERVERR001012LReturn Code ("OK" or "ER")              RA         2         20000000000         200000          
DEJBIF              A001001AArgument 1                              RN         1        150000000000        1500000          
DEJBIF              A002002BArgument 2                              OA         1         60000000000         600000*TIMEC    
DELETE_CHECKS       A001001ALevel of validation checks ("D" or "F") RA         1         10000000000         100000          
DELETE_CHECKS       A002002BName of field in dictionary or file     RA         1        100000000000        1000000          
DELETE_CHECKS       A003003CSequence number to control deletion     RN         1         30000000000         300000          
DELETE_CHECKS       A004004DGeneric description of check            RA         1        300000000000        3000000          
DELETE_CHECKS       R001005EReturn code ("OK" or "ER")              RA         2         20000000000         200000          
DELETE_CTD          A001001AFile Name                               RA         1        100000000000         000000          
DELETE_CTD          A002002BLibrary Name                            OA         1       1280000000000         000000          
DELETE_CTD          A003003CCTD File Location Level                 OA         1         10000000000         000000A         
DELETE_CTD          A004004DDelete OAM as well                      OA         1         10000000000         000000N         
DELETE_CTD          R001005EReturn                                  RA         2         20000000000         000000          
DELETE_FUNCTION     R001001AReturn Code                             RA         2         20000000000         200000          
DELETE_IN_SPACE     A001001ASpace Object Name                       RA         1       2560000000000       25600000*BLANKS   
DELETE_IN_SPACE     A002002BKey Value 1                             Ow         121474836470000032767       25600000*BLANKS   
DELETE_IN_SPACE     A003003CKey Value 2                             Ow         121474836470000032767       25600000*BLANKS   
DELETE_IN_SPACE     A004004DKey Value 3                             Ow         121474836470000032767       25600000*BLANKS   
DELETE_IN_SPACE     A005005DKey Value 4                             Ow         121474836470000032767       25600000*BLANKS   
DELETE_IN_SPACE     A006006DKey Value 5                             Ow         121474836470000032767       25600000*BLANKS   
DELETE_IN_SPACE     A007007DKey Value 6                             Ow         121474836470000032767       25600000*BLANKS   
DELETE_IN_SPACE     A008008DKey Value 7                             Ow         121474836470000032767       25600000*BLANKS   
DELETE_IN_SPACE     A009009DKey Value 8                             Ow         121474836470000032767       25600000*BLANKS   
DELETE_IN_SPACE     A010010DKey Value 9                             Ow         121474836470000032767       25600000*BLANKS   
DELETE_IN_SPACE     A011011DKey Value 10                            Ow         121474836470000032767       25600000*BLANKS   
DELETE_IN_SPACE     A012012DKey Value 11                            Ow         121474836470000032767       25600000*BLANKS   
DELETE_IN_SPACE     A013013DKey Value 12                            Ow         121474836470000032767       25600000*BLANKS   
DELETE_IN_SPACE     A014014DKey Value 13                            Ow         121474836470000032767       25600000*BLANKS   
DELETE_IN_SPACE     A015015DKey Value 14                            Ow         121474836470000032767       25600000*BLANKS   
DELETE_IN_SPACE     A016016DKey Value 15                            Ow         121474836470000032767       25600000*BLANKS   
DELETE_IN_SPACE     A017017DKey Value 16                            Ow         121474836470000032767       25600000*BLANKS   
DELETE_IN_SPACE     A018018DKey Value 17                            Ow         121474836470000032767       25600000*BLANKS   
DELETE_IN_SPACE     A019019DKey Value 18                            Ow         121474836470000032767       25600000*BLANKS   
DELETE_IN_SPACE     A020020DKey Value 19                            Ow         121474836470000032767       25600000*BLANKS   
DELETE_IN_SPACE     R001021DReturn Code (OK or ER)                  OA         2         20000000000       25600000*BLANKS   
DELETE_LANSA_OBJECT A001001AObject Name                             RA         1       2560000000000       25600000          
DELETE_LANSA_OBJECT A002002BObject Extension                        RA         1        100000000000        1000000          
DELETE_LANSA_OBJECT A003003CLANSA Object Type                       RA         1         20000000000         200000          
DELETE_LANSA_OBJECT A004004DPrimary Extension Name                  OA         1         30000000000         300000*BLANKS   
DELETE_LANSA_OBJECT A005005EInput or Ouput Visual                   OA         1         10000000000         100000*BLANKS   
DELETE_LANSA_OBJECT A006006FSecondary Extension Name                OA         1         50000000000         500000*BLANKS   
DELETE_LANSA_OBJECT A007007GComponent type                          OA        10        100000000000        1000000*BLANKS   
DELETE_LANSA_OBJECT R001008HReturn Code                             RA         2         20000000000         200000          
DELETE_PROCESS      A001001AName of process to be deleted           RA         1        100000000000        1000000          
DELETE_PROCESS      A002002BName of batch job                       OA         1        100000000000        1000000'*PROCESS'
DELETE_PROCESS      A003003CName of job description                 OA         1        210000000000        2100000'*N'      
DELETE_PROCESS      A004004DName of job queue                       OA         1        210000000000        2100000'*N'      
DELETE_PROCESS      A005005EName of output queue                    OA         1        210000000000        2100000'*N'      
DELETE_PROCESS      R001006FSuccessful submit return code 'OK'/'ER' RA         2         20000000000         200000          
DELETE_SAVED_LIST   A001001AName of previously saved list           RA         1        100000000000        1000000          
DELETE_TRIGGERS     A001001ALevel of trigger ("D" or "F")           RA         1         10000000000         100000          
DELETE_TRIGGERS     A002002BName of field in dictionary or file     RA         1        100000000000        1000000          
DELETE_TRIGGERS     A003003CSequence number to control deletion     RN         1         30000000000         300000          
DELETE_TRIGGERS     A004004DGeneric description of trigger          RA         1        300000000000        3000000          
DELETE_TRIGGERS     R001005EReturn Code ("OK" or "ER")              RA         2         20000000000         200000          
DELETE_WEB_COMPONENTA001001AWeb component                           RA         1        200000000000        2000000          
DELETE_WEB_COMPONENTA002002BMode                                    RA         1         10000000000         100000          
DELETE_WEB_COMPONENTA003003CLanguage                                OA         1         40000000000         400000'*DFT'    
DELETE_WEB_COMPONENTR001004DReturn code                             OA         2         20000000000         200000          
DESTROY_SPACE       A001001ASpace Object Name                       RA         1       2560000000000       25600000          
DESTROY_SPACE       R001002BReturn Code (OK or ER)                  OA         2         20000000000         200000          
DISCONNECT_FILE     A001001APhysical File or SQL Table Name         RA         1        100000000000        1000000          
DISCONNECT_FILE     A002002BSSN (Server Symbolic Name) of Server    RA         1        100000000000        1000000          
DISCONNECT_SERVER   A001001AServer Symbolic Name (SSN)              RA         1        100000000000        1000000          
DISCONNECT_SERVER   R001002BReturn Code ("OK" or "ER")              RA         2         20000000000         200000          
DLL                 A001001ADLL Alias Name         (in X_USEDLL.DAT)RA         1        500000000000        5000000          
DLL                 A002002BEntry Point Alias Name (in X_USEDLL.DAT)RA         1        500000000000        5000000          
DLL                 A003003CEntry Point Logical Parameter 1         Ow         121474836470000000000        3000000*LOVAL    
DLL                 A004004DEntry Point Logical Parameter 2         Ow         121474836470000000000        3000000*LOVAL    
DLL                 A005005EEntry Point Logical Parameter 3         OX         121474836470000000000        3000000*LOVAL    
DLL                 A006006FEntry Point Logical Parameter 4         OX         121474836470000000000        3000000*LOVAL    
DLL                 A007007GEntry Point Logical Parameter 5         OX         121474836470000000000        3000000*LOVAL    
DLL                 A008008HEntry Point Logical Parameter 6         OX         121474836470000000000        3000000*LOVAL    
DLL                 A009009IEntry Point Logical Parameter 7         OX         121474836470000000000        3000000*LOVAL    
DLL                 A010010JEntry Point Logical Parameter 8         OX         121474836470000000000        3000000*LOVAL    
DLL                 A011011KEntry Point Logical Parameter 9         OX         121474836470000000000        3000000*LOVAL    
DLL                 A012012LEntry Point Logical Parameter 10        OX         121474836470000000000        3000000*LOVAL    
DLL                 A013013MEntry Point Logical Parameter 11        OX         121474836470000000000        3000000*LOVAL    
DLL                 A014014NEntry Point Logical Parameter 12        OX         121474836470000000000        3000000*LOVAL    
DLL                 A015015OEntry Point Logical Parameter 12A       OX         121474836470000000000        3000000*LOVAL    
DLL                 A016016PEntry Point Logical Parameter 14        OX         121474836470000000000        3000000*LOVAL    
DLL                 A017017QEntry Point Logical Parameter 15        OX         121474836470000000000        3000000*LOVAL    
DLL                 A018018REntry Point Logical Parameter 16        OX         121474836470000000000        3000000*LOVAL    
DLL                 A019019SEntry Point Logical Parameter 17        OX         121474836470000000000        3000000*LOVAL    
DLL                 A020020TEntry Point Logical Parameter 18        OX         121474836470000000000        3000000*LOVAL    
DLL                 R001021UReturn Code (OK=Okay, ER=Error)         OA         2         20000000000         200000*BLANKS   
DLL                 R002022VEntry Point Logical Return Value 1      OX         1        300000000000        3000000*LOVAL    
DLL                 R003023WEntry Point Logical Return Value 2      OX         121474836470000000000        3000000*LOVAL    
DLL                 R004024XEntry Point Logical Return Value 3      OX         121474836470000000000        3000000*LOVAL    
DLL                 R005025YEntry Point Logical Return Value 4      OX         121474836470000000000        3000000*LOVAL    
DLL                 R006026ZEntry Point Logical Return Value 5      OX         121474836470000000000        3000000*LOVAL    
DLL                 R0070270Entry Point Logical Return Value 6      OX         121474836470000000000        3000000*LOVAL    
DLL                 R0080281Entry Point Logical Return Value 7      OX         121474836470000000000        3000000*LOVAL    
DLL                 R0090292Entry Point Logical Return Value 8      OX         121474836470000000000        3000000*LOVAL    
DLL                 R0100303Entry Point Logical Return Value 9      OX         121474836470000000000        3000000*LOVAL    
DLL                 R0110314Entry Point Logical Return Value 10     OX         121474836470000000000        3000000*LOVAL    
DLL                 R0120325Entry Point Logical Return Value 11     OX         121474836470000000000        3000000*LOVAL    
DLL                 R0130336Entry Point Logical Return Value 12     OX         121474836470000000000        3000000*LOVAL    
DLL                 R0140347Entry Point Logical Return Value 12A    OX         121474836470000000000        3000000*LOVAL    
DLL                 R0150358Entry Point Logical Return Value 14     OX         121474836470000000000        3000000*LOVAL    
DLL                 R0160369Entry Point Logical Return Value 15     OX         121474836470000000000        3000000*LOVAL    
DLL                 R017037$Entry Point Logical Return Value 16     OX         121474836470000000000        3000000*LOVAL    
DLL                 R018038#Entry Point Logical Return Value 17     OX         121474836470000000000        3000000*LOVAL    
DLL                 R019039@Entry Point Logical Return Value 18     OX         121474836470000000000        3000000*LOVAL    
DLL                 R020040 Entry Point Logical Return Value 19     OX         121474836470000000000        3000000*LOVAL    
DLT_FIELD           A001001AField name                              RA         1        100000000000        1000000          
DLT_FIELD           R001002BReturn code                             RA         2         20000000000         200000          
DLT_FILE            A001001AName of file to be deleted              RA         1        100000000000        1000000          
DLT_FILE            A002002BFile library                            RA         1        100000000000        1000000          
DLT_FILE            A003003CBatch job name                          OA         1        100000000000        1000000'*FILE'   
DLT_FILE            A004004DJob description name                    OA         1        210000000000        2100000'*N'      
DLT_FILE            A005005EJob queue name                          OA         1        210000000000        2100000'*N'      
DLT_FILE            A006006FOutput queue name                       OA         1        210000000000        2100000'*N'      
DLT_FILE            R001007GSuccessful submit return code "OK"/"ER" RA         2         20000000000         200000          
DLT_PROCESS_ATTACH  A001001ALowest Sequencing Number to Delete      RN         1         30000000000         300000          
DLT_PROCESS_ATTACH  R001002BReturn Code                             RA         2         20000000000         200000          
DLT_REGISTRY_VALUE  A001001ARegistry root eg. HKEY_LOCAL_MACHINE    RA         1       2560000000000         000000          
DLT_REGISTRY_VALUE  A002002BRegistry path                           RA         1       2560000000000         000000          
DLT_REGISTRY_VALUE  A003003CRegistry Key Name                       OA         1       2560000000000         000000*BLANKS   
DLT_REGISTRY_VALUE  A004005EForce Registry (32 or 64)               ON         1         40000000000         400000          
DLT_REGISTRY_VALUE  R001004DReturn Code (OK/ER)                     RA         2         20000000000         000000          
DOM_ADD_FIELD       A001001ADocument/Data Note Handle               RA         4         40000000000         400000          
DOM_ADD_FIELD       A002002BItem/Field to be added to note          RA         1        650000000000        6500000          
DOM_ADD_FIELD       A003003CItem Type in note                       RN         1         70000000000         700000          
DOM_ADD_FIELD       A004004DAlphanumeric field value                OA         1       2560000000000       25600000*BLANKS   
DOM_ADD_FIELD       A005005ENumeric field value                     ON         1        150000000009        3000009*ZERO     
DOM_ADD_FIELD       R001006FReturn Code                             RA         2         20000000000         200000          
DOM_ADD_ITEM        A001001ADocument/Data Note Handle               RA         4         40000000000         400000          
DOM_ADD_ITEM        A002002BItem/Field to be added to note          RA         1        650000000000        6500000          
DOM_ADD_ITEM        A003003CItem Type in note                       RN         1         70000000000         700000          
DOM_ADD_ITEM        A004004DAlphanumeric field value                OA         121474836470000000000       25600000*BLANKS   
DOM_ADD_ITEM        A005005ENumeric field value                     ON         1        150000000009        3000009*ZERO     
DOM_ADD_ITEM        R001006FReturn Code                             RA         2         20000000000         200000          
DOM_CLOSE_DATABASE  A001001ADatabase Handle                         RA         4         40000000000         400000          
DOM_CLOSE_DATABASE  R001002BReturn Code                             RA         2         20000000000         200000          
DOM_CLOSE_DOCUMENT  A001001ANote Handle                             RA         4         40000000000         400000          
DOM_CLOSE_DOCUMENT  R001002BReturn Code                             RA         2         20000000000         200000          
DOM_CLOSE_FILE      A001001ADatabase Handle                         RA         4         40000000000         400000          
DOM_CLOSE_FILE      R001002BReturn Code                             RA         2         20000000000         200000          
DOM_CREATE_DOCUMENT A001001ADatabase Handle                         RA         4         40000000000         400000          
DOM_CREATE_DOCUMENT R001002BReturn Code                             RA         2         20000000000         200000          
DOM_CREATE_DOCUMENT R002003CDocument/Note Handle                    RA         4         40000000000         400000          
DOM_DELETE_DOCUMENT A001001ADatabase Handle                         RA         4         40000000000         400000          
DOM_DELETE_DOCUMENT A002002BNote ID                                 RN         1        150000000000        1500000          
DOM_DELETE_DOCUMENT R001003CReturn Code                             RA         2         20000000000         200000          
DOM_DELETE_FIELD    A001001ADocument/Note Handle                    RA         4         40000000000         400000          
DOM_DELETE_FIELD    A002002BItem/Field to be deleted                RA         1        650000000000        6500000          
DOM_DELETE_FIELD    R001003CReturn Code                             RA         2         20000000000         200000          
DOM_DELETE_ITEM     A001001ADocument/Note Handle                    RA         4         40000000000         400000          
DOM_DELETE_ITEM     A002002BItem/Field to be deleted                RA         1        650000000000        6500000          
DOM_DELETE_ITEM     R001003CReturn Code                             RA         2         20000000000         200000          
DOM_END_SEARCH_DOCS A001001AID Table Handle                         RA         4         40000000000         400000          
DOM_END_SEARCH_DOCS R001002BReturn Code                             RA         2         20000000000         200000          
DOM_EXECUTE_AGENT   A001001ADatabase Handle                         RA         4         40000000000         400000          
DOM_EXECUTE_AGENT   A002002BAgent Name                              RA         1       1280000000000       12800000          
DOM_EXECUTE_AGENT   R001003CReturn Code                             RA         2         20000000000         200000          
DOM_GET_FIELD       A001001ADocument/Note Handle                    RA         4         40000000000         400000          
DOM_GET_FIELD       A002002BItem/Field whose value is to be returnedRA         1        650000000000        6500000          
DOM_GET_FIELD       A003003CItem Type in note                       RN         1         70000000000         700000          
DOM_GET_FIELD       A004004DEntry position for text list item       ON         1        150000000000        1500000*ZERO     
DOM_GET_FIELD       R001005EReturn Code                             RA         2         20000000000         200000          
DOM_GET_FIELD       R002006FAlphanumeric field value                OA         1       2560000000000       25600000*BLANKS   
DOM_GET_FIELD       R003007GNumeric field value                     ON         1        150000000009        3000009*ZERO     
DOM_GET_ITEM        A001001ADocument/Note Handle                    RA         4         40000000000         400000          
DOM_GET_ITEM        A002002BItem/Field whose value is to be returnedRA         1        650000000000        6500000          
DOM_GET_ITEM        A003003CItem Type in note                       RN         1         70000000000         700000          
DOM_GET_ITEM        A004004DEntry position for text list item       ON         1        150000000000        1500000*ZERO     
DOM_GET_ITEM        R001005EReturn Code                             RA         2         20000000000         200000          
DOM_GET_ITEM        R002006FAlphanumeric field value                OA         1       2560000000000       25600000*BLANKS   
DOM_GET_ITEM        R003007GNumeric field value                     ON         1        150000000009        3000009*ZERO     
DOM_GET_NXT_DOCUMENTA001001AID Table Handle                         RA         4         40000000000         400000          
DOM_GET_NXT_DOCUMENTA002002BPrevious Note ID                        RN         1        150000000000        1500000          
DOM_GET_NXT_DOCUMENTR001003CReturn Code                             RA         2         20000000000         200000          
DOM_GET_NXT_DOCUMENTR002004DNote ID returned                        RN         1        150000000000        1500000          
DOM_OPEN_DATABASE   A001001ADomino/Notes database file name         RA         1       2550000000000       25500000          
DOM_OPEN_DATABASE   A002002BNetwork Port Name                       OA         1        320000000000        3200000*BLANKS   
DOM_OPEN_DATABASE   A003003CDomino Server Name                      OA         1       2550000000000       25500000*BLANKS   
DOM_OPEN_DATABASE   R001004DReturn Code                             RA         2         20000000000         200000          
DOM_OPEN_DATABASE   R002005EDatabase Handle                         RA         4         40000000000         400000          
DOM_OPEN_DOCUMENT   A001001ADatabase Handle                         RA         4         40000000000         400000          
DOM_OPEN_DOCUMENT   A002002BNote ID                                 RN         1        150000000000        1500000          
DOM_OPEN_DOCUMENT   R001003CReturn Code                             RA         2         20000000000         200000          
DOM_OPEN_DOCUMENT   R002004DNote Handle                             RA         4         40000000000         400000          
DOM_OPEN_FILE       A001001ADomino/Notes database file name         RA         1       2550000000000       25500000          
DOM_OPEN_FILE       A002002BNetwork Port Name                       OA         1        320000000000        3200000*BLANKS   
DOM_OPEN_FILE       A003003CDomino Server Name                      OA         1       2550000000000       25500000*BLANKS   
DOM_OPEN_FILE       R001004DReturn Code                             RA         2         20000000000         200000          
DOM_OPEN_FILE       R002005EDatabase Handle                         RA         4         40000000000         400000          
DOM_SEARCH_DOCUMENTSA001001ADatabase Handle                         RA         4         40000000000         400000          
DOM_SEARCH_DOCUMENTSA002002BSearch Type - View/Criteria/None        RA         1         10000000000         100000          
DOM_SEARCH_DOCUMENTSA003003CView Name                               OA         1       1280000000000       12800000*BLANKS   
DOM_SEARCH_DOCUMENTSA004004DSearch Criteria                         OA         1       2550000000000       25500000*BLANKS   
DOM_SEARCH_DOCUMENTSR001005EReturn Code                             RA         2         20000000000         200000          
DOM_SEARCH_DOCUMENTSR002006FID Table Handle                         RA         4         40000000000         400000          
DOM_SEARCH_DOCUMENTSR003007GNo. Note IDs in the ID Table            ON         1        150000000000        1500000*ZERO     
DOM_UPDATE_DOCUMENT A001001ADocument/Note Handle                    RA         4         40000000000         400000          
DOM_UPDATE_DOCUMENT R001002BReturn Code                             RA         2         20000000000         200000          
DOM_UPDATE_FIELD    A001001ADocument/Note Handle                    RA         4         40000000000         400000          
DOM_UPDATE_FIELD    A002002BItem/Field whose value is to be updated RA         1        650000000000        6500000          
DOM_UPDATE_FIELD    A003003CItem Type in note                       RN         1         70000000000         700000          
DOM_UPDATE_FIELD    A004004DAlphanumeric field value                OA         1       2560000000000       25600000*BLANKS   
DOM_UPDATE_FIELD    A005005ENumeric field value                     ON         1        150000000009        3000009*ZERO     
DOM_UPDATE_FIELD    R001006FReturn Code                             RA         2         20000000000         200000          
DOM_UPDATE_ITEM     A001001ADocument/Note Handle                    RA         4         40000000000         400000          
DOM_UPDATE_ITEM     A002002BItem/Field whose value is to be updated RA         1        650000000000        6500000          
DOM_UPDATE_ITEM     A003003CItem Type in note                       RN         1         70000000000         700000          
DOM_UPDATE_ITEM     A004004DAlphanumeric field value                OA         1       2560000000000       25600000*BLANKS   
DOM_UPDATE_ITEM     A005005ENumeric field value                     ON         1        150000000009        3000009*ZERO     
DOM_UPDATE_ITEM     R001006FReturn Code                             RA         2         20000000000         200000          
DROP_DD_VALUES      A001001ADropdown list name                      RA         4         40000000000         400000          
DROP_DD_VALUES      R001002BReturn code                             RA         2         20000000000         200000          
ENCRYPT             A001001AText to be encrypted                    Ru         821474836400000000000       25600000          
ENCRYPT             A002002BLength of text to be encrypted          RN         1        110000000000        1100000          
ENCRYPT             A003003CKey to be used for encrpytion           Ou        16        320000000000        3200000*BLANKS   
ENCRYPT             A004007GReturn encrypted value in HEX           OA         2         30000000000         000000'NO'      
ENCRYPT             R001004DReturned encrypted text                 RA         821474836400000000000       25600000          
ENCRYPT             R002005EReturn code (OK, ER)                    OA         2         20000000000         200000*BLANKS   
ENCRYPT             R003006FKey used when no key argument passed    Ou        16        320000000000        3200000*BLANKS   
END_FILE_EDIT       A001001ACommit amendments to file definiton Y/N RA         1         10000000000         100000          
END_FILE_EDIT       R001002BReturn code (OK/ER)                     RA         2         20000000000         200000          
END_FUNCTION_EDIT   R001001AReturn Code                             RA         2         20000000000         200000          
END_PROCESS_EDIT    R001001AReturn Code                             RA         2         20000000000         200000          
END_RTV_SPLF_LIST   R001001AReturn Code                             OA         2         20000000000         200000          
ENVIRONMENT_VARIABLEA001001AAction (G, S)                           RA         1         10000000000         100000          
ENVIRONMENT_VARIABLEA002002BEnvironment variable name               RA         1       2560000000000       25600000          
ENVIRONMENT_VARIABLEA003003CNew value                               OA         1       2560000000000       25600000          
ENVIRONMENT_VARIABLER001004DReturn Code (OK, ER)                    OA         2         20000000000         200000          
ENVIRONMENT_VARIABLER002005EValue at time of call                   OA         1       2560000000000       25600000          
EVAL_SYSTEM_VARIABLEA001001ASystem Variable Name                    RA         2        200000000000        2000000          
EVAL_SYSTEM_VARIABLEA002002BData Type (Alpha/Numeric)               RA         1         10000000000         100000          
EVAL_SYSTEM_VARIABLEA003003CLength                                  RN         3         30000000000         300000          
EVAL_SYSTEM_VARIABLEA004004DDecimals                                RN         1         10000000000         100000          
EVAL_SYSTEM_VARIABLEA005005EEvaluation type (FUN/3GL)               RA         3         30000000000         300000          
EVAL_SYSTEM_VARIABLEA006006FEvaluation Program / Function           RA        10        100000000000        1000000          
EVAL_SYSTEM_VARIABLER001007GReturn Code (OK/ER)                     RA         2         20000000000         200000          
EVAL_SYSTEM_VARIABLER002008HAlphanumeric Value                      RA       256       2560000000000       25600000          
EVAL_SYSTEM_VARIABLER003009INumeric Value                           RN        30        300000900009        3000009          
EXCHANGE_ALPHA_VAR  A001001AField name to be exchanged              RA         1        100000000000        1000000          
EXCHANGE_ALPHA_VAR  A002002BAlphameric value                        RA         121474836470000000000       25600000          
EXCHANGE_NUMERIC_VARA001001AField name                              RA         1        100000000000        1000000          
EXCHANGE_NUMERIC_VARA002002BNumeric Value                           RN         121474836470000032767        3000009          
EXCHANGE_VARIABLE   A001001AField Name                              RA         1        100000000000         000000          
EXCHANGE_VARIABLE   A002002BValue                                   RX         121474836400000000000         000000          
EXECUTE_TEMPLATE    A001001AName of Application Template            RA         1        100000000000        1000000          
EXECUTE_TEMPLATE    R001002BReturn Code                             RA         2         20000000000         200000          
EXECUTE_TEMPLATE    R002003CList containing RDML code               RL        72        720000000000        7200000          
EXPONENTIAL         A001001AExponent digit portion                  RN         1        150000000009        1300000          
EXPONENTIAL         A002002BExponent decimal portion                RN         1        150000000009         500005          
EXPONENTIAL         A003003CMantissa digit portion                  RN         1        150000000009        1300000          
EXPONENTIAL         A004004DMantissa decimal portion                RN         1        150000000009         500005          
EXPONENTIAL         A005005ERound the result (Y/N)                  OA         1         10000000000         100000'N'       
EXPONENTIAL         R001006FResult digit portion                    RN         1        150000000009        1300000          
EXPONENTIAL         R002007GResult decimal portion                  ON         1        150000000009         500005          
EXPONENTIAL         R003008HReturn code (Y/N)                       OA         1         10000000000         100000          
EXPORT_OBJECTS      A001001AWorking list of objects to be exported  RL        32        320000000000         000000          
EXPORT_OBJECTS      A002002BExport directory                        RA         1       2560000000000         000000          
EXPORT_OBJECTS      A003003CExport whole partition                  OA         1         10000000000         000000'N'       
EXPORT_OBJECTS      A004004DAppend to existing files                OA         1         10000000000         000000'Y'       
EXPORT_OBJECTS      A005005EExport system definition (LX_F46/LX_F96)OA         1         10000000000         000000'Y'       
EXPORT_OBJECTS      A006006FExport to development system            OA         1         10000000000         000000'N'       
EXPORT_OBJECTS      A007008HReset build status Y/N, default = N     OA         1         10000000000         100000'N'       
EXPORT_OBJECTS      A008009IImport Library Directives               OL       195       1950000000000         000000          
EXPORT_OBJECTS      A009010JSilent Mode                             OA         1         10000000000         000000'N'       
EXPORT_OBJECTS      R001007GReturn code                             RA         2         20000000000         000000          
F0311B2             R001001AReturn                                  RN         1         10000000000         100000          
F0311B3             R001001AReturn                                  RN         1         10000000000         100000          
F0311C2             R001001AReturn                                  RN         1         10000000000         100000          
F0311D2             R001001AReturn                                  RN         1         10000000000         100000          
FETCH_IN_SPACE      A001001ASpace Object Name                       RA         1       2560000000000       25600000*BLANKS   
FETCH_IN_SPACE      A002002BKey Value 1                             Ow         121474836470000032767       25600000*BLANKS   
FETCH_IN_SPACE      A003003CKey Value 2                             Ow         121474836470000032767       25600000*BLANKS   
FETCH_IN_SPACE      A004004DKey Value 3                             Ow         121474836470000032767       25600000*BLANKS   
FETCH_IN_SPACE      A005005DKey Value 4                             Ow         121474836470000032767       25600000*BLANKS   
FETCH_IN_SPACE      A006006DKey Value 5                             Ow         121474836470000032767       25600000*BLANKS   
FETCH_IN_SPACE      A007007DKey Value 6                             Ow         121474836470000032767       25600000*BLANKS   
FETCH_IN_SPACE      A008008DKey Value 7                             Ow         121474836470000032767       25600000*BLANKS   
FETCH_IN_SPACE      A009009DKey Value 8                             Ow         121474836470000032767       25600000*BLANKS   
FETCH_IN_SPACE      A010010DKey Value 9                             Ow         121474836470000032767       25600000*BLANKS   
FETCH_IN_SPACE      A011011DKey Value 10                            Ow         121474836470000032767       25600000*BLANKS   
FETCH_IN_SPACE      A012012DKey Value 11                            Ow         121474836470000032767       25600000*BLANKS   
FETCH_IN_SPACE      A013013DKey Value 12                            Ow         121474836470000032767       25600000*BLANKS   
FETCH_IN_SPACE      A014014DKey Value 13                            Ow         121474836470000032767       25600000*BLANKS   
FETCH_IN_SPACE      A015015DKey Value 14                            Ow         121474836470000032767       25600000*BLANKS   
FETCH_IN_SPACE      A016016DKey Value 15                            Ow         121474836470000032767       25600000*BLANKS   
FETCH_IN_SPACE      A017017DKey Value 16                            Ow         121474836470000032767       25600000*BLANKS   
FETCH_IN_SPACE      A018018DKey Value 17                            Ow         121474836470000032767       25600000*BLANKS   
FETCH_IN_SPACE      A019019DKey Value 18                            Ow         121474836470000032767       25600000*BLANKS   
FETCH_IN_SPACE      A020020DKey Value 19                            Ow         121474836470000032767       25600000*BLANKS   
FETCH_IN_SPACE      R001021DReturn Code (OK or ER)                  OA         2         20000000000       25600000*BLANKS   
FETCH_IN_SPACE      R002022DReturn Cell/Column 1                    Ow         121474836470000032767       25600000*BLANKS   
FETCH_IN_SPACE      R003023DReturn Cell/Column 2                    Ow         121474836470000032767       25600000*BLANKS   
FETCH_IN_SPACE      R004024DReturn Cell/Column 3                    Ow         121474836470000032767       25600000*BLANKS   
FETCH_IN_SPACE      R005025DReturn Cell/Column 4                    Ow         121474836470000032767       25600000*BLANKS   
FETCH_IN_SPACE      R006026DReturn Cell/Column 5                    Ow         121474836470000032767       25600000*BLANKS   
FETCH_IN_SPACE      R007027DReturn Cell/Column 6                    Ow         121474836470000032767       25600000*BLANKS   
FETCH_IN_SPACE      R008028DReturn Cell/Column 7                    Ow         121474836470000032767       25600000*BLANKS   
FETCH_IN_SPACE      R009029DReturn Cell/Column 8                    Ow         121474836470000032767       25600000*BLANKS   
FETCH_IN_SPACE      R010030DReturn Cell/Column 9                    Ow         121474836470000032767       25600000*BLANKS   
FETCH_IN_SPACE      R011031DReturn Cell/Column 10                   Ow         121474836470000032767       25600000*BLANKS   
FETCH_IN_SPACE      R012032DReturn Cell/Column 11                   Ow         121474836470000032767       25600000*BLANKS   
FETCH_IN_SPACE      R013033DReturn Cell/Column 12                   Ow         121474836470000032767       25600000*BLANKS   
FETCH_IN_SPACE      R014034DReturn Cell/Column 13                   Ow         121474836470000032767       25600000*BLANKS   
FETCH_IN_SPACE      R015035DReturn Cell/Column 14                   Ow         121474836470000032767       25600000*BLANKS   
FETCH_IN_SPACE      R016036DReturn Cell/Column 15                   Ow         121474836470000032767       25600000*BLANKS   
FETCH_IN_SPACE      R017037DReturn Cell/Column 16                   Ow         121474836470000032767       25600000*BLANKS   
FETCH_IN_SPACE      R018038DReturn Cell/Column 17                   Ow         121474836470000032767       25600000*BLANKS   
FETCH_IN_SPACE      R019039DReturn Cell/Column 18                   Ow         121474836470000032767       25600000*BLANKS   
FETCH_IN_SPACE      R020040DReturn Cell/Column 19                   Ow         121474836470000032767       25600000*BLANKS   
FILE_FIELD          A001001AField name                              RA         1        100000000000        1000000          
FILE_FIELD          A002002BOptional sequence number                ON         1         50000000000         5000000         
FILE_FIELD          R001003CReturn code (OK/ER)                     RA         2         20000000000         200000          
FILE_FIELD_VIRTUAL  A001001AVirtual Field Name                      RA         1        100000000000        1000000          
FILE_FIELD_VIRTUAL  A002002BOptional Sequence Number                ON         1         50000000000         5000000         
FILE_FIELD_VIRTUAL  R001003CReturn Code (OK/ER)                     RA         2         20000000000         200000          
FILLSTRING          A001001AString to be repeated                   RA         121474836470000000000       25600000          
FILLSTRING          R001002BReturned string                         RA         121474836470000000000       25600000          
FINDDATE            A001001AGiven date to be counted from           RN         1         80000000000         800000          
FINDDATE            A002002BNo. of days(+/-) after/before given dateRN         1        150000000000        1500000          
FINDDATE            A003003CDate format of given date               OA         1         10000000000         100000'A'       
FINDDATE            A004004DDate format required for return date    OA         1         10000000000         100000'A'       
FINDDATE            R001005EReturn date                             RN         6         80000000000         800000          
FINDDATE            R002006FReturn code (Y/N)                       OA         1         10000000000         100000          
FINDDATE_ALPHA      A001001AGiven date to be counted from           RA         1        100000000000        1000000          
FINDDATE_ALPHA      A002002BNo. of days(+/-) after/before given dateRN         1        150000000000        1500000          
FINDDATE_ALPHA      A003003CDate format of given date               OA         1         10000000000         100000'A'       
FINDDATE_ALPHA      A004004DDate format required for return date    OA         1         10000000000         100000'A'       
FINDDATE_ALPHA      R001005EReturn date                             RA         1        100000000000        1000000          
FINDDATE_ALPHA      R002006FReturn code (Y/N)                       OA         1         10000000000         100000          
FORMAT_STRING       A001001ASupplied string to be formatted         RA         121474836470000000000       25600000          
FORMAT_STRING       A002004DDBCS capable for iSeries                OA         3         30000000000         300000*BLANK    
FORMAT_STRING       R001002BReturned string                         RA         121474836470000000000       25600000          
FORMAT_STRING       R002003CReturn code (OK,ER)                     OA         2         20000000000         200000*BLANKS   
FP_GET              A001001AFP_Rxxxx Object Name                    RA         1        100000000000        1000000          
FP_GET              A002002BProperty Name                           RA         1        320000000000        3200000          
FP_GET              A003003CDefault value to use if not found       OA         1       2560000000000       25600000*BLANKS   
FP_GET              A004004DInstance Number (Default 1)             ON         1         70000000000         7000001         
FP_GET              A005005EOccurrence Number (Default 1)           ON         1         70000000000         7000001         
FP_GET              R001006FReturned value                          OA         1       2560000000000       25600000          
FP_GETNUM           A001001AFP_Rxxxx Object Name                    RA         1        100000000000        1000000          
