DEX1YY*NULL                000000051200000 FE                                                                               
DEX2YY*SQLNULL             000000025600000 ASQNFE                                                                           
DEX3YY*SQLNULL             000000000000000 ASQNFE  LC                                                                       
DEX4YY*SQLNULL             000000000000000 ASQNFE  LC                                                                       
DEX8YY*NULL                000000001000000 FE                                                                               
DEX9YY*NULL                000000051200000 FE                                                                               
DEXAYY*BLANKS              000000001000000 FE                                                                               
DEXBYY*SQLNULL             000000025600000 ASQNFE                                                                           
DEXEYY*SQLNULL             000000001000000 ASQNFE  ISO                                                                      
DEXFYY*NULL                000000000800000 FE  RB                                                                           
DEXHYY*NULL                000000001000000 FE                                                                               
DEXIYY*NULL                0000000004000003FE  RB                                                                           
DEXMYY*SQLNULL             000000000800000 ASQNFE  ISO                                                                      
DEXPYY*ZERO                0000000015000003FE  RB                                                                           
DEXSYY*ZERO                0000000015000003FE  RB                                                                           
DEXYYY*SQLNULL             000000000100000 ASQN                                                                             
DEXZYY*SQLNULL             000000002600000 ASQNFE  ISO SUTC                                                                 
