DEXENG DEPTABWA  SHOWADD             LANSA     JQMOBILE  00000000010000100000010001F8B0800000000000000C556D14EDB30147D47E21F3C6B5287363749E924880813834E48A38068A696A7CA8DDDC69AE344894BD20DFE7D769AA629A5015624FAD0A6F6BDC7E7F8DCF8FAE85B16707047E38485C28156D384800A2F244C4C1CF8CBFD810EE0B7E3DD9DDD9DA30F0881FE4917CC3F3638EB5CBB27DFF508025DCC84A4020B8F82700CC68CD3627E77270FEFD3511C4E2513D4063D3F4C4F085169C5A4CB029A481C440AB5655AFBC8B29069B956DB6EEFDB5F0F3E5B966D9A00A1398F2CE1B68CB148C6611C3CA69E797C4A288A6932E51245311DB38C260EE45A664A2050BF22B1F55F07FA5246B661A469DAE40A0F37BD30305A002013110101443588231
DEXENG DEPTABWA  SHOWADD             LANSA     JQMOBILE  0000000001000020000000000A6D93206DD0BE3662AA42286CEB0C48BBC94D466F52E0C25945389CE68C226A2485BC949F79B613C31ACC3C34323F365C017D84AD7C6408DEC2E34C3E53EB0200A63097CA5D3818924C3DF749634D50C04C6F1A6983B1C33AC583E1BE83342A8A88B2234927894E221C73365EF73804C44D5A0224C25AA611050E9876A7F33BD2561C024524F88508FE318CBDCE3194DD6CB1330A1584A078A700556D220E258521060E9F90E34E08297873947E5B4C0015505920B28C81BD5FC1A445D4636D1F551075D2A2FA352267D1429594111A2BF214828A79E12D2180C7AE757FDDEE979A3B29B6B4977984F2B59CAFA4F8D31A39CA07CA6F1055480F6002013110101443588231
DEXENG DEPTABWA  SHOWADD             LANSA     JQMOBILE  0000000002000010000000582EA90084B14E1593724551639E75A061C8F287F928187236DD9230EC586D1C48B593E5F071EE08C533191FE7201AB2E3E2601CFF4CBEACEA2AA0CCC231FDF837BAB564AC2FED0F5858C354FF5E8285E02BD8DE1FAACEC762EDD6DFD2E71DECFEE25856DDD6E6FE376FB156EB7DFC1EDB34EEFF42DDCCE71DED7ED39856DDD6E99FF6FF7D57DCB7C85DFE552F586BFBE0B80406DB203BD505F866473DE3FCBB2C051C46768DE149345A7CA7D0052A952CD7F1E0F98EA827F3FF2948E86FD9B4B25E0613818FCECDC9A96A90EA6B9A2CA405E0F2AE3E906508435F61E20D024115705AB1FE66B96EF0B54D723BB7076156CE52C2FE1D6FC7E2836F5002013110101443588231
DEXENG DEPTABWA  SHOWADD             LANSA     JQMOBILE  0000000002000020000000000C58A7A37A7E7EEEDF552513950AFA808DBA448DF4427347EB1A2126E93A2274AA11858DCC8D4C83F00                                                                                                                                                                                                                                                                                                                                                                                                                                  002013110101443588231
DEXENG DEPTABWA  SHOWADD             LANSA     XHTML     00000000010000100000010001F8B0800000000000000ED586D6FDA4810FE9E5FB1B7D289F454C72F9857013D82CDA952925681B6545585167B13F6B27E91BD0EE4AAFEF79BF51B988690F4D20F558F0F0866679F9979F699F142EFD5DAE3E89646310BFC3ED64F348CA8EF042EF3AFFBF8DD74ACB4F1ABC151EF3745411FE8029130E4CC2102BC511759F6DBE9F0F4C3F01C6D5E8AB2E51E0589603E4D17BA68B20C5643D7DD761A459408EAA2C51D4A621A81D3E59BD3BF50F5557A4F99476341BC305FE82243D3EB8AAE29750DE966B751EF6AF513D36CEE6E5EC7BC2B22E2C75741E4ED96BB7678E25225A271C2851246F48AAD69DCC75C52B372F1D14E3A60F6E3AE5CED002013103001453034901
DEXENG DEPTABWA  SHOWADD             LANSA     XHTML     0000000001000020000000000E3A51061575557ABD509077872E2049E6A689AA1CECECFD4CBC41790B2621141F6C0ACDC074126672AF0C8A9502C1AB36BFF7E940AC4AA7E1244D7AADEE974D4F552787C4F64E064EF3E19775AF085071220E59079611009B4048EFA3816EEFC86DEC527B08291FA80D72D8918812A0EB8BA341464B122734EEE40388771992FE8358D0E3B2E1221027F7E6B1C767596E411802EA83664CECD63824B5F2983C7FA5FF1803CA2F87B20F7B25F29AA84048EC344208F8A65003204596014784C28F04971A9C34994767A1FDFD1F8DBB98098EF525FF4B11F64D1654B74A15A32C8159759FE8E61583008D0688D34636C9FB61ABA6ED64776BB6DE9002013103001453034901
DEXENG DEPTABWA  SHOWADD             LANSA     XHTML     0000000002000010000001000DA48379BB631323BC6291E7CFA82AF18E52EEEE2D96C6859F6ECF514BFC4B78427146C17F8EBE79E5A82EE0B33D61A9DF6B835B48DA139B69A9D8E6559667DD8D68D71ABA5370F86B11E15A6A3995AC7B2C7F5717B68DA63ADD3ACB75BED76476F98F6E9B875B89A8FBB61F22F1983E52909EA851C24843C229C651FABB84C482E3B8473A5F4F189476172A5FD53CA47DD867908B90CBF09E1B25B044288E58C612E9C371EF45430960E698531154830C121B64505613C463039904F57C8A221898407422941532EA1717DB7809632CD2CDB4EA81787C41F5C54505011A0A7A6AB5B986A06B16D5A443909F97721C7105A04914BA33E86E9EF50002013103001453034901
DEXENG DEPTABWA  SHOWADD             LANSA     XHTML     0000000002000020000000000CE01C749755DC7284E3C8F44777D9C2D85C4CD24AF551293488BC0BDDBB545D2D013790A3D4E169417353A2494CD84253340133C3ACFED8B69F530536928C1158A29A70EB416CCD7E35A4AB192EFAFBD44B56273ED457E6434762296C3E7F5021B327A9A909A65B4498CF9B2F1A58ACB3C8A341341D7021E19810F43C3BF86138DA84822D07CFC9E70E64E61F91889258B2191DA0BF0F4C89A53FF5A80824C2090FD43D30F991437F84728ADAE8FBF6C15959AAA257DCD4BC8B2867720F5A9CC5AF664F4DDCCCACDCFC46C9A4791E67F21D6D00A66E5A70DB55980C3D46635DD476D45C0EAAEAAC1223BA6A4522DDABDB454D61F6E0C54B5B9DF002013103001453034901
DEXENG DEPTABWA  SHOWADD             LANSA     XHTML     0000000003000010000000558D88AC3BA6FA6551EE3F8BEADC5EE15134B05C605F1F2AD2BE68AE5DCCD2E50A5006ABAA6FD5EC395F970182B4E16F084B4D7709B1CA7546C00DDC049E4843A86D353FFD80CD3CD88FFF42708A376E83158FBFCD4A4801307AEE537F355240D5B35C275FB923A30EEAA851E1D842C7BAAD22FC5454ECAEA7C3A9BCE67B3C9F0BD0D6A7D62C6D5341DE80902BC05801B063193918F5F408CF9D9F062329C1BEDB669EC0D923DDF2A9AF9566DEA3D72FB852578E08AF4F34970F4E6EDC71F2EC396D1D0FF97E1F3C9F0D015FAE793A1BCE2FF6819EA46BDD9F83564F88CA773694FDF5D5E9CBD9E7CC7F9EC5795FC4B6B42E50FEC33168B27F7D053002013103001453034901
DEXENG DEPTABWA  SHOWADD             LANSA     XHTML     00000000030000200000000001F83CD66EB990F7EE712B87303DCBEFEEDFE8CCCBF17FF120D8EFE0500                                                                                                                                                                                                                                                                                                                                                                                                                                                          002013103001453034901
DEXENG DEPTABWA  SHOWRECORD          LANSA     JQMOBILE  00000000010000100000010001F8B0800000000000000C5565D4FDB30147D47E23F78D6A40E6D6E920212447413E343A051406951CB137293DBC6C271A2C425ED56FEFBEC364903A50156A4F5A14DAECF3DB9C7E7FAA6073FC601470F10272C144D6CD54D8C40B8A1C7C4B0896F3AA7640FFFF8BEB9B1B971F08910D43D6CA1F9C746C727D79DC39F3A42508B32214150E1020A0768C03864EB9B1B337817FA7138924C808DDA7E983AE086B1A732B3F50E0B209134881471C3B4B6896511D3EA583BF6CEB6BDBBF7D5B26CD34484CC4B1927DC963115C9208C83E7D58F5D3EF280C4908CB824510C033686A489B9569A7A18A95F91D8FAB6897D2923DB30D234AD73C547EB6E002013110101443585731
DEXENG DEPTABWA  SHOWRECORD          LANSA     JQMOBILE  000000000100002000000000018180DD36C18BDD685E18C84548591632A699E977A9559ED0B4369E520C931246C28B2B42739E9763D8C8786B5BFBF6F8C7D19F09C5BE95A09D4CC9D5C335EEC030BA23096C8573A9B3891DEDD3D4C92BA5AC1C8F8BE0AF34063465595AF027DE67920AA501E4492F6537AC7E94439FC1A2113511994C154A20AA300A41FAAFD1DEB2D09032689BA221EB89CC654CE3C9E40B2DCA1880955A56C62113EA19510449C4A400195AEDFC406CEEB7229E7A458163400D520330159F14639BF8251B791EDE9FEA8A22E9417A894499F444A569041F4374609707095905AAFD73EBBEAB68FCE6AA5DD5C4A7AA07C54CA52D67FA90D18708FCC566ADF50002013110101443585731
DEXENG DEPTABWA  SHOWRECORD          LANSA     JQMOBILE  00000000020000100000006928968AB8AC963892A78D20ABD7215B39A2B2BE0B40FFCC50A5C1A69CB9ED5906D18246ECC66EB55E4011D731043E92F1E6055E1632FE0637D583B93A82C83F2C8A75334B52AA524EC372C3FC858F25447FBF182E8630CD7E3F2F8A47DB4AEDF05CFFFB37B51C2BA6E37CC7FB7FB6ADA30DFE177F1A86AC3DF3F1750A036B989DD50BF21657D3E518BB6A051C427643E26937C76CD7C4052A952AF83391E313517FF7CE629F4EFBACEA512F078D7EBFD3AB9352D53B5EA5C512930EB0795F1F248C860B5AD478C749184AB86D517F367E6E76507AB17A69D39FB94ECC9E92EE896FC7ECC36F5CD8ADACED159E7F67AA1A808542BCA60AB14E9BF27002013110101443585731
DEXENG DEPTABWA  SHOWRECORD          LANSA     JQMOBILE  00000000020000200000000004388DFACA8A05B57D1B5737E7A7EE13897B9A252A04A51015BA528A2EE3D78536B776A4EEB6F5255A25CDFA7A31BC7B9EA2E6CCAEFAB5D9AA33ECAA49C6D5D357A5EB54E2E3BB99AC57D959A1CF5318768C1B64ACD0BC3270BE4FF0A55E42F00                                                                                                                                                                                                                                                                                                                    002013110101443585731
DEXENG DEPTABWA  SHOWRECORD          LANSA     XHTML     00000000010000100000010001F8B0800000000000000ED576B6FE23814FDCEAFF066B54B2B4D48803E5968C5146655897646219D22AD56C8C406AC3A0F390E815DED7FDFEBBC9A404B1F9A9146DAE5439B5C5F9F7BEEF5B9B6D3BD5CBB1CADA80899EFF5B466C3D410F51C9F306FD1D3EEEC4FFA99767951EBFEA4EBE89ECE100E02CE1C2CC11B75D060F8C5EE7FBCEFDFA0C79FAE97DC851F49E6D164A083C64B3FB6A8E30B52F6BB12144B4AD06C83A2900AF0B33E7FFC1D557F85B7CD5C1A4AEC06D94007B5CC665B6F9A7ADB44CDA3CE71BB63B61BC72767DB93D721EF4881BD70EE0B773BE3B5C323427541C3884B3D1074CED634EC695C5527265A6D8B0E98BDB0A346002013103001453035991
DEXENG DEPTABWA  SHOWRECORD          LANSA     XHTML     00000000010000200000000007BDA52CAA06318711C3738C0E386E3BB46CB345BC6E4666458912781B23EC0123F031393BD20E39101A5E454EA031AB285F7344A05226E377CB1309AE7E7E7C67A295DFE4C64A8C9B3F3545C3BAF9776A100921A3237F085444BA8514F0B25993ED04DD880110D197BBC5658300C59BCE04A6820F12CC6538E37A09D97719927E9828A971D9D257E8517012906CC79780DA2F2556BFB5AFF39F7F12B327A0B2454F57579CD22297D6FBA6AEDB8429583482297CAA50F42046168C87799D4E14927D4E15824EDDED33634DCDD1CB685C53C423DD9D33C3F89528491D40D38140CB9583ACB9E66A492CA871DCCB95EF878D8A5D07C89040AB24619002013103001453035991
DEXENG DEPTABWA  SHOWRECORD          LANSA     XHTML     0000000002000010000001000661FB26ACB0E51FD5684206C85209350B50923C01086BACC538967662F72675468486E025A3801E49A536F2101B6D5D650C8FEA2C9539E754AF48B75FDE97A6459B71A5A611E81E56F688A83FA9C514EF4C454FF80EA855BFDF09F3CAB8C5F4A8541FD2793AB3BCBFA7C5F89DD3CCA63ABA70AC5EDFA67941E61F631CABD9E23542D468AACF6FC9BE1ADBD1F39F7AA22770D5888E22599125208C32407208BAE188D3FA0BB407516F2051A50D8F628FC0BB0902EE80A1E25663C6C6865B21C76008FE42BA9E49E5ACA4EE01606D8BBD8C542B0C1A13F522D25FC757F8E4288EC808C77732BA5A632437FA25F7F6E9E98BFD5BA4612A0C4CB4869002013103001453035991
DEXENG DEPTABWA  SHOWRECORD          LANSA     XHTML     0000000002000020000000000944D3351ADB3547B229AC19148454F83A3C8A19C038E93B498925CE4BA586C7A5A3A146092769F594D0E90663ED96CDB8432746546A1CBF18CF2BC4E0E0E545F6B2AFF745907C3F155B52DF7D5239B9FAFB69A5C3FCC9A8F868E60197C962F5443454F081929A347628FFA2F78E434255D4B50B9EFC146E72D402682CA487888855F3167C486E10324972C041EB024B54ACF9A45CF9A65FDA6016A2F2A38CD2957704A1BFE8AAD321BDBB5078B5AD747D9E7522F2C651D742BCEFBD712556D64C786F66CA89583407B6A6A3E3B6672A943A360379B1A33229753925E400A35D49BA6F94BBDBA75BC8C05E11DB8443E4C63A10CBB5BD893BF2266002013103001453035991
DEXENG DEPTABWA  SHOWRECORD          LANSA     XHTML     0000000003000000000000430BA3DA4F7C86AEC4AB73F19BAD07C45CFF9DD442DFB8D3DB1A793C9B8FF759836F85B327B473A0E081BCB83BA0FC1033F648ADEC12110998EFAB7E3FEB4797E7C7AF22C93F450ACACF5AE4A8C2764F2DF944E7A9E7C67E90C86A3A1FD8388E7F4F4ACF57626003B6770E92FE24811D183F7C2D8E906FE9EBCFA8222B803C221983DC418CE6DE923925E0CE4B27C39E8C0290E85D87F1DA9C11B9CD997FFB7D4B76929F54D3FA6EA3364C442F9DD9ACA1ADA77D6EDE87A6CFF108DD56EB58ECEBFB184B62E165BB78AF29562FB53287BCF3FD62F6AFF0200                                                                      002013103001453035991
DEXENG DEPTABWA  SHOWSEARCHLIST      LANSA     JQMOBILE  00000000010000100000010001F8B08000000000000009D555D4FDB30147D47E23F78D6A40E6D6E123EA41151D0064C48830DD122CA53E526B78D35C7896C97B41BFCF7DDA449081452B63EB4A97DEEF139F7C339389AC792DC813622513DEA755D4A40054928D4B447AF07DFD8677A74B8B9B1B971F08E3172F3E5822C3F3E3939BD1C7CF99AAF3072C185B2A0B80A802413321112CAFDCD8D027E03639DCCAC50E0937E94647DE03A88CE85B1185D6206220663799C22F9B6EBED30CF63AE37F076FDDD1D7F6FEFA3E7F9AE4B185BCA991BE95BCD9599243A7EEE601EC859084C839949CB520D133107D3A332779B8594E0AF327EFEB747236B53DF71B22CEB4AE4E3DD2089002013110101443559011
DEXENG DEPTABWA  SHOWSEARCHLIST      LANSA     JQMOBILE  00000000010000200000000009D6DD7DD768617E7CED54C5914C64EB8E5555C16B646F5CF1DF42BC1B2133062AACAB02731D94E37D153C7DBDFDF77E6918D65C58DBE5E05E6CC83CA337DCC8388D3445B12A1CF1E35361CFD8285E9E20E25CEE16B983BAE0547956B81910843506DA81052CBC7191F49BEC02AAF2544BB2389B57F23701D4C430ADC825E87132A6D8A2B61281897490C364AB0AEF3BC14492C2CC327164220B9E6B6E8AD0598D5E9204261766C8FAAA4A6CDFBCA0FB1610EAB3FF97868C5E548844484CFD2301A0E8FAFAE4FCEFB8352FDBA9051F4F6902A39FF7EC8F300A769AB9A40885389F424E636887AD4A155F6032E25ABB7158F01C7AF688F8AAE19DF002013110101443559011
DEXENG DEPTABWA  SHOWSEARCHLIST      LANSA     JQMOBILE  0000000002000010000000572C2589FDA4A5DD7B74665C2462CC5E2C52524FFA6C4808400CBD5190EFB673F6FFAC7679D46CFAC04DD71396B44E1607DE84C04C890153B9D4FA441B4D5C6140A8382171749D85451686E5520F918E48B0A029EE68DF94C439930308116C57E1B79CCE712D4D4468F07786D781DC6729E5F858345DAB4C1651AF17B72EFB55A31E237AC1EE4ACD4345F1DEBFF6D1312638A7B3448F25792ED2EAFAFBA2D789ACA055BDE0DA61AD8A20AC4A227BC7B97F8621CFEBC97198C4737573F50FF034EC4F7D35BD77351F9D25063A168078C78B9434A5867EB81925C2493D8B0F9C3F2CC2A7DBB14DF4E7E59D7A7644F8A5DD3AD14FBA14CEA9B1DF5AF8E002013110101443559011
DEXENG DEPTABWA  SHOWSEARCHLIST      LANSA     JQMOBILE  0000000002000020000000000CF06B7978F8EEA85764725EC3547F9C53205FD664735DD6B8E5E688572A17A21E2CA5F00                                                                                                                                                                                                                                                                                                                                                                                                                                            002013110101443559011
DEXENG DEPTABWA  SHOWSEARCHLIST      LANSA     XHTML     00000000010000100000010001F8B0800000000000000ED5A6D6FDB3812FE7C05FA1F585D6E6D2F2A4BCA5B1BA7CE364D9CB6B8342D6C779B455108B2C458BACA92405171728BFEF71B52A444C996EDA4B95E71D8026D2D6A66389C978733A45EFC76330BD135266910477DCDEA9A1AC2911B7B4134ED6B1FC767FA73EDB7A3478F1FBD78A2EBE8139E202749C2C07528D0A31E3A1D7C181FBFFA74FC0E957F74FD48A12771468308F3373D34F2E3F9083BC4F5CF839456884F087628F6D0E416652926403C7CFFEA35AAFE29C9C7C10CA7D49925E24D0F6D9BD68E6E99FA8E89ACDDDEDE4ECFDCE9EEEF6F2F70DFA4618F12274AAF6232ABAFFDC60D330FEB04A75948F584E0002020070900356153841
DEXENG DEPTABWA  SHOWSEARCHLIST      LANSA     XHTML     0000000001000020000000000ABE006A77D2D64769A7B1A82FFA3B4C71EFB9A4F69D2338CF97CDE0D419ED375E399B16D9ADBC6E5BB736398451494D44F1DEA48BEB9B7926B746E80CD424CF5539C06D348B05578E63BDD984C0DEBE0E0C0B8F1E92C94B2615D8D844CF258AE59032BFC8D9B21982531A1C88765F6B5947AF6577C9B76E18D6634D35C3B247040C995841E4EA833993B76E8DC4204AC931944144F3159479610204C9C295E470873DB8C2EB5AFB7D7D14E324AE36803421702FFAB1DCC36993F8648C2618D0C0C916414CD30F56308841BE6BB7816501D7EE91E764387F0C4EA6BB7385D4C4414441E8E685F8B6221948561CF83F8624FE211968E0290BEFF6C002020070900356153841
DEXENG DEPTABWA  SHOWSEARCHLIST      LANSA     XHTML     0000000002000010000001000F76CDBDADBB60ECE0E769FED5A077B83D33D6B7FFFF878E7ECECECD9331E059229A078963F8B8184C4092634C0A91816E3F3C0A33E62798109C160133F08D972A903C16769483CDF26B8AFB971441DC87DA2A1192CE42AC004684CF31FB9F6A5501F07539F3E98D417C6F225E493B94EC26C7C0438738A1387D019D8149DC41E167C924065E24E372A43290EED25C3D74E98E1A3945CE39E90978FE4C636AAD616CFE032EE4EA3E2CF1CA8F02C090117D1CCA1AEDFD78CDC6DFC9DEB84A15E1044CE0CAC93A79B080F4395D02CB29855C8F6826B04B19832DC093C0839EDE8850183E55B270470EA6B84B94DC651934695BC153E52C4F1F4B942002020070900356153841
DEXENG DEPTABWA  SHOWSEARCHLIST      LANSA     XHTML     000000000200002000000000014C0BCAF01FCB45BE0D1D0D3B9D55A4F5B9797A337EF3F8D4EDEB43AA88F5A7FB4504CD05638C713DBE31869431460A904E74D314534A0214C3E005C21AA9F53BEF92097800F00C6B4C277003F912797CD74CE47B42252D3C4898E1449F93686537412C699877EB776BBDBDD7D137D605645830F27D6EEB6B96FBE39B301DBF72DF385C1251421CAC5CBC755C653B1AC548771CC03EAEBA0903313E48C94C7A4060B0DB10B266DB5946C5BCA9453E27C2206313725B7B58E99652358C3CE5358999665E4DAA925374795BB322FEA6D73F72B72207886276FC67F7C582B0C021DDBC1954D4986EB6216A312D5C3F262ED04ECDF52242C1C6AA876002020070900356153841
DEXENG DEPTABWA  SHOWSEARCHLIST      LANSA     XHTML     00000000030000100000010002B0659499C060C70DA1D906B9F1F5F8C8E6DEBF9DEF356679D4C58785ACAF462376391D96EB53AC6AF65561718F3F925EC0BAD75FB42EB8B02A40B7129714C269A48E73C8BF3870931CAD466E5E26DC19D16CAD6D50BA11C4CCB9F9F5FF21582994F861F4FCF4763D00ACA2FFE2E5F7BF146C59F050B81EA5070C2DE5C9A8979B85D987605DB491C0E0161FE8DEFC6EBC750520EAEAE80E16E8C392DABAC86F13CBDE3A42C7C7DEC7898B0280673D3DB0609B9B36A7EC9DFF0C9C53474127BB7320E282902914ACC5A835A455555405693EE3CF905983763401337CC91D76573524DB1D608D32C39F6BC0D84882DBF96F2B2D065F9FE6E7C39B6002020070900356153841
DEXENG DEPTABWA  SHOWSEARCHLIST      LANSA     XHTML     00000000030000200000000002F2F2F069FD4B47CA064DF7F766055C436261E7B557A6063678872F4BFEC0A999C150096F9BB9E5D40F03ADC1D5C8C876F07238EBBE643BB627BD7349F6FE261683DA1B48CA60012D92C7ADBB86B36AA95CD2698BCBFCAF9956CDFBE7318C04F2261B9CC5AF82DB3F9CE75E0C6905CE2FC66A0CB209C0689CDFA93FC8197F410A2BD491C87D889346385CC6644BEBFE0A5707DE584E9F7896D02F3EF97BC11D46F2E1EDE055108FD94A7332FA315BBABC443597DF8987168DFB3A7CB4D2D85823C81AA9D6B49F10D35FEE55C3BF96851A3E7417B439117A44C0F3DEFA7759C027EF33E99B5CD4786F14B480F9F7C3E393D1E1F7F96C17F438F60002020070900356153841
DEXENG DEPTABWA  SHOWSEARCHLIST      LANSA     XHTML     0000000004000010000001000F5AF49E0D96FC082104A69BBD565E03885B1BF174A214086CF2DEA753F0CDF9EBD3D1F0E2F18EC50BFF21C6561F8A573B8B9465FBEFC32A5878A2E225FF3158AA72062A703B90D44E3557747B7AB218E857DED4FF09CEFA43A547C0470B2B46AE75B6156D6ABB110285EC22EE9249ADAE6B0D5F351E8952B962E9AB2A6664B5678949200767B19165CB67654972D04B01331518148BE4AB1298A48598C54B55F501C65810E7BD614D3AA4E85EE514CDB5BCB32A6C3DAC8F6968861E32589E7BA1B67D0D73D816DA553EE942F28E354E09C12A905E3D4FD52073D9F43D96519B7A4CE78A08CC6A7A3C1F9E0648C0A03A58094AC7F61A7AA31D190002020070900356153841
DEXENG DEPTABWA  SHOWSEARCHLIST      LANSA     XHTML     00000000040000200000000006D73B063C3793EB321667728767878B167768E0716E4B1E28489EFB0410FBBD0FD01C030BC005990FB8A2E3CD75DBEDF704D213E85CB0AA5A0D1079A825F65560AFB62C06822E66FAA53555E2B270C8519A03E096D06EE1503D61D2AD0AB5DC71ADE49DE00C6E461F6A5A3D5945F11AA79AED9F6F2B854B7E2223A15A16E3C635DD75157ECD6E2B1620D79DA219FA9BF2A46D8A1FA3B28737EA610913AFD15213F4B849C0E46273F5B84309DFE8A901F1F21650B205E295B567DD6BCB32FE2A9D8BCC4599CB2F381FD214274ECB8BE0EFB63ADA5A95583CA1EA26859BA90572D0BB46A9F64A852574F56A2D1DAB90AD2EF982A0FEB8DA6E2A4F7002020070900356153841
DEXENG DEPTABWA  SHOWSEARCHLIST      LANSA     XHTML     00000000050000100000010009CAAA8303798ABA4DD6432A859A0F165C7247D0DD2A04DFD20ED82D38F659CB65BB628613DD658F7514B792498662442BC7539140F9072C791EBC7E48449C55E1B5F43F03C454C32D4CBAC3885AA51B92C6E77BEB142FA35A643ECC6C4630FBCE7663FE45FA8F43E0E87EF3FB584085695F1935DC6DD392CEA3FF98E3FB65BBC10632D7DFE0BB31218908CA9445C51A771008C3DAF1888AB755A71F65F062730304051EA6DD511ED5641C9E66BC2260ED83534527AAE39BFEE558E6AD44BC69C88DF73E9AC10DE36AD3DD3B2F62DD3DCDBD9314DB30E50CCEAF59306827987C0752E7BB585C594ED4DE5F4639DD8FA897B296623296E46089313002020070900356153841
DEXENG DEPTABWA  SHOWSEARCHLIST      LANSA     XHTML     0000000005000020000000000CFFDC5B37B110B1B096A3E062C236E23414D0758DD7A3C764BF76F24789D0394685A264FC073F5457E2BB580E5B5B00032E7FF24FF2BEDE00A9768CA0526BE8ADD2CD550F1B3AFE9163882DEB21B425867123AB73D94279B3E0963F7EBE18205B90FEA7B3FBBEF2F3D5A9E58F4AEE3C06B9BA0B0B12847F598AC1A16A7ABD2D592ADAA79144718142E32AF72D1B846A20CCAA5121724ACDF8C8ED4AA4DB9F8AE0859AE5FD370309B42F0CEE22CC5ECA88EA3E45B068FEFD8D07B18E2E1CCA2439265B44E95D18248AC7502318889CE9FC48251CA360716541C7E53485FEA43581901245F6A44AC5A0E0D6BDF98406D6D4F6071B6B5DF4DA2695E002020070900356153841
DEXENG DEPTABWA  SHOWSEARCHLIST      LANSA     XHTML     00000000060000100000010005B73A65AB5DC1C3B79DD58044F0DFA97058E019658486CC3A923C232336E74BE5652DFEBA0EDF123A49EB5613A121EF84070183B5EBB73C848BEF3C84C5DA77276568E3640257F51DD74D794D7DEF2F2A0A827D7550792F01EC5C1AA32767586DD6D1DBC58DD641D8CF0E1D621BAC4FBAFA3D6EE34F429EA6D48E53EA422FEC71C3D3F7E44F014AA4E4C6CD9ACAA47B64FFF84D4C86D91F6D0B3A7F0848A5B941E12CD02D8488FAF0AC8D82AEF598CA392A5B82459CD57DEA50866E522A49153BD2C116CD58B8E46CEDA7D08833784BE314878D043F44A9AB332FF0EF75FBFF2421B82C05EF789846D759921C089B8E10A4C1C2534DDE1E45FD9002020070900356153841
DEXENG DEPTABWA  SHOWSEARCHLIST      LANSA     XHTML     0000000006000020000000000ACBC3AC29E5DA1BAEBDD7CE84C7028F3B3B8DFBE62E7399797FF1CFC615AA655BF0F5E709B72032B44E4559AE06F75C4110ACE5DC0A6506F2FB90E4A3A2EBFB8CEAF3DA03EF59D68CA3B0B5E6106E9EF4E18786330635B9695501A8B1250AEA08A40E0CA9B1047530AEEDC85CD15C29BFF90B728059744BBE557CCC5F2BE95CBB9D7BDFBFFFE23885759107A670149E9269F4114DD5894CDC01EAA2277625FD2CC2D7E88D52866D38F314683E321FB00EBE13E0278F5713C7E7F6143677D9FEF311EEA22BEF846F473B76B6CFACD96C02EF649982D0AA06E42826B90FBE3C18A5BCB8FE3542216F78A8F2379A5C8A9FB56657F6DFA546C4BEA77002020070900356153841
DEXENG DEPTABWA  SHOWSEARCHLIST      LANSA     XHTML     00000000070000000000001066F786E0E352959CED55DF7C95DEDFBC82D75D98D4C3523D577C59AF564B82DFB444BBC62A614C15535F542848901F9E93F8CFC0700                                                                                                                                                                                                                                                                                                                                                                                                          002020070900356153841
