DEMDEPTABWA  0000000DEPTABWA            DEPTABWA            0PRIM_WAM  000001024000110                                                                                                                                                                                                                                                          00002580000000000000000000000000000                                   
DEMJSMTEST   0000000JSMTEST             JSMTEST             0PRIM_FORM 000001024000030                                                                                                                                                                                                                                                          00002660000000000000000000000000000                                   
DEMJSMXCMD   0000000JSMXCMD             JSMXCMD             0PRIM_OBJT 000000000000000                                                                                                                                                                                                                                                          00002580000000000000000000000000000                                   
DEMJSMXHDLE1 0000000JSMXHDLE1           JSMXHDLE1           0PRIM_OBJT 000000000000000                                                                                                                                                                                                                                                          00002580000000000000000000000000000                                   
DEMJSMXMSG   0000000JSMXMSG             JSMXMSG             0PRIM_OBJT 000000000000000                                                                                                                                                                                                                                                          00002580000000000000000000000000000                                   
DEMJSMXSTS   0000000JSMXSTS             JSMXSTS             0PRIM_OBJT 000000000000000                                                                                                                                                                                                                                                          00002580000000000000000000000000000                                   
