DEXDEPTABWA  000000000000010000000   000**********0000098==================================================================================================  
DEXDEPTABWA  000000000000020000000   000**********0000000                                                                                                    
DEXDEPTABWA  000000000000030000000   000**********0000061 DEPTABWAM - Search and maintain DEPTAB Department code table                                       
DEXDEPTABWA  000000000000040000000   000**********0000044 Generated by ROBG on 2013-10-30 14:53:03.02                                                        
DEXDEPTABWA  000000000000050000000   000**********0000000                                                                                                    
DEXDEPTABWA  000000000000060000000   000**********0000098==================================================================================================  
DEXDEPTABWA  000000000000070000000   000**********0000000                                                                                                    
DEXDEPTABWA  000000000000080000000   000**********0000020 Webroutine Summary:                                                                                
DEXDEPTABWA  000000000000090000000   000**********0000020 -------------------                                                                                
DEXDEPTABWA  000000000000100000000   000**********0000000                                                                                                    
DEXDEPTABWA  000000000000110000000   000**********0000041 MaintainRecord - Entry Point for the WAM                                                           
DEXDEPTABWA  000000000000120000000   000**********0000000                                                                                                    
DEXDEPTABWA  000000000000130000000   000**********0000043 Webroutines with xhtml response to browser                                                         
DEXDEPTABWA  000000000000140000000   000**********0000042 -----------------------------------------                                                          
DEXDEPTABWA  000000000000150000000   000**********0000067 ShowSearchList - Build Search Result List based on Search Criteria                                 
DEXDEPTABWA  000000000000160000000   000**********0000074 ShowRecord     - Review single file row with Update and Delete Operations                          
DEXDEPTABWA  000000000000170000000   000**********0000058 ShowAdd        - Add/Create Operation for single file row                                          
DEXDEPTABWA  000000000000180000000   000**********0000000                                                                                                    
DEXDEPTABWA  000000000000190000000   000**********0000029 Webroutines with no response                                                                       
DEXDEPTABWA  000000000000200000000   000**********0000029-----------------------------                                                                       
DEXDEPTABWA  000000000000210000000   000**********0000067 BuildFirst     - Build Search Result List based on Search Criteria                                 
DEXDEPTABWA  000000000000220000000   000**********0000033 GetRecord      - Read a file row                                                                   
DEXDEPTABWA  000000000000230000000   000**********0000035 DeleteRecord   - Delete a file row                                                                 
DEXDEPTABWA  000000000000240000000   000**********0000035 UpdateRecord   - Update a file row                                                                 
DEXDEPTABWA  000000000000250000000   000**********0000039 AddRecord      - Add/Create a file row                                                             
DEXDEPTABWA  000000000000260000000   000**********0000066 BuildRelated   - Handle a Drilldown request from another CRUD WAM                                  
DEXDEPTABWA  000000000000270000000   000**********0000072 SetupAdd       - Called from New button to initialise file field values                            
DEXDEPTABWA  000000000000280000000   000**********0000090 SetupDrillDown - Called from Search Result List entry button to perform Drilldown request          
DEXDEPTABWA  000000000000290000000   000**********0000000                                                                                                    
DEXDEPTABWA  000000000000300000000   000**********0000011 Evtroutine                                                                                         
DEXDEPTABWA  000000000000310000000   000**********0000011 ----------                                                                                         
DEXDEPTABWA  000000000000320000000   000**********0000062 SessionInvalid Handler - Handle Session Time Out (10 minutes)                                      
DEXDEPTABWA  000000000000330000000   000**********0000098==================================================================================================  
DEXDEPTABWA  000000000000340000000   000Function  0000016Options(*DIRECT)                                                                                    
DEXDEPTABWA  000000000000350000000   000          0000000                                                                                                    
DEXDEPTABWA  000000000000360000000   000Begin_Com 0000066Role(*EXTENDS #PRIM_WAM) Sessionstatus(Active) Sessiontimeout(600)                                  
DEXDEPTABWA  000000000000370000000   000          0000000                                                                                                    
DEXDEPTABWA  000000000000380000000   000**********0000019Search Results List                                                                                 
DEXDEPTABWA  000000000000390000001   000Def_List  0000100Name(#XXCRUDLST) Fields((#STDSELECT *Out) (#DEPTMENT *Out) (#DEPTDESC *Out) (#PRIFILRRN *Hide)) Coun
DEXDEPTABWA  000000000000390000002   000          0000043ter(#XXEntries) Type(*WORKING) Entrys(*MAX)                                                         
DEXDEPTABWA  000000000000400000000   000          0000000                                                                                                    
DEXDEPTABWA  000000000000410000000   000**********0000047Show Search filters when NOT drilling down flag                                                     
DEXDEPTABWA  000000000000420000000   000Define    0000050Field(#XXShowSch) Type(*Char) Length(1) Default(Y)                                                  
DEXDEPTABWA  000000000000430000000   000          0000000                                                                                                    
DEXDEPTABWA  000000000000440000000   000**********0000018Drilldown WAM Name                                                                                  
DEXDEPTABWA  000000000000450000000   000Define    0000040Field(#XXWAMName) Type(*Char) Length(30)                                                            
DEXDEPTABWA  000000000000460000000   000          0000000                                                                                                    
DEXDEPTABWA  000000000000470000000   000**********0000021Drilldown Sequence No                                                                               
DEXDEPTABWA  000000000000480000000   000Define    0000048Field(#XXDDSeq) Type(*Dec) Length(1) Decimals(0)                                                    
DEXDEPTABWA  000000000000490000000   000          0000000                                                                                                    
DEXDEPTABWA  000000000000500000000   000**********0000018Drilldown Filename                                                                                  
DEXDEPTABWA  000000000000510000000   000Define    0000040Field(#XXFileNam) Type(*Char) Length(10)                                                            
DEXDEPTABWA  000000000000520000000   000          0000000                                                                                                    
DEXDEPTABWA  000000000000530000000   000**********0000033Drilldown Entity Description Name                                                                   
DEXDEPTABWA  000000000000540000000   000Define    0000063Field(#XXDDEntDs) Type(*Char) Length(30) Input_Atr(LC) Shift(O)                                     
DEXDEPTABWA  000000000000550000000   000          0000000                                                                                                    
DEXDEPTABWA  000000000000560000000   000**********0000040Number of entries in Search Results List                                                            
DEXDEPTABWA  000000000000570000000   000Define    0000036Field(#XXEntries) Reffld(#STD_COUNT)                                                                
DEXDEPTABWA  000000000000580000000   000          0000000                                                                                                    
DEXDEPTABWA  000000000000590000000   000**********0000030 Current List Row Entry Number                                                                      
DEXDEPTABWA  000000000000600000000   000Define    0000033Field(#XXCurRow) Reffld(#STD_INT)                                                                   
DEXDEPTABWA  000000000000610000000   000**********0000026 Create Record Page Fields                                                                          
DEXDEPTABWA  000000000000620000000   000Group_By  0000044Name(#XXAddFlds) Fields(#DEPTMENT #DEPTDESC)                                                        
DEXDEPTABWA  000000000000630000000   000          0000000                                                                                                    
DEXDEPTABWA  000000000000640000000   000**********0000050Determines whether to exit after Save of a New row                                                  
DEXDEPTABWA  000000000000650000000   000Define    0000039Field(#XXAddExit) Type(*Char) Length(1)                                                             
DEXDEPTABWA  000000000000660000000   000          0000000                                                                                                    
DEXDEPTABWA  000000000000670000000   000**********0000026 Update Record Page Fields                                                                          
DEXDEPTABWA  000000000000680000000   000Group_By  0000054Name(#XXUpdFlds) Fields(#DEPTDESC (#DEPTMENT *HIDDEN))                                              
DEXDEPTABWA  000000000000690000000   000          0000000                                                                                                    
DEXDEPTABWA  000000000000700000000   000**********0000040 Temporary Storage of Updated row values                                                            
DEXDEPTABWA  000000000000710000000   000Def_List  0000079Name(#XXTmpFlds) Fields(#DEPTDESC (#DEPTMENT *HIDDEN)) Type(*Working) Entrys(1)                     
DEXDEPTABWA  000000000000720000000   000**********0000029 Row limit for Search Results                                                                       
DEXDEPTABWA  000000000000730000000   000Define    0000045Field(#XXLIMIT) Reffld(#STD_INT) Default(500)                                                       
DEXDEPTABWA  000000000000740000000   000          0000000                                                                                                    
DEXDEPTABWA  000000000000750000000   000Override  0000029Field(#StdSelect) Colhdg(' ')                                                                       
DEXDEPTABWA  000000000000760000000   000          0000000                                                                                                    
DEXDEPTABWA  000000000000770000000   000**********0000065Work fields equivalent to each of the key(s) used in the searches                                   
DEXDEPTABWA  000000000000780000000   035**********0000045DEPTABCLOU00359980120131108ROBG       PCXTASK                                                       
DEXDEPTABWA  000000000000790000000   000Define    0000035Field(#XXKEY0101) Reffld(#DEPTMENT)                                                                 
DEXDEPTABWA  000000000000800000000   000          0000000                                                                                                    
DEXDEPTABWA  000000000000810000000   000Define    0000034Field(#XXSrchTyp) Reffld(#std_int)                                                                  
DEXDEPTABWA  000000000000820000000   000          0000000                                                                                                    
DEXDEPTABWA  000000000000830000000   000**********0000041 These are the Search (unique key) fields                                                           
DEXDEPTABWA  000000000000840000000   000Group_By  0000062Name(#XXSrchkey) Fields((#XXKEY0101 *hide) (#XXSrchTyp *hide))                                      
DEXDEPTABWA  000000000000850000000   000          0000000                                                                                                    
DEXDEPTABWA  000000000000860000000   000**********0000053 WEB_MAPs for all webroutines that persist the values                                               
DEXDEPTABWA  000000000000870000000   000Web_Map   0000058For(*Both) Fields(#XXSrchkey #XXShowSch) Options(*PERSIST)                                          
DEXDEPTABWA  000000000000880000000   000Web_Map   0000057For(*None) Fields((#XXCRUDLST *inline)) Options(*PERSIST)                                           
DEXDEPTABWA  000000000000890000000   000          0000000                                                                                                    
DEXDEPTABWA  000000000000900000000   000**********0000093---------------------------------------------------------------------------------------------       
DEXDEPTABWA  000000000000910000000   000**********0000015 MaintainRecord                                                                                     
DEXDEPTABWA  000000000000920000000   000**********0000084    - Transfer to this webroutine when Session times out from SessionInvalid Handler                
DEXDEPTABWA  000000000000930000000   000**********0000057    - Set Default Search Tab to be selected / highlighted                                           
DEXDEPTABWA  000000000000940000000   000**********0000043    - Transfer to ShowSearchList Webroutine                                                         
DEXDEPTABWA  000000000000950000000   000**********0000093---------------------------------------------------------------------------------------------       
DEXDEPTABWA  000000000000960000001   000Webroutine0000100Name(MaintainRecord) Servicename(Maintain_Department_Record) Response(*NONE) Onentry(*SESSIONSTATUS_
DEXDEPTABWA  000000000000960000002   000          0000005NONE)                                                                                               
DEXDEPTABWA  000000000000970000000   000          0000000                                                                                                    
DEXDEPTABWA  000000000000980000000   000**********0000026 Set the session to active                                                                          
DEXDEPTABWA  000000000000990000000   000_ASSIGN   0000034#Com_Owner.SessionStatus := Active                                                                  
DEXDEPTABWA  000000000001000000000   000          0000000                                                                                                    
DEXDEPTABWA  000000000001010000000   000**********0000022Set default search tab                                                                              
DEXDEPTABWA  000000000001020000000   000_ASSIGN   0000015#XXSrchTyp := 1                                                                                     
DEXDEPTABWA  000000000001030000000   000          0000000                                                                                                    
DEXDEPTABWA  000000000001040000000   000**********0000072Transfer to the routine that will display the Search / List Results page                            
DEXDEPTABWA  000000000001050000000   000Transfer  0000025Toroutine(ShowSearchList)                                                                           
DEXDEPTABWA  000000000001060000000   000          0000000                                                                                                    
DEXDEPTABWA  000000000001070000000   000Endroutine0000000                                                                                                    
DEXDEPTABWA  000000000001080000000   000**********0000093---------------------------------------------------------------------------------------------       
DEXDEPTABWA  000000000001090000000   000          0000000                                                                                                    
DEXDEPTABWA  000000000001100000000   000**********0000093---------------------------------------------------------------------------------------------       
DEXDEPTABWA  000000000001110000000   000**********0000026 ShowSearchList Webroutine                                                                          
DEXDEPTABWA  000000000001120000000   000**********0000039    - Initially Display Search Criteria                                                             
DEXDEPTABWA  000000000001130000000   000**********0000045    Search Button on all Search Criteria tabs                                                       
DEXDEPTABWA  000000000001140000000   000**********0000061    - Build Search Results List when Search button is clicked                                       
DEXDEPTABWA  000000000001150000000   000**********0000065    - All Search Buttons on this page calls BuildFirst Webroutine                                   
DEXDEPTABWA  000000000001160000000   000**********0000084    - Pass-in #XXSrchTyp value to BuildFirst webroutine to build Search Results List                
DEXDEPTABWA  000000000001170000000   000**********0000045    List row selection on Search Results List                                                       
DEXDEPTABWA  000000000001180000000   000**********0000079    - Search Results List Row selection on this page calls GetRecord Webroutine                     
DEXDEPTABWA  000000000001190000000   000**********0000089    - Pass-in #PRIFILRRN value to GetRecord webroutine to retrieve ALL record information           
DEXDEPTABWA  000000000001200000000   000**********0000014    New Button                                                                                      
DEXDEPTABWA  000000000001210000000   000**********0000030    - Call SetupAdd Webroutine                                                                      
DEXDEPTABWA  000000000001220000000   000**********0000019    Export to Excel                                                                                 
DEXDEPTABWA  000000000001230000000   000**********0000099    - Call Javascript function ExportToExcel in std_script_v2.js located in images/script directory 
DEXDEPTABWA  000000000001240000000   000**********0000083    - Input parameters to this function are TableID (id attribute on the TABLE tag)                 
DEXDEPTABWA  000000000001250000000   000**********0000042    - StartColumn - 1st Column starts at 1                                                          
DEXDEPTABWA  000000000001260000000   000**********0000073    - ColumnCount - Number of Columns from StartColumn to Export to Excel                           
DEXDEPTABWA  000000000001270000000   000**********0000019    Print this Page                                                                                 
DEXDEPTABWA  000000000001280000000   000**********0000095    - Call Javascript function printPage in std_script_v2.js located in images/script directory     
DEXDEPTABWA  000000000001290000000   000**********0000093---------------------------------------------------------------------------------------------       
DEXDEPTABWA  000000000001300000000   000Webroutine0000020Name(ShowSearchList)                                                                                
DEXDEPTABWA  000000000001310000000   000Web_Map   0000042For(*Output) Fields((#XXEntries *Private))                                                          
DEXDEPTABWA  000000000001320000000   000Web_Map   0000059For(*Output) Fields((#XXCRUDLST *inline)) Options(*Persist)                                         
DEXDEPTABWA  000000000001330000000   000          0000000                                                                                                    
DEXDEPTABWA  000000000001340000000   000**********0000059 Intentionally empty as it is used only to display the page                                         
DEXDEPTABWA  000000000001350000000   000          0000000                                                                                                    
DEXDEPTABWA  000000000001360000000   000Endroutine0000000                                                                                                    
DEXDEPTABWA  000000000001370000000   000**********0000093---------------------------------------------------------------------------------------------       
DEXDEPTABWA  000000000001380000000   000          0000000                                                                                                    
DEXDEPTABWA  000000000001390000000   000          0000000                                                                                                    
DEXDEPTABWA  000000000001400000000   000**********0000093---------------------------------------------------------------------------------------------       
DEXDEPTABWA  000000000001410000000   000**********0000022 BuildFirst Webroutine                                                                              
DEXDEPTABWA  000000000001420000000   000**********0000054    Build Search Result List based on search criteria:                                              
DEXDEPTABWA  000000000001430000000   000**********0000051    - #XXSrchTyp determines file used to build list                                                 
DEXDEPTABWA  000000000001440000000   000**********0000065    - Return to ShowSearchList with Message when no matches found                                   
DEXDEPTABWA  000000000001450000000   000**********0000059    - Go directly to GetRecord when 1 match found (no list)                                         
DEXDEPTABWA  000000000001460000000   000**********0000057    - Return to ShowSearchList to show Search Result List                                           
DEXDEPTABWA  000000000001470000000   000**********0000093---------------------------------------------------------------------------------------------       
DEXDEPTABWA  000000000001480000000   000Webroutine0000032Name(BuildFirst) Response(*NONE)                                                                    
DEXDEPTABWA  000000000001490000000   000Web_Map   0000057For(*Output) Fields((#PRIFILRRN *Hide) (#XXCurRow *Hide))                                           
DEXDEPTABWA  000000000001500000000   000          0000000                                                                                                    
DEXDEPTABWA  000000000001510000000   000Clr_List  0000017Named(#XXCRUDLST)                                                                                   
DEXDEPTABWA  000000000001520000000   000          0000000                                                                                                    
DEXDEPTABWA  000000000001530000000   000**********0000045Search keys are according to #XXSrchTyp value                                                       
DEXDEPTABWA  000000000001540000000   000          0000000                                                                                                    
DEXDEPTABWA  000000000001550000000   000Case      0000020Of_Field(#XXSrchTyp)                                                                                
DEXDEPTABWA  000000000001560000000   000          0000000                                                                                                    
DEXDEPTABWA  000000000001570000000   000          0000000                                                                                                    
DEXDEPTABWA  000000000001580000000   000**********0000045If "by Department Code" search is requested..                                                       
DEXDEPTABWA  000000000001590000000   000When      0000015Value_Is(*EQ 1)                                                                                     
DEXDEPTABWA  000000000001600000000   000          0000000                                                                                                    
DEXDEPTABWA  000000000001610000001   035Select    0000100Fields(#XXCRUDLST) From_File(DEPTABCLOU) With_Key(#XXKEY0101) Nbr_Keys(*COMPUTE) Generic(*Yes) Retur
DEXDEPTABWA  000000000001610000002   000          0000052n_Rrn(#PRIFILRRN)00359980120131108ROBG       PCXTASK                                                
DEXDEPTABWA  000000000001620000000   000          0000000                                                                                                    
DEXDEPTABWA  000000000001630000000   000Add_Entry 0000019To_List(#XXCRUDLST)                                                                                 
DEXDEPTABWA  000000000001640000000   000          0000000                                                                                                    
DEXDEPTABWA  000000000001650000000   000**********0000037Only load up to the limit of entries.                                                               
DEXDEPTABWA  000000000001660000000   000If        0000025(#XXEntries *GE #XXLIMIT)                                                                           
DEXDEPTABWA  000000000001670000000   000Message   0000027Msgid(WCR0001) Msgf(DC@M01)                                                                         
DEXDEPTABWA  000000000001680000000   000Leave     0000000                                                                                                    
DEXDEPTABWA  000000000001690000000   000Endif     0000000                                                                                                    
DEXDEPTABWA  000000000001700000000   000          0000000                                                                                                    
DEXDEPTABWA  000000000001710000000   000Endselect 0000000                                                                                                    
DEXDEPTABWA  000000000001720000000   000          0000000                                                                                                    
DEXDEPTABWA  000000000001730000000   000          0000000                                                                                                    
DEXDEPTABWA  000000000001740000000   000**********0000043Should not get here (as no matching search)                                                         
DEXDEPTABWA  000000000001750000000   000Otherwise 0000000                                                                                                    
DEXDEPTABWA  000000000001760000000   000          0000000                                                                                                    
DEXDEPTABWA  000000000001770000000   000Endcase   0000000                                                                                                    
DEXDEPTABWA  000000000001780000000   000          0000000                                                                                                    
DEXDEPTABWA  000000000001790000000   000Case      0000020Of_Field(#XXEntries)                                                                                
DEXDEPTABWA  000000000001800000000   000          0000000                                                                                                    
DEXDEPTABWA  000000000001810000000   000**********0000026No matching Search Results                                                                          
DEXDEPTABWA  000000000001820000000   000When      0000015Value_Is(*EQ 0)                                                                                     
DEXDEPTABWA  000000000001830000000   000Message   0000027Msgid(WCR0002) Msgf(DC@M01)                                                                         
DEXDEPTABWA  000000000001840000000   000Transfer  0000025Toroutine(ShowSearchList)                                                                           
DEXDEPTABWA  000000000001850000000   000          0000000                                                                                                    
DEXDEPTABWA  000000000001860000000   000**********0000022Single matching result                                                                              
DEXDEPTABWA  000000000001870000000   000When      0000015Value_Is(*EQ 1)                                                                                     
DEXDEPTABWA  000000000001880000000   000Get_Entry 0000031Number(1) From_List(#XXCRUDLST)                                                                     
DEXDEPTABWA  000000000001890000000   000_ASSIGN   0000014#XXCurRow := 1                                                                                      
DEXDEPTABWA  000000000001900000000   000Transfer  0000020Toroutine(GetRecord)                                                                                
DEXDEPTABWA  000000000001910000000   000          0000000                                                                                                    
DEXDEPTABWA  000000000001920000000   000**********0000021Show the list results                                                                               
DEXDEPTABWA  000000000001930000000   000Otherwise 0000000                                                                                                    
DEXDEPTABWA  000000000001940000000   000Transfer  0000025Toroutine(ShowSearchList)                                                                           
DEXDEPTABWA  000000000001950000000   000          0000000                                                                                                    
DEXDEPTABWA  000000000001960000000   000Endcase   0000000                                                                                                    
DEXDEPTABWA  000000000001970000000   000          0000000                                                                                                    
DEXDEPTABWA  000000000001980000000   000Endroutine0000000                                                                                                    
DEXDEPTABWA  000000000001990000000   000**********0000093---------------------------------------------------------------------------------------------       
DEXDEPTABWA  000000000002000000000   000          0000000                                                                                                    
DEXDEPTABWA  000000000002010000000   000**********0000093---------------------------------------------------------------------------------------------       
DEXDEPTABWA  000000000002020000000   000**********0000022 ShowRecord Webroutine                                                                              
DEXDEPTABWA  000000000002030000000   000**********0000048    - Display Single Record for Update Operation                                                    
DEXDEPTABWA  000000000002040000000   000**********0000015    Save Button                                                                                     
DEXDEPTABWA  000000000002050000000   000**********0000034    - Call UpdateRecord Webroutine                                                                  
DEXDEPTABWA  000000000002060000000   000**********0000015    Copy Button                                                                                     
DEXDEPTABWA  000000000002070000000   000**********0000029    - Call ShowAdd Webroutine                                                                       
DEXDEPTABWA  000000000002080000000   000**********0000017    Delete Button                                                                                   
DEXDEPTABWA  000000000002090000000   000**********0000099    - Call Javascript function ConfirmDelete in std_script_v2.js located in images/script directory 
DEXDEPTABWA  000000000002100000000   000**********0000034    - Call DeleteRecord Webroutine                                                                  
DEXDEPTABWA  000000000002110000000   000**********0000025    Return to List Button                                                                           
DEXDEPTABWA  000000000002120000000   000**********0000036    - Call ShowSearchList Webroutine                                                                
DEXDEPTABWA  000000000002130000000   000**********0000093---------------------------------------------------------------------------------------------       
DEXDEPTABWA  000000000002140000000   000Webroutine0000016Name(ShowRecord)                                                                                    
DEXDEPTABWA  000000000002150000000   000Web_Map   0000066For(*Both) Fields((#PRIFILRRN *Hide) (#XXCurRow *Hide) #XXUpdFlds)                                  
DEXDEPTABWA  000000000002160000000   000          0000000                                                                                                    
DEXDEPTABWA  000000000002170000000   000**********0000059 Intentionally empty as it is used only to display the page                                         
DEXDEPTABWA  000000000002180000000   000          0000000                                                                                                    
DEXDEPTABWA  000000000002190000000   000Endroutine0000000                                                                                                    
DEXDEPTABWA  000000000002200000000   000**********0000093---------------------------------------------------------------------------------------------       
DEXDEPTABWA  000000000002210000000   000          0000000                                                                                                    
DEXDEPTABWA  000000000002220000000   000**********0000093---------------------------------------------------------------------------------------------       
DEXDEPTABWA  000000000002230000000   000**********0000060 GetRecord Webroutine for Personnel (Perform READ Operation)                                        
DEXDEPTABWA  000000000002240000000   000**********0000079    Review single file row with Update and Delete Operations for list selection                     
DEXDEPTABWA  000000000002250000000   000**********0000040    - Go to ShowRecord when record found                                                            
DEXDEPTABWA  000000000002260000000   000**********0000047    - Go to ShowSearchList when no record found                                                     
DEXDEPTABWA  000000000002270000000   000**********0000093---------------------------------------------------------------------------------------------       
DEXDEPTABWA  000000000002280000000   000Webroutine0000031Name(GetRecord) Response(*NONE)                                                                     
DEXDEPTABWA  000000000002290000000   000Web_Map   0000055For(*Both) Fields((#PRIFILRRN *Hide) (#XXCurRow *Hide))                                             
DEXDEPTABWA  000000000002300000000   000Web_Map   0000031For(*Output) Fields(#XXUpdFlds)                                                                     
DEXDEPTABWA  000000000002310000000   000          0000000                                                                                                    
DEXDEPTABWA  000000000002320000000   035Fetch     0000096Fields(#XXUpdFlds) From_File(DEPTABCLOU) With_Rrn(#PRIFILRRN)00359980120131108ROBG       PCXTASK    
DEXDEPTABWA  000000000002330000000   000          0000000                                                                                                    
DEXDEPTABWA  000000000002340000000   000**********0000031Allow for row no longer present                                                                     
DEXDEPTABWA  000000000002350000000   000If_Status 0000013Is_Not(*OKAY)                                                                                       
DEXDEPTABWA  000000000002360000000   000Message   0000052Msgtxt('Department ' + #DEPTMENT + *MTXT_XXNOTEXIST)                                                
DEXDEPTABWA  000000000002370000000   000Transfer  0000025Toroutine(ShowSearchList)                                                                           
DEXDEPTABWA  000000000002380000000   000Endif     0000000                                                                                                    
DEXDEPTABWA  000000000002390000000   035          000003500359980120151109ROBG       PCXTASK                                                                 
DEXDEPTABWA  000000000002400000000   035Message   0000071Msgtxt('Test Multilingual message:')00359980120151109ROBG       PCXTASK                             
DEXDEPTABWA  000000000002410000000   035Message   0000057Msgtxt(*MTXTSCTMLO402)00359980120151109ROBG       PCXTASK                                           
DEXDEPTABWA  000000000002420000000   035          000003500359980120131112ROBG       PCXTASK                                                                 
DEXDEPTABWA  000000000002430000000   000Transfer  0000021Toroutine(ShowRecord)                                                                               
DEXDEPTABWA  000000000002440000000   000Endroutine0000000                                                                                                    
DEXDEPTABWA  000000000002450000000   000**********0000093---------------------------------------------------------------------------------------------       
DEXDEPTABWA  000000000002460000000   000          0000000                                                                                                    
DEXDEPTABWA  000000000002470000000   000          0000000                                                                                                    
DEXDEPTABWA  000000000002480000000   000**********0000093---------------------------------------------------------------------------------------------       
DEXDEPTABWA  000000000002490000000   000**********0000019 ShowAdd Webroutine                                                                                 
DEXDEPTABWA  000000000002500000000   000**********0000050    - Display Single Record View for ADD Operation                                                  
DEXDEPTABWA  000000000002510000000   000**********0000015    Save Button                                                                                     
DEXDEPTABWA  000000000002520000000   000**********0000047    - Call AddRecord webroutine, #XXADDEXIT = N                                                     
DEXDEPTABWA  000000000002530000000   000**********0000057    Save and Copy Button (Duplicate Record functionality)                                           
DEXDEPTABWA  000000000002540000000   000**********0000047    - Call AddRecord webroutine, #XXADDEXIT = D                                                     
DEXDEPTABWA  000000000002550000000   000**********0000024    Save and Exit Button                                                                            
DEXDEPTABWA  000000000002560000000   000**********0000047    - Call AddRecord webroutine, #XXADDEXIT = Y                                                     
DEXDEPTABWA  000000000002570000000   000**********0000025    Return to List Button                                                                           
DEXDEPTABWA  000000000002580000000   000**********0000036    - Call ShowSearchList Webroutine                                                                
DEXDEPTABWA  000000000002590000000   000**********0000093---------------------------------------------------------------------------------------------       
DEXDEPTABWA  000000000002600000000   000Webroutine0000013Name(ShowAdd)                                                                                       
DEXDEPTABWA  000000000002610000000   000Web_Map   0000029For(*Both) Fields(#XXAddFlds)                                                                       
DEXDEPTABWA  000000000002620000000   000          0000000                                                                                                    
DEXDEPTABWA  000000000002630000000   000**********0000058Intentionally empty as it is used only to display the page                                          
DEXDEPTABWA  000000000002640000000   000          0000000                                                                                                    
DEXDEPTABWA  000000000002650000000   000Endroutine0000000                                                                                                    
DEXDEPTABWA  000000000002660000000   000**********0000092--------------------------------------------------------------------------------------------        
DEXDEPTABWA  000000000002670000000   000          0000000                                                                                                    
DEXDEPTABWA  000000000002680000000   000**********0000093---------------------------------------------------------------------------------------------       
DEXDEPTABWA  000000000002690000000   000**********0000020 SetupAdd Webroutine                                                                                
DEXDEPTABWA  000000000002700000000   000**********0000067    Add/Create Operation for single file row called from New button                                 
DEXDEPTABWA  000000000002710000000   000**********0000038    - Set all fields to Default values                                                              
DEXDEPTABWA  000000000002720000000   000**********0000024    - Set #XXADDEXIT = N                                                                            
DEXDEPTABWA  000000000002730000000   000**********0000093---------------------------------------------------------------------------------------------       
DEXDEPTABWA  000000000002740000000   000Webroutine0000030Name(SetupAdd) Response(*NONE)                                                                      
DEXDEPTABWA  000000000002750000000   000Web_Map   0000050For(*Output) Fields(#XXAddFlds (#XXAddExit *Hide))                                                  
DEXDEPTABWA  000000000002760000000   000          0000000                                                                                                    
DEXDEPTABWA  000000000002770000000   000**********0000033 Set Add Fields to Default Values                                                                   
DEXDEPTABWA  000000000002780000000   000_ASSIGN   0000022#XXAddFlds := *DEFAULT                                                                              
DEXDEPTABWA  000000000002790000000   000_ASSIGN   0000017#XXAddExit := 'N'                                                                                   
DEXDEPTABWA  000000000002800000000   000          0000000                                                                                                    
DEXDEPTABWA  000000000002810000000   000Transfer  0000018Toroutine(ShowAdd)                                                                                  
DEXDEPTABWA  000000000002820000000   000          0000000                                                                                                    
DEXDEPTABWA  000000000002830000000   000Endroutine0000000                                                                                                    
DEXDEPTABWA  000000000002840000000   000**********0000093---------------------------------------------------------------------------------------------       
DEXDEPTABWA  000000000002850000000   000          0000000                                                                                                    
DEXDEPTABWA  000000000002860000000   000**********0000093---------------------------------------------------------------------------------------------       
DEXDEPTABWA  000000000002870000000   000**********0000063 AddRecord Webroutine for Department (Perform CREATE Operation)                                     
DEXDEPTABWA  000000000002880000000   000**********0000031    Insert a Record/Row in file                                                                     
DEXDEPTABWA  000000000002890000000   000**********0000037    - Go to ShowAdd when Insert fails                                                               
DEXDEPTABWA  000000000002900000000   000**********0000029    When Insert is successful                                                                       
DEXDEPTABWA  000000000002910000000   000**********0000038    - Add record to Search Result List                                                              
DEXDEPTABWA  000000000002920000000   000**********0000023    When #XXAddExit = Y                                                                             
DEXDEPTABWA  000000000002930000000   000**********0000038    - Set all fields to Default values                                                              
DEXDEPTABWA  000000000002940000000   000**********0000037    - Go to ShowSearchList Webroutine                                                               
DEXDEPTABWA  000000000002950000000   000**********0000035    When #XXAddExit = D (Duplicate)                                                                 
DEXDEPTABWA  000000000002960000000   000**********0000030    - Go to ShowAdd Webroutine                                                                      
DEXDEPTABWA  000000000002970000000   000**********0000047    When #XXAddExit is NOT Y or D (Default New)                                                     
DEXDEPTABWA  000000000002980000000   000**********0000038    - Set all fields to Default values                                                              
DEXDEPTABWA  000000000002990000000   000**********0000030    - Go to ShowAdd Webroutine                                                                      
DEXDEPTABWA  000000000003000000000   000**********0000093---------------------------------------------------------------------------------------------       
DEXDEPTABWA  000000000003010000000   000Webroutine0000031Name(AddRecord) Response(*NONE)                                                                     
DEXDEPTABWA  000000000003020000000   000Web_Map   0000029For(*Both) Fields(#XXAddFlds)                                                                       
DEXDEPTABWA  000000000003030000000   000Web_Map   0000030For(*Input) Fields(#XXAddExit)                                                                      
DEXDEPTABWA  000000000003040000000   000          0000000                                                                                                    
DEXDEPTABWA  000000000003050000000   000**********0000034 Attempt to insert the row of data                                                                  
DEXDEPTABWA  000000000003060000001   035Insert    0000100Fields(#XXAddFlds) To_File(DEPTABCLOU) Io_Error(*NEXT) Val_Error(*NEXT) Return_Rrn(#PRIFILRRN)003599
DEXDEPTABWA  000000000003060000002   000          000002980120131108ROBG       PCXTASK                                                                       
DEXDEPTABWA  000000000003070000000   000          0000000                                                                                                    
DEXDEPTABWA  000000000003080000000   000**********0000018 Insert successful                                                                                  
DEXDEPTABWA  000000000003090000000   000If_Status 0000009Is(*Okay)                                                                                           
DEXDEPTABWA  000000000003100000000   000          0000000                                                                                                    
DEXDEPTABWA  000000000003110000000   000**********0000030Add to the Search Results List                                                                      
DEXDEPTABWA  000000000003120000000   000Add_Entry 0000019To_List(#XXCRUDLST)                                                                                 
DEXDEPTABWA  000000000003130000000   000          0000000                                                                                                    
DEXDEPTABWA  000000000003140000000   000Else      0000000                                                                                                    
DEXDEPTABWA  000000000003150000000   000          0000000                                                                                                    
DEXDEPTABWA  000000000003160000000   000**********0000060If Validation errors occur - Redisplay record for correction                                        
DEXDEPTABWA  000000000003170000000   000Transfer  0000018Toroutine(ShowAdd)                                                                                  
DEXDEPTABWA  000000000003180000000   000Endif     0000000                                                                                                    
DEXDEPTABWA  000000000003190000000   000          0000000                                                                                                    
DEXDEPTABWA  000000000003200000000   000Case      0000020Of_Field(#XXAddExit)                                                                                
DEXDEPTABWA  000000000003210000000   000          0000000                                                                                                    
DEXDEPTABWA  000000000003220000000   000**********0000063Return to Search Result List if Create Operation was successful                                     
DEXDEPTABWA  000000000003230000000   000          0000000                                                                                                    
DEXDEPTABWA  000000000003240000000   000When      0000017Value_Is(*EQ 'Y')                                                                                   
DEXDEPTABWA  000000000003250000000   000Message   0000054Msgtxt('Department ' + #DEPTMENT + *MTXT_XXWASCREATED)                                              
DEXDEPTABWA  000000000003260000000   000_ASSIGN   0000022#XXAddFlds := *DEFAULT                                                                              
DEXDEPTABWA  000000000003270000000   000Transfer  0000025Toroutine(ShowSearchList)                                                                           
DEXDEPTABWA  000000000003280000000   000          0000000                                                                                                    
DEXDEPTABWA  000000000003290000000   000**********0000036Add row and keep values for next add                                                                
DEXDEPTABWA  000000000003300000000   000When      0000017Value_Is(*EQ 'D')                                                                                   
DEXDEPTABWA  000000000003310000000   000Message   0000054Msgtxt('Department ' + #DEPTMENT + *MTXT_XXWASCREATED)                                              
DEXDEPTABWA  000000000003320000000   000Message   0000048Msgid(WCR0003) Msgf(DC@M01) Msgdta('Department')                                                    
DEXDEPTABWA  000000000003330000000   000Transfer  0000018Toroutine(ShowAdd)                                                                                  
DEXDEPTABWA  000000000003340000000   000          0000000                                                                                                    
DEXDEPTABWA  000000000003350000000   000**********0000039Add row and reset defaults for next add                                                             
DEXDEPTABWA  000000000003360000000   000Otherwise 0000000                                                                                                    
DEXDEPTABWA  000000000003370000000   000Message   0000054Msgtxt('Department ' + #DEPTMENT + *MTXT_XXWASCREATED)                                              
DEXDEPTABWA  000000000003380000000   000Message   0000048Msgid(WCR0003) Msgf(DC@M01) Msgdta('Department')                                                    
DEXDEPTABWA  000000000003390000000   000_ASSIGN   0000022#XXAddFlds := *DEFAULT                                                                              
DEXDEPTABWA  000000000003400000000   000Transfer  0000018Toroutine(ShowAdd)                                                                                  
DEXDEPTABWA  000000000003410000000   000          0000000                                                                                                    
DEXDEPTABWA  000000000003420000000   000Endcase   0000000                                                                                                    
DEXDEPTABWA  000000000003430000000   000          0000000                                                                                                    
DEXDEPTABWA  000000000003440000000   000Endroutine0000000                                                                                                    
DEXDEPTABWA  000000000003450000000   000**********0000093---------------------------------------------------------------------------------------------       
DEXDEPTABWA  000000000003460000000   000          0000000                                                                                                    
DEXDEPTABWA  000000000003470000000   000**********0000093---------------------------------------------------------------------------------------------       
DEXDEPTABWA  000000000003480000000   000**********0000065 UpdateRecord Webroutine for Personnel (Perform UPDATE Operation)                                   
DEXDEPTABWA  000000000003490000000   000**********0000029    Update Record/Row in file                                                                       
DEXDEPTABWA  000000000003500000000   000**********0000038    - Go to ShowRecord if Update fails                                                              
DEXDEPTABWA  000000000003510000000   000**********0000029    When Update is successful                                                                       
DEXDEPTABWA  000000000003520000000   000**********0000062    - Update values in Search Result List using XXTmpFlds List                                      
DEXDEPTABWA  000000000003530000000   000**********0000037    - Go to ShowSearchList Webroutine                                                               
DEXDEPTABWA  000000000003540000000   000**********0000093---------------------------------------------------------------------------------------------       
DEXDEPTABWA  000000000003550000000   000Webroutine0000034Name(UpdateRecord) Response(*NONE)                                                                  
DEXDEPTABWA  000000000003560000000   000Web_Map   0000067For(*Input) Fields((#PRIFILRRN *Hide) (#XXCurRow *Hide) #XXUpdFlds)                                 
DEXDEPTABWA  000000000003570000000   000          0000000                                                                                                    
DEXDEPTABWA  000000000003580000001   035Update    0000100Fields(#XXUpdFlds) In_File(DEPTABCLOU) Io_Error(*NEXT) Val_Error(*NEXT) With_Rrn(#PRIFILRRN)00359980
DEXDEPTABWA  000000000003580000002   000          0000027120131108ROBG       PCXTASK                                                                         
DEXDEPTABWA  000000000003590000000   000          0000000                                                                                                    
DEXDEPTABWA  000000000003600000000   000If_Status 0000013Is_Not(*Okay)                                                                                       
DEXDEPTABWA  000000000003610000000   000Transfer  0000021Toroutine(ShowRecord)                                                                               
DEXDEPTABWA  000000000003620000000   000Endif     0000000                                                                                                    
DEXDEPTABWA  000000000003630000000   000          0000000                                                                                                    
DEXDEPTABWA  000000000003640000000   000Message   0000053Msgtxt('Department  ' + #DEPTMENT + *MTXT_XXWASSAVED)                                               
DEXDEPTABWA  000000000003650000000   000          0000000                                                                                                    
DEXDEPTABWA  000000000003660000000   000**********0000068Save current updated row then update row in the list with new values                                
DEXDEPTABWA  000000000003670000000   000Clr_List  0000017Named(#XXTmpFlds)                                                                                   
DEXDEPTABWA  000000000003680000000   000Add_Entry 0000019To_List(#XXTmpFlds)                                                                                 
DEXDEPTABWA  000000000003690000000   035          000003500359980120140710ROBG       PCXTASK                                                                 
DEXDEPTABWA  000000000003700000000   000Get_Entry 0000039Number(#XXCurRow) From_List(#XXCRUDLST)                                                             
DEXDEPTABWA  000000000003710000000   035If_Status 0000048Is_Not(*Okay)00359980120140710ROBG       PCXTASK                                                    
DEXDEPTABWA  000000000003720000001   035Message   0000100Msgtxt('Entry  ' + #XXCurRow.asString + ' does not exist in #XXCRUDLST whilst processing Department 
DEXDEPTABWA  000000000003720000002   000          0000049' + #DEPTMENT)00359980120140710ROBG       PCXTASK                                                   
DEXDEPTABWA  000000000003730000000   035Else      000003500359980120140710ROBG       PCXTASK                                                                 
DEXDEPTABWA  000000000003740000000   035Get_Entry 0000066Number(1) From_List(#XXTmpFlds)00359980120140710ROBG       PCXTASK                                  
DEXDEPTABWA  000000000003750000000   035Upd_Entry 0000054In_List(#XXCRUDLST)00359980120140710ROBG       PCXTASK                                              
DEXDEPTABWA  000000000003760000000   035Endif     000003500359980120140710ROBG       PCXTASK                                                                 
DEXDEPTABWA  000000000003770000000   035          000003500359980120140710ROBG       PCXTASK                                                                 
DEXDEPTABWA  000000000003780000000   000Transfer  0000025Toroutine(ShowSearchList)                                                                           
DEXDEPTABWA  000000000003790000000   000          0000000                                                                                                    
DEXDEPTABWA  000000000003800000000   000Endroutine0000000                                                                                                    
DEXDEPTABWA  000000000003810000000   000**********0000093---------------------------------------------------------------------------------------------       
DEXDEPTABWA  000000000003820000000   000          0000000                                                                                                    
DEXDEPTABWA  000000000003830000000   000**********0000093---------------------------------------------------------------------------------------------       
DEXDEPTABWA  000000000003840000000   000**********0000065 DeleteRecord Webroutine for Personnel (Perform DELETE Operation)                                   
DEXDEPTABWA  000000000003850000000   000**********0000031    Delete Record/Row from file                                                                     
DEXDEPTABWA  000000000003860000000   000**********0000038    - Go to ShowRecord if Delete fails                                                              
DEXDEPTABWA  000000000003870000000   000**********0000048    When Delete is successful or No record found                                                    
DEXDEPTABWA  000000000003880000000   000**********0000040    - Delete row from Search Result List                                                            
DEXDEPTABWA  000000000003890000000   000**********0000026    - Go to ShowSearchList                                                                          
DEXDEPTABWA  000000000003900000000   000**********0000093---------------------------------------------------------------------------------------------       
DEXDEPTABWA  000000000003910000000   000Webroutine0000034Name(DeleteRecord) Response(*NONE)                                                                  
DEXDEPTABWA  000000000003920000000   000Web_Map   0000056For(*Input) Fields((#PRIFILRRN *Hide) (#XXCurRow *Hide))                                            
DEXDEPTABWA  000000000003930000000   000          0000000                                                                                                    
DEXDEPTABWA  000000000003940000000   035Fetch     0000096Fields(#XXUpdFlds) From_File(DEPTABCLOU) With_Rrn(#PRIFILRRN)00359980120131108ROBG       PCXTASK    
DEXDEPTABWA  000000000003950000000   000          0000000                                                                                                    
DEXDEPTABWA  000000000003960000000   000If_Status 0000009Is(*Okay)                                                                                           
DEXDEPTABWA  000000000003970000000   000          0000000                                                                                                    
DEXDEPTABWA  000000000003980000000   000**********0000000                                                                                                    
DEXDEPTABWA  000000000003990000000   000**********0000094This is where you would delete any related table data using the values from the previous fetch      
DEXDEPTABWA  000000000004000000000   000**********0000000                                                                                                    
DEXDEPTABWA  000000000004010000000   000          0000000                                                                                                    
DEXDEPTABWA  000000000004020000000   000**********0000014Delete the row                                                                                      
DEXDEPTABWA  000000000004030000001   035Delete    0000100From_File(DEPTABCLOU) Io_Error(*NEXT) Val_Error(*NEXT) With_Rrn(#PRIFILRRN)00359980120131108ROBG    
DEXDEPTABWA  000000000004030000002   000          0000010   PCXTASK                                                                                          
DEXDEPTABWA  000000000004040000000   000          0000000                                                                                                    
DEXDEPTABWA  000000000004050000000   000**********0000031Allow for row cannot be deleted                                                                     
DEXDEPTABWA  000000000004060000000   000If_Status 0000013Is_Not(*okay)                                                                                       
DEXDEPTABWA  000000000004070000000   000Message   0000054Msgtxt('Department ' + #DEPTMENT + *MTXT_XXNOTDELETED)                                              
DEXDEPTABWA  000000000004080000000   000Transfer  0000021Toroutine(ShowRecord)                                                                               
DEXDEPTABWA  000000000004090000000   000Endif     0000000                                                                                                    
DEXDEPTABWA  000000000004100000000   000          0000000                                                                                                    
DEXDEPTABWA  000000000004110000000   000Message   0000054Msgtxt('Department ' + #DEPTMENT + *MTXT_XXWASDELETED)                                              
DEXDEPTABWA  000000000004120000000   000          0000000                                                                                                    
DEXDEPTABWA  000000000004130000000   000Else      0000000                                                                                                    
DEXDEPTABWA  000000000004140000000   000          0000000                                                                                                    
DEXDEPTABWA  000000000004150000000   000**********0000058Allow for row no longer present (and delete from list too)                                          
DEXDEPTABWA  000000000004160000000   000Message   0000052Msgtxt('Department ' + #DEPTMENT + *MTXT_XXNOTEXIST)                                                
DEXDEPTABWA  000000000004170000000   000          0000000                                                                                                    
DEXDEPTABWA  000000000004180000000   000Endif     0000000                                                                                                    
DEXDEPTABWA  000000000004190000000   000          0000000                                                                                                    
DEXDEPTABWA  000000000004200000000   000**********0000041Delete Record from the Search Result List                                                           
DEXDEPTABWA  000000000004210000000   000Dlt_Entry 0000039Number(#XXCurRow) From_List(#XXCRUDLST)                                                             
DEXDEPTABWA  000000000004220000000   000          0000000                                                                                                    
DEXDEPTABWA  000000000004230000000   000Transfer  0000025Toroutine(ShowSearchList)                                                                           
DEXDEPTABWA  000000000004240000000   000          0000000                                                                                                    
DEXDEPTABWA  000000000004250000000   000Endroutine0000000                                                                                                    
DEXDEPTABWA  000000000004260000000   000**********0000093---------------------------------------------------------------------------------------------       
DEXDEPTABWA  000000000004270000000   000          0000000                                                                                                    
DEXDEPTABWA  000000000004280000000   000**********0000093---------------------------------------------------------------------------------------------       
DEXDEPTABWA  000000000004290000000   000**********0000039 BuildRelated Webroutine for Department                                                             
DEXDEPTABWA  000000000004300000000   000**********0000052    Handle a Drilldown request from another CRUD WAM                                                
DEXDEPTABWA  000000000004310000000   000**********0000055    - Receives Phyiscal or Logical File Key Information                                             
DEXDEPTABWA  000000000004320000000   000**********0000072    - Receives Physical or Logical File Name to use for drilldown search                            
DEXDEPTABWA  000000000004330000000   000**********0000066    Build Search Result List based on FileName and Key Information                                  
DEXDEPTABWA  000000000004340000000   000**********0000078    - #XXDDENTDS describes the Parent Entity that is performing the drill down                      
DEXDEPTABWA  000000000004350000000   000**********0000065    - #XXFILENAM determines file used to build Search Result list                                   
DEXDEPTABWA  000000000004360000000   000**********0000065    - Return to ShowSearchList with Message when no matches found                                   
DEXDEPTABWA  000000000004370000000   000**********0000059    - Transfer to ShowSearchList to show Search Result List                                         
DEXDEPTABWA  000000000004380000000   000**********0000093---------------------------------------------------------------------------------------------       
DEXDEPTABWA  000000000004390000000   000Webroutine0000063Name(BuildRelated) Response(*NONE) Onentry(*SESSIONSTATUS_NONE)                                     
DEXDEPTABWA  000000000004400000000   000Web_Map   0000059For(*Output) Fields((#XXCRUDLST *inline)) Options(*Persist)                                         
DEXDEPTABWA  000000000004410000000   000Web_Map   0000031For(*Output) Fields(#XXShowSch)                                                                     
DEXDEPTABWA  000000000004420000000   000Web_Map   0000051For(*Input) Fields(#DEPTMENT #XXFileNam #XXDDEntDs)                                                 
DEXDEPTABWA  000000000004430000000   000          0000000                                                                                                    
DEXDEPTABWA  000000000004440000000   000**********0000068Activate a New Session (required for reuse of names in generic code)                                
DEXDEPTABWA  000000000004450000000   000_ASSIGN   0000037#Com_Owner.SessionStatus := NewActive                                                               
DEXDEPTABWA  000000000004460000000   000          0000000                                                                                                    
DEXDEPTABWA  000000000004470000000   000**********0000058Indicate no searches to be shown for the drilldown results                                          
DEXDEPTABWA  000000000004480000000   000_ASSIGN   0000015#XXShowSch := N                                                                                     
DEXDEPTABWA  000000000004490000000   000          0000000                                                                                                    
DEXDEPTABWA  000000000004500000000   000Clr_List  0000017Named(#XXCRUDLST)                                                                                   
DEXDEPTABWA  000000000004510000000   000          0000000                                                                                                    
DEXDEPTABWA  000000000004520000000   000**********0000035Search based on File Name passed in                                                                 
DEXDEPTABWA  000000000004530000000   000          0000000                                                                                                    
DEXDEPTABWA  000000000004540000000   000Case      0000020Of_Field(#XXFileNam)                                                                                
DEXDEPTABWA  000000000004550000000   000          0000000                                                                                                    
DEXDEPTABWA  000000000004560000000   035**********0000096If Physical File DEPTABCLOU - Department code table requested00359980120131108ROBG       PCXTASK    
DEXDEPTABWA  000000000004570000000   035When      0000059Value_Is(*EQ DEPTABCLOU)00359980120131108ROBG       PCXTASK                                         
DEXDEPTABWA  000000000004580000001   035Select    0000100Fields(#XXCRUDLST) From_File(DEPTABCLOU) With_Key(#DEPTMENT) Nbr_Keys(*COMPUTE) Generic(*Yes) Return
DEXDEPTABWA  000000000004580000002   000          0000051_Rrn(#PRIFILRRN)00359980120131108ROBG       PCXTASK                                                 
DEXDEPTABWA  000000000004590000000   000          0000000                                                                                                    
DEXDEPTABWA  000000000004600000000   000Add_Entry 0000019To_List(#XXCRUDLST)                                                                                 
DEXDEPTABWA  000000000004610000000   000          0000000                                                                                                    
DEXDEPTABWA  000000000004620000000   000If        0000025(#XXEntries *GE #XXLIMIT)                                                                           
DEXDEPTABWA  000000000004630000000   000Message   0000027Msgid(WCR0001) Msgf(DC@M01)                                                                         
DEXDEPTABWA  000000000004640000000   000Leave     0000000                                                                                                    
DEXDEPTABWA  000000000004650000000   000Endif     0000000                                                                                                    
DEXDEPTABWA  000000000004660000000   000          0000000                                                                                                    
DEXDEPTABWA  000000000004670000000   000Endselect 0000000                                                                                                    
DEXDEPTABWA  000000000004680000000   000          0000000                                                                                                    
DEXDEPTABWA  000000000004690000000   000          0000000                                                                                                    
DEXDEPTABWA  000000000004700000000   000Otherwise 0000000                                                                                                    
DEXDEPTABWA  000000000004710000000   000          0000000                                                                                                    
DEXDEPTABWA  000000000004720000000   000Message   0000046Msgid(WCR0004) Msgf(DC@M01) Msgdta(#XXFileNam)                                                      
DEXDEPTABWA  000000000004730000000   000          0000000                                                                                                    
DEXDEPTABWA  000000000004740000000   000Endcase   0000000                                                                                                    
DEXDEPTABWA  000000000004750000000   000          0000000                                                                                                    
DEXDEPTABWA  000000000004760000000   000**********0000027No drilldown search results                                                                         
DEXDEPTABWA  000000000004770000000   000If        0000018(#XXEntries *EQ 0)                                                                                  
DEXDEPTABWA  000000000004780000000   000Message   0000059Msgid(WCR0005) Msgf(DC@M01) Msgdta(#XXDDEntDs 'Department')                                         
DEXDEPTABWA  000000000004790000000   000Endif     0000000                                                                                                    
DEXDEPTABWA  000000000004800000000   000          0000000                                                                                                    
DEXDEPTABWA  000000000004810000000   000**********0000021Show the list results                                                                               
DEXDEPTABWA  000000000004820000000   000Transfer  0000025Toroutine(ShowSearchList)                                                                           
DEXDEPTABWA  000000000004830000000   000          0000000                                                                                                    
DEXDEPTABWA  000000000004840000000   000Endroutine0000000                                                                                                    
DEXDEPTABWA  000000000004850000000   000**********0000093---------------------------------------------------------------------------------------------       
DEXDEPTABWA  000000000004860000000   000          0000000                                                                                                    
DEXDEPTABWA  000000000004870000000   000**********0000093---------------------------------------------------------------------------------------------       
DEXDEPTABWA  000000000004880000000   000**********0000026 SetupDrilldown Webroutine                                                                          
DEXDEPTABWA  000000000004890000000   000**********0000076    Called from Search Result List entry button to perform Drilldown request                        
DEXDEPTABWA  000000000004900000000   000**********0000055    - Receives the Current Row number that was selected                                             
DEXDEPTABWA  000000000004910000000   000**********0000045    - Receives and Passes current Entity Name                                                       
DEXDEPTABWA  000000000004920000000   000**********0000076    - Receives Filename (Physical or Logical) that will be used to drilldown                        
DEXDEPTABWA  000000000004930000000   000**********0000093---------------------------------------------------------------------------------------------       
DEXDEPTABWA  000000000004940000000   000          0000000                                                                                                    
DEXDEPTABWA  000000000004950000000   000Webroutine0000036Name(SetupDrillDown) Response(*NONE)                                                                
DEXDEPTABWA  000000000004960000000   000Web_Map   0000091For(*Both) Fields((#XXDDSeq *hide) (#XXFileNam *hide) (#XXDDEntDs *hide) (#XXCurRow *hide))         
DEXDEPTABWA  000000000004970000000   000Web_Map   0000038For(*Output) Fields((#DEPTMENT *hide))                                                              
DEXDEPTABWA  000000000004980000000   000          0000000                                                                                                    
DEXDEPTABWA  000000000004990000000   000Get_Entry 0000039Number(#XXCurRow) From_List(#XXCRUDLST)                                                             
DEXDEPTABWA  000000000005000000000   000          0000000                                                                                                    
DEXDEPTABWA  000000000005010000000   000          0000000                                                                                                    
DEXDEPTABWA  000000000005020000000   000Transfer  0000051Toroutine(*EVALUATE #XXWAMName) Onentry(*MAP_LOCAL)                                                 
DEXDEPTABWA  000000000005030000000   000          0000000                                                                                                    
DEXDEPTABWA  000000000005040000000   000Endroutine0000000                                                                                                    
DEXDEPTABWA  000000000005050000000   000**********0000093---------------------------------------------------------------------------------------------       
DEXDEPTABWA  000000000005060000000   000          0000000                                                                                                    
DEXDEPTABWA  000000000005070000000   000**********0000093---------------------------------------------------------------------------------------------       
DEXDEPTABWA  000000000005080000000   000**********0000062 SessionInvalid Handler - Handle Session Time Out (10 minutes)                                      
DEXDEPTABWA  000000000005090000000   000**********0000093---------------------------------------------------------------------------------------------       
DEXDEPTABWA  000000000005100000000   000Evtroutine0000076Handling(#COM_OWNER.SessionInvalid) Options(*NOCLEARMESSAGES *NOCLEARERRORS)                        
DEXDEPTABWA  000000000005110000000   000Transfer  0000025Toroutine(MaintainRecord)                                                                           
DEXDEPTABWA  000000000005120000000   000Endroutine0000000                                                                                                    
DEXDEPTABWA  000000000005130000000   000**********0000093---------------------------------------------------------------------------------------------       
DEXDEPTABWA  000000000005140000000   035          000003500359980120150226ROBG       PCXTASK                                                                 
DEXDEPTABWA  000000000005150000000   035Webroutine0000061Name(tiny) Response(*json)00359980120150226ROBG       PCXTASK                                       
DEXDEPTABWA  000000000005160000000   035Endroutine000003500359980120150226ROBG       PCXTASK                                                                 
DEXDEPTABWA  000000000005170000000   035          000003500359980120150226ROBG       PCXTASK                                                                 
DEXDEPTABWA  000000000005180000000   000          0000000                                                                                                    
DEXDEPTABWA  000000000005190000000   000End_Com   0000000                                                                                                    
DEXJSMTEST   000000000000010000000   000**********0000050**************************************************                                                  
DEXJSMTEST   000000000000020000000   000**********0000000                                                                                                    
DEXJSMTEST   000000000000030000000   000**********0000021 COMPONENT:  STD_FORM                                                                               
DEXJSMTEST   000000000000040000000   000**********0000000                                                                                                    
DEXJSMTEST   000000000000050000000   000**********0000050**************************************************                                                  
DEXJSMTEST   000000000000060000000   000Function  0000016Options(*DIRECT)                                                                                    
DEXJSMTEST   000000000000070000001   035Begin_Com 0000100Role(*EXTENDS #PRIM_FORM) Clientwidth(577) Clientheight(466) Componentversion(2) Left(1000) Top(216)
DEXJSMTEST   000000000000070000002   000          0000055 Caption('JSM Open')00359980120150526ROBG       PCXTASK                                             
DEXJSMTEST   000000000000080000001   035Define_Com0000100Class(#PRIM_PHBN) Name(#Button1) Caption('JSM Open') Displayposition(1) Left(35) Parent(#COM_OWNER) 
DEXJSMTEST   000000000000080000002   000          0000058Tabposition(1) Top(399)00359980120150522ROBG       PCXTASK                                          
DEXJSMTEST   000000000000090000001   035Define_Com0000100Class(#PRIM_PHBN) Name(#Button2) Caption('JSM Close') Displayposition(2) Left(144) Parent(#COM_OWNER
DEXJSMTEST   000000000000090000002   000          0000060) Tabposition(2) Top(400)00359980120150522ROBG       PCXTASK                                        
DEXJSMTEST   000000000000100000001   035Define_Com0000100Class(#PRIM_PHBN) Name(#Button3) Caption('JSM Open & Close') Displayposition(3) Left(253) Parent(#CO
DEXJSMTEST   000000000000100000002   000          0000078M_OWNER) Tabposition(3) Top(403) Width(111)00359980120150522ROBG       PCXTASK                      
DEXJSMTEST   000000000000110000001   035Define_Com0000100Class(#PRIM_STBR) Name(#StatusBar1) Autolayout(False) Displayposition(4) Height(73) Left(16) Message
DEXJSMTEST   000000000000110000002   000          0000100position(1) Parent(#COM_OWNER) Tabposition(4) Tabstop(False) Top(128) Width(545)00359980120150522ROB
DEXJSMTEST   000000000000110000003   000          0000015G       PCXTASK                                                                                     
DEXJSMTEST   000000000000120000001   035Define_Com0000100Class(#PRIM_PHBN) Name(#Button4) Caption('Full Test') Displayposition(5) Left(420) Parent(#COM_OWNER
DEXJSMTEST   000000000000120000002   000          0000060) Tabposition(5) Top(407)00359980120150526ROBG       PCXTASK                                        
DEXJSMTEST   000000000000130000000   000          0000000                                                                                                    
DEXJSMTEST   000000000000140000000   000Evtroutine0000035Handling(#com_owner.CreateInstance)                                                                 
DEXJSMTEST   000000000000150000000   000          0000000                                                                                                    
DEXJSMTEST   000000000000160000000   000Set       0000040Com(#com_owner) Caption(*component_desc)                                                            
DEXJSMTEST   000000000000170000000   000          0000000                                                                                                    
DEXJSMTEST   000000000000180000000   000Endroutine0000000                                                                                                    
DEXJSMTEST   000000000000190000000   035          000003500359980120150526ROBG       PCXTASK                                                                 
DEXJSMTEST   000000000000200000000   035Define    0000087Field(#JSMXHDLE2) Reffld(#JSMXHDLE1) Default("0000")00359980120150526ROBG       PCXTASK             
DEXJSMTEST   000000000000210000000   035          000003500359980120150526ROBG       PCXTASK                                                                 
DEXJSMTEST   000000000000220000000   035Define    0000070Field(#TYPE1) Type(*CHAR) Length(1)00359980120150522ROBG       PCXTASK                              
DEXJSMTEST   000000000000230000000   035Define    0000070Field(#FILE) Type(*CHAR) Length(80)00359980120150522ROBG       PCXTASK                              
DEXJSMTEST   000000000000240000000   035          000003500359980120150522ROBG       PCXTASK                                                                 
DEXJSMTEST   000000000000250000001   035Def_List  0000100Name(#WRKLST) Fields((#TYPE1 *OUTPUT) (#FILE *OUTPUT)) Type(*WORKING) Entrys(100)00359980120150522RO
DEXJSMTEST   000000000000250000002   000          0000016BG       PCXTASK                                                                                    
DEXJSMTEST   000000000000260000000   035          000003500359980120150522ROBG       PCXTASK                                                                 
DEXJSMTEST   000000000000270000000   035Subroutine0000047Name(weblic)00359980120150522ROBG       PCXTASK                                                     
DEXJSMTEST   000000000000280000000   035Define    0000075Field(#SERVICE1) Type(*CHAR) Length(100)00359980120150522ROBG       PCXTASK                         
DEXJSMTEST   000000000000290000000   035Define    0000074Field(#SERVER1) Type(*CHAR) Length(100)00359980120150522ROBG       PCXTASK                          
DEXJSMTEST   000000000000300000000   035Change    0000072Field(#SERVICE1) To('''FTPSERVICE''')00359980120150522ROBG       PCXTASK                            
DEXJSMTEST   000000000000310000000   035**********0000082Change Field(#SERVER1) To('''localhost:8423''')00359980120150522ROBG       PCXTASK                  
DEXJSMTEST   000000000000320000000   035Message   0000055Msgtxt('ftpservice')00359980120150522ROBG       PCXTASK                                             
DEXJSMTEST   000000000000330000000   035Execute   0000090Subroutine(Checklicense) With_Parms(#SERVER1 #SERVICE1)00359980120150522ROBG       PCXTASK          
DEXJSMTEST   000000000000340000000   035_ASSIGN   0000049#TYPE1 := AAAA00359980120150522ROBG       PCXTASK                                                   
DEXJSMTEST   000000000000350000000   035_ASSIGN   0000052#FILE := AAAAAAAA00359980120150522ROBG       PCXTASK                                                
DEXJSMTEST   000000000000360000000   035Add_Entry 0000051To_List(#WRKLST)00359980120150522ROBG       PCXTASK                                                 
DEXJSMTEST   000000000000370000000   035Add_Entry 0000051To_List(#WRKLST)00359980120150522ROBG       PCXTASK                                                 
DEXJSMTEST   000000000000380000000   035Add_Entry 0000051To_List(#WRKLST)00359980120150522ROBG       PCXTASK                                                 
DEXJSMTEST   000000000000390000000   035**********0000090Change Field(#SERVICE1) To('''AS2CertificateService''')00359980120150522ROBG       PCXTASK          
DEXJSMTEST   000000000000400000000   035**********0000067Message Msgtxt('as2certificate')00359980120150522ROBG       PCXTASK                                 
DEXJSMTEST   000000000000410000000   035**********0000098Execute Subroutine(Checklicense) With_Parms(#SERVER1 #SERVICE1)00359980120150522ROBG       PCXTASK  
DEXJSMTEST   000000000000420000000   035**********0000078Change Field(#SERVICE1) To('''as2server''')00359980120150522ROBG       PCXTASK                      
DEXJSMTEST   000000000000430000000   035**********0000062Message Msgtxt('as2server')00359980120150522ROBG       PCXTASK                                      
DEXJSMTEST   000000000000440000000   035**********0000098Execute Subroutine(Checklicense) With_Parms(#SERVER1 #SERVICE1)00359980120150522ROBG       PCXTASK  
DEXJSMTEST   000000000000450000000   035**********0000078Change Field(#SERVICE1) To('''QAService''')00359980120150522ROBG       PCXTASK                      
DEXJSMTEST   000000000000460000000   035**********0000062Message Msgtxt('QAService')00359980120150522ROBG       PCXTASK                                      
DEXJSMTEST   000000000000470000000   035**********0000098Execute Subroutine(Checklicense) With_Parms(#SERVER1 #SERVICE1)00359980120150522ROBG       PCXTASK  
DEXJSMTEST   000000000000480000000   035          000003500359980120150522ROBG       PCXTASK                                                                 
DEXJSMTEST   000000000000490000000   035Change    0000079Field(#SERVICE1) To('''BOSBookletService''')00359980120150522ROBG       PCXTASK                     
DEXJSMTEST   000000000000500000000   035Message   0000048Msgtxt('Bos')00359980120150522ROBG       PCXTASK                                                    
DEXJSMTEST   000000000000510000000   035Execute   0000090Subroutine(Checklicense) With_Parms(#SERVER1 #SERVICE1)00359980120150522ROBG       PCXTASK          
DEXJSMTEST   000000000000520000000   035          000003500359980120150522ROBG       PCXTASK                                                                 
DEXJSMTEST   000000000000530000000   035Change    0000073Field(#SERVICE1) To(AS2InboundService)00359980120150522ROBG       PCXTASK                           
DEXJSMTEST   000000000000540000000   035Message   0000073Msgtxt('Testing load of ' + #SERVICE1)00359980120150522ROBG       PCXTASK                           
DEXJSMTEST   000000000000550000000   035Execute   0000090Subroutine(Checklicense) With_Parms(#SERVER1 #SERVICE1)00359980120150522ROBG       PCXTASK          
DEXJSMTEST   000000000000560000000   035          000003500359980120150522ROBG       PCXTASK                                                                 
DEXJSMTEST   000000000000570000000   035Change    0000074Field(#SERVICE1) To(AS2OutboundService)00359980120150522ROBG       PCXTASK                          
DEXJSMTEST   000000000000580000000   035Message   0000073Msgtxt('Testing load of ' + #SERVICE1)00359980120150522ROBG       PCXTASK                           
DEXJSMTEST   000000000000590000000   035Execute   0000090Subroutine(Checklicense) With_Parms(#SERVER1 #SERVICE1)00359980120150522ROBG       PCXTASK          
DEXJSMTEST   000000000000600000000   035          000003500359980120150522ROBG       PCXTASK                                                                 
DEXJSMTEST   000000000000610000000   035Change    0000081Field(#SERVICE1) To(AS2OutboundReceiptService)00359980120150522ROBG       PCXTASK                   
DEXJSMTEST   000000000000620000000   035Message   0000073Msgtxt('Testing load of ' + #SERVICE1)00359980120150522ROBG       PCXTASK                           
DEXJSMTEST   000000000000630000000   035Execute   0000090Subroutine(Checklicense) With_Parms(#SERVER1 #SERVICE1)00359980120150522ROBG       PCXTASK          
DEXJSMTEST   000000000000640000000   035          000003500359980120150522ROBG       PCXTASK                                                                 
DEXJSMTEST   000000000000650000000   035Change    0000070Field(#SERVICE1) To(AS3FileService)00359980120150522ROBG       PCXTASK                              
DEXJSMTEST   000000000000660000000   035Message   0000073Msgtxt('Testing load of ' + #SERVICE1)00359980120150522ROBG       PCXTASK                           
DEXJSMTEST   000000000000670000000   035Execute   0000090Subroutine(Checklicense) With_Parms(#SERVER1 #SERVICE1)00359980120150522ROBG       PCXTASK          
DEXJSMTEST   000000000000680000000   035          000003500359980120150522ROBG       PCXTASK                                                                 
DEXJSMTEST   000000000000690000000   035Change    0000073Field(#SERVICE1) To(EDICatalogService)00359980120150522ROBG       PCXTASK                           
DEXJSMTEST   000000000000700000000   035Message   0000073Msgtxt('Testing load of ' + #SERVICE1)00359980120150522ROBG       PCXTASK                           
DEXJSMTEST   000000000000710000000   035Execute   0000090Subroutine(Checklicense) With_Parms(#SERVER1 #SERVICE1)00359980120150522ROBG       PCXTASK          
DEXJSMTEST   000000000000720000000   035          000003500359980120150522ROBG       PCXTASK                                                                 
DEXJSMTEST   000000000000730000000   035Change    0000073Field(#SERVICE1) To(EDIDataSetService)00359980120150522ROBG       PCXTASK                           
DEXJSMTEST   000000000000740000000   035Message   0000073Msgtxt('Testing load of ' + #SERVICE1)00359980120150522ROBG       PCXTASK                           
DEXJSMTEST   000000000000750000000   035Execute   0000090Subroutine(Checklicense) With_Parms(#SERVER1 #SERVICE1)00359980120150522ROBG       PCXTASK          
DEXJSMTEST   000000000000760000000   035          000003500359980120150522ROBG       PCXTASK                                                                 
DEXJSMTEST   000000000000770000000   035Change    0000074Field(#SERVICE1) To(EDIDatabaseService)00359980120150522ROBG       PCXTASK                          
DEXJSMTEST   000000000000780000000   035Message   0000073Msgtxt('Testing load of ' + #SERVICE1)00359980120150522ROBG       PCXTASK                           
DEXJSMTEST   000000000000790000000   035Execute   0000090Subroutine(Checklicense) With_Parms(#SERVER1 #SERVICE1)00359980120150522ROBG       PCXTASK          
DEXJSMTEST   000000000000800000000   035          000003500359980120150522ROBG       PCXTASK                                                                 
DEXJSMTEST   000000000000810000000   035Change    0000077Field(#SERVICE1) To(EDIInterchangeService)00359980120150522ROBG       PCXTASK                       
DEXJSMTEST   000000000000820000000   035Message   0000073Msgtxt('Testing load of ' + #SERVICE1)00359980120150522ROBG       PCXTASK                           
DEXJSMTEST   000000000000830000000   035Execute   0000090Subroutine(Checklicense) With_Parms(#SERVER1 #SERVICE1)00359980120150522ROBG       PCXTASK          
DEXJSMTEST   000000000000840000000   035          000003500359980120150522ROBG       PCXTASK                                                                 
DEXJSMTEST   000000000000850000000   035Change    0000066Field(#SERVICE1) To(SQLService)00359980120150522ROBG       PCXTASK                                  
DEXJSMTEST   000000000000860000000   035Message   0000073Msgtxt('Testing load of ' + #SERVICE1)00359980120150522ROBG       PCXTASK                           
DEXJSMTEST   000000000000870000000   035Execute   0000090Subroutine(Checklicense) With_Parms(#SERVER1 #SERVICE1)00359980120150522ROBG       PCXTASK          
DEXJSMTEST   000000000000880000000   035          000003500359980120150522ROBG       PCXTASK                                                                 
DEXJSMTEST   000000000000890000000   035Change    0000066Field(#SERVICE1) To(ZipService)00359980120150522ROBG       PCXTASK                                  
DEXJSMTEST   000000000000900000000   035Message   0000073Msgtxt('Testing load of ' + #SERVICE1)00359980120150522ROBG       PCXTASK                           
DEXJSMTEST   000000000000910000000   035Execute   0000090Subroutine(Checklicense) With_Parms(#SERVER1 #SERVICE1)00359980120150522ROBG       PCXTASK          
DEXJSMTEST   000000000000920000000   035          000003500359980120150522ROBG       PCXTASK                                                                 
DEXJSMTEST   000000000000930000000   035Endroutine000003500359980120150522ROBG       PCXTASK                                                                 
DEXJSMTEST   000000000000940000000   035          000003500359980120150522ROBG       PCXTASK                                                                 
DEXJSMTEST   000000000000950000000   035Subroutine0000075Name(checklicense) Parms(#clSRV #clSVCE)00359980120150522ROBG       PCXTASK                         
DEXJSMTEST   000000000000960000000   035          000003500359980120150522ROBG       PCXTASK                                                                 
DEXJSMTEST   000000000000970000000   035          000003500359980120150522ROBG       PCXTASK                                                                 
