DEXDFJSMLICE                                 00000000000001JSMXSTS                Y                                                                      
DEXDFJSMLICE                                 00000010000001STD_TEXTL              Y                                                                      
DEXDFJSMLICE                                 00000020000001STD_TEXT               Y                                                                      
DEXDFJSMLICE                                 00000030000001JSMXHDLE1              Y                                                                      
DEXDFJSMLICE                                 00000040000001JSMXCMD                Y                                                                      
DEXDFJSMLICE                                 00000050000001JSMXMSG                Y                                                                      
DEXDFJSMLICE                                 00000060000017*BLANK                Y                                                                       
DEXDFJSMLICE                                 00000070000017*BLANKS               Y                                                                       
DEXDFJSMLICE                                 00000080000014CLSRV                 Y     YA000010000                                                       
DEXDFJSMLICE                                 00000090000014CLSVCE                Y     YA000010000                                                       
DEXDFJSMLICE                                 00000100000014FILE                  Y Y   YA000008000                                                       
DEXDFJSMLICE                                 00000110000014IO$MDE                Y      A000000300                                                       
DEXDFJSMLICE                                 00000120000014IO$STS               YY      A000000200                                                       
DEXDFJSMLICE                                 00000130000014JSMXCMD               Y      H000035500                                                       
DEXDFJSMLICE                                 00000140000014JSMXHDLE1             Y      H000000400                                                       
DEXDFJSMLICE                                 00000150000014JSMXMSG               Y      H000025500                                                       
DEXDFJSMLICE                                 00000160000014JSMXSTS             Y Y      A000002000                                                       
DEXDFJSMLICE                                 00000170000014KEYWORD             Y Y     YA000005000                                                       
DEXDFJSMLICE                                 00000180000014KEYW_VAL1           Y Y     YA000007500                                                       
DEXDFJSMLICE                                 00000190000014MSGDTA              Y YY    YA000013200                                                       
DEXDFJSMLICE                                 00000200000014SERVER1               Y     YA000010000                                                       
DEXDFJSMLICE                                 00000210000014SERVICE1              Y     YA000010000                                                       
DEXDFJSMLICE                                 00000220000014STD_TEXT              Y      A000005000                                                       
DEXDFJSMLICE                                 00000230000014STD_TEXTL             Y      A000007500                                                       
DEXDFJSMLICE                                 00000240000014TYPE1                 Y Y   YA000000100                                                       
DEXDFJSMLICE                                 00000250000011DC@M01              *LIBL                                                                     
DEXDFJSMLICE                                 00000260000012DCM9899             DC@M01    *LIBL                                                           
DEXDFJSMLICE                                 00000270000024M@SYSVAR            *LIBL                                                                     
DEXDFJSMLICE                                 00000280000019BCONCAT                                                                                       
DEXDFJSMLICE                                 00000290000019JSMX_CLOSE                                                                                    
DEXDFJSMLICE                                 00000300000019JSMX_COMMAND                                                                                  
DEXDFJSMLICE                                 00000310000019JSMX_OPEN                                                                                     
DEXDFJSMLICE                                 00000320000019TCONCAT                                                                                       
DEXDFJSMLICE                                 00000330000016STD_TEXT            KEYWORD                                                                   
DEXDFJSMLICE                                 00000340000016STD_TEXTL           KEYW_VAL1                                                                 
DEXDFJSMLICE             WEBLIC              00000000000029std_keys                                          ENG LANSA     JQMOBILE                      
DEXDFJSMLICE             WEBLIC              00000000000029std_keys                                          ENG LANSA     PPC_XHTML                     
DEXDFJSMLICE             WEBLIC              00000000000029std_keys                                          ENG LANSA     XHTML                         
DEXDFJSMLICE             WEBLIC              00000010000029std_variables                                     ENG LANSA     JQMOBILE                      
DEXDFJSMLICE             WEBLIC              00000010000029std_variables                                     ENG LANSA     PPC_XHTML                     
DEXDFJSMLICE             WEBLIC              00000010000029std_variables                                     ENG LANSA     XHTML                         
DEXDFJSMLICE             WEBLIC              00000020000029std_hidden                                        ENG LANSA     JQMOBILE                      
DEXDFJSMLICE             WEBLIC              00000020000029jsmlice_layout                                    ENG LANSA     PPC_XHTML                     
DEXDFJSMLICE             WEBLIC              00000020000029std_hidden                                        ENG LANSA     XHTML                         
DEXDFJSMLICE             WEBLIC              00000030000029jsmlice_layout                                    ENG LANSA     JQMOBILE                      
DEXDFJSMLICE             WEBLIC              00000030000029std_input                                         ENG LANSA     PPC_XHTML                     
DEXDFJSMLICE             WEBLIC              00000030000029jsmlice_layout                                    ENG LANSA     XHTML                         
DEXDFJSMLICE             WEBLIC              00000040000029std_input                                         ENG LANSA     JQMOBILE                      
DEXDFJSMLICE             WEBLIC              00000040000029std_input                                         ENG LANSA     XHTML                         
